{
  "contractName": "Emanator",
  "abi": [
    {
      "inputs": [
        {
          "internalType": "contract ISuperfluid",
          "name": "_host",
          "type": "address"
        },
        {
          "internalType": "contract IConstantFlowAgreementV1",
          "name": "_cfa",
          "type": "address"
        },
        {
          "internalType": "contract IInstantDistributionAgreementV1",
          "name": "_ida",
          "type": "address"
        },
        {
          "internalType": "contract ISuperToken",
          "name": "_tokenX",
          "type": "address"
        },
        {
          "internalType": "uint32",
          "name": "_winLength",
          "type": "uint32"
        }
      ],
      "stateMutability": "nonpayable",
      "type": "constructor"
    },
    {
      "anonymous": false,
      "inputs": [
        {
          "indexed": true,
          "internalType": "address",
          "name": "owner",
          "type": "address"
        },
        {
          "indexed": true,
          "internalType": "address",
          "name": "approved",
          "type": "address"
        },
        {
          "indexed": true,
          "internalType": "uint256",
          "name": "tokenId",
          "type": "uint256"
        }
      ],
      "name": "Approval",
      "type": "event"
    },
    {
      "anonymous": false,
      "inputs": [
        {
          "indexed": true,
          "internalType": "address",
          "name": "owner",
          "type": "address"
        },
        {
          "indexed": true,
          "internalType": "address",
          "name": "operator",
          "type": "address"
        },
        {
          "indexed": false,
          "internalType": "bool",
          "name": "approved",
          "type": "bool"
        }
      ],
      "name": "ApprovalForAll",
      "type": "event"
    },
    {
      "anonymous": false,
      "inputs": [
        {
          "indexed": true,
          "internalType": "address",
          "name": "from",
          "type": "address"
        },
        {
          "indexed": true,
          "internalType": "address",
          "name": "to",
          "type": "address"
        },
        {
          "indexed": true,
          "internalType": "uint256",
          "name": "tokenId",
          "type": "uint256"
        }
      ],
      "name": "Transfer",
      "type": "event"
    },
    {
      "anonymous": false,
      "inputs": [
        {
          "indexed": false,
          "internalType": "uint256",
          "name": "id",
          "type": "uint256"
        },
        {
          "indexed": true,
          "internalType": "address",
          "name": "winner",
          "type": "address"
        }
      ],
      "name": "auctionWon",
      "type": "event"
    },
    {
      "anonymous": false,
      "inputs": [
        {
          "indexed": false,
          "internalType": "uint256",
          "name": "id",
          "type": "uint256"
        }
      ],
      "name": "newAuction",
      "type": "event"
    },
    {
      "inputs": [],
      "name": "INDEX_ID",
      "outputs": [
        {
          "internalType": "uint32",
          "name": "",
          "type": "uint32"
        }
      ],
      "stateMutability": "view",
      "type": "function"
    },
    {
      "inputs": [
        {
          "internalType": "address",
          "name": "to",
          "type": "address"
        },
        {
          "internalType": "uint256",
          "name": "tokenId",
          "type": "uint256"
        }
      ],
      "name": "approve",
      "outputs": [],
      "stateMutability": "nonpayable",
      "type": "function"
    },
    {
      "inputs": [
        {
          "internalType": "uint256",
          "name": "",
          "type": "uint256"
        }
      ],
      "name": "auctionByGeneration",
      "outputs": [
        {
          "internalType": "uint256",
          "name": "lastBidTime",
          "type": "uint256"
        },
        {
          "internalType": "uint256",
          "name": "highBid",
          "type": "uint256"
        },
        {
          "internalType": "address",
          "name": "owner",
          "type": "address"
        },
        {
          "internalType": "address",
          "name": "highBidder",
          "type": "address"
        },
        {
          "internalType": "uint256",
          "name": "revenue",
          "type": "uint256"
        }
      ],
      "stateMutability": "view",
      "type": "function"
    },
    {
      "inputs": [
        {
          "internalType": "address",
          "name": "owner",
          "type": "address"
        }
      ],
      "name": "balanceOf",
      "outputs": [
        {
          "internalType": "uint256",
          "name": "",
          "type": "uint256"
        }
      ],
      "stateMutability": "view",
      "type": "function"
    },
    {
      "inputs": [],
      "name": "baseURI",
      "outputs": [
        {
          "internalType": "string",
          "name": "",
          "type": "string"
        }
      ],
      "stateMutability": "view",
      "type": "function"
    },
    {
      "inputs": [],
      "name": "creator",
      "outputs": [
        {
          "internalType": "address payable",
          "name": "",
          "type": "address"
        }
      ],
      "stateMutability": "view",
      "type": "function"
    },
    {
      "inputs": [],
      "name": "currentGeneration",
      "outputs": [
        {
          "internalType": "uint32",
          "name": "",
          "type": "uint32"
        }
      ],
      "stateMutability": "view",
      "type": "function"
    },
    {
      "inputs": [
        {
          "internalType": "uint256",
          "name": "tokenId",
          "type": "uint256"
        }
      ],
      "name": "getApproved",
      "outputs": [
        {
          "internalType": "address",
          "name": "",
          "type": "address"
        }
      ],
      "stateMutability": "view",
      "type": "function"
    },
    {
      "inputs": [
        {
          "internalType": "address",
          "name": "owner",
          "type": "address"
        },
        {
          "internalType": "address",
          "name": "operator",
          "type": "address"
        }
      ],
      "name": "isApprovedForAll",
      "outputs": [
        {
          "internalType": "bool",
          "name": "",
          "type": "bool"
        }
      ],
      "stateMutability": "view",
      "type": "function"
    },
    {
      "inputs": [],
      "name": "name",
      "outputs": [
        {
          "internalType": "string",
          "name": "",
          "type": "string"
        }
      ],
      "stateMutability": "view",
      "type": "function"
    },
    {
      "inputs": [
        {
          "internalType": "uint256",
          "name": "tokenId",
          "type": "uint256"
        }
      ],
      "name": "ownerOf",
      "outputs": [
        {
          "internalType": "address",
          "name": "",
          "type": "address"
        }
      ],
      "stateMutability": "view",
      "type": "function"
    },
    {
      "inputs": [
        {
          "internalType": "address",
          "name": "from",
          "type": "address"
        },
        {
          "internalType": "address",
          "name": "to",
          "type": "address"
        },
        {
          "internalType": "uint256",
          "name": "tokenId",
          "type": "uint256"
        }
      ],
      "name": "safeTransferFrom",
      "outputs": [],
      "stateMutability": "nonpayable",
      "type": "function"
    },
    {
      "inputs": [
        {
          "internalType": "address",
          "name": "from",
          "type": "address"
        },
        {
          "internalType": "address",
          "name": "to",
          "type": "address"
        },
        {
          "internalType": "uint256",
          "name": "tokenId",
          "type": "uint256"
        },
        {
          "internalType": "bytes",
          "name": "_data",
          "type": "bytes"
        }
      ],
      "name": "safeTransferFrom",
      "outputs": [],
      "stateMutability": "nonpayable",
      "type": "function"
    },
    {
      "inputs": [
        {
          "internalType": "address",
          "name": "operator",
          "type": "address"
        },
        {
          "internalType": "bool",
          "name": "approved",
          "type": "bool"
        }
      ],
      "name": "setApprovalForAll",
      "outputs": [],
      "stateMutability": "nonpayable",
      "type": "function"
    },
    {
      "inputs": [],
      "name": "shareAmount",
      "outputs": [
        {
          "internalType": "uint256",
          "name": "",
          "type": "uint256"
        }
      ],
      "stateMutability": "view",
      "type": "function"
    },
    {
      "inputs": [
        {
          "internalType": "bytes4",
          "name": "interfaceId",
          "type": "bytes4"
        }
      ],
      "name": "supportsInterface",
      "outputs": [
        {
          "internalType": "bool",
          "name": "",
          "type": "bool"
        }
      ],
      "stateMutability": "view",
      "type": "function"
    },
    {
      "inputs": [],
      "name": "symbol",
      "outputs": [
        {
          "internalType": "string",
          "name": "",
          "type": "string"
        }
      ],
      "stateMutability": "view",
      "type": "function"
    },
    {
      "inputs": [
        {
          "internalType": "uint256",
          "name": "index",
          "type": "uint256"
        }
      ],
      "name": "tokenByIndex",
      "outputs": [
        {
          "internalType": "uint256",
          "name": "",
          "type": "uint256"
        }
      ],
      "stateMutability": "view",
      "type": "function"
    },
    {
      "inputs": [
        {
          "internalType": "address",
          "name": "owner",
          "type": "address"
        },
        {
          "internalType": "uint256",
          "name": "index",
          "type": "uint256"
        }
      ],
      "name": "tokenOfOwnerByIndex",
      "outputs": [
        {
          "internalType": "uint256",
          "name": "",
          "type": "uint256"
        }
      ],
      "stateMutability": "view",
      "type": "function"
    },
    {
      "inputs": [
        {
          "internalType": "uint256",
          "name": "tokenId",
          "type": "uint256"
        }
      ],
      "name": "tokenURI",
      "outputs": [
        {
          "internalType": "string",
          "name": "",
          "type": "string"
        }
      ],
      "stateMutability": "view",
      "type": "function"
    },
    {
      "inputs": [],
      "name": "tokenX",
      "outputs": [
        {
          "internalType": "contract ISuperToken",
          "name": "",
          "type": "address"
        }
      ],
      "stateMutability": "view",
      "type": "function"
    },
    {
      "inputs": [],
      "name": "totalSupply",
      "outputs": [
        {
          "internalType": "uint256",
          "name": "",
          "type": "uint256"
        }
      ],
      "stateMutability": "view",
      "type": "function"
    },
    {
      "inputs": [
        {
          "internalType": "address",
          "name": "from",
          "type": "address"
        },
        {
          "internalType": "address",
          "name": "to",
          "type": "address"
        },
        {
          "internalType": "uint256",
          "name": "tokenId",
          "type": "uint256"
        }
      ],
      "name": "transferFrom",
      "outputs": [],
      "stateMutability": "nonpayable",
      "type": "function"
    },
    {
      "inputs": [],
      "name": "winLength",
      "outputs": [
        {
          "internalType": "uint32",
          "name": "",
          "type": "uint32"
        }
      ],
      "stateMutability": "view",
      "type": "function"
    },
    {
      "inputs": [
        {
          "internalType": "address",
          "name": "",
          "type": "address"
        },
        {
          "internalType": "address",
          "name": "",
          "type": "address"
        },
        {
          "internalType": "uint256",
          "name": "",
          "type": "uint256"
        },
        {
          "internalType": "bytes",
          "name": "",
          "type": "bytes"
        }
      ],
      "name": "onERC721Received",
      "outputs": [
        {
          "internalType": "bytes4",
          "name": "",
          "type": "bytes4"
        }
      ],
      "stateMutability": "nonpayable",
      "type": "function"
    },
    {
      "inputs": [
        {
          "internalType": "uint256",
          "name": "bidAmount",
          "type": "uint256"
        }
      ],
      "name": "bid",
      "outputs": [
        {
          "internalType": "uint256",
          "name": "highBid",
          "type": "uint256"
        },
        {
          "internalType": "uint256",
          "name": "lastBidTime",
          "type": "uint256"
        },
        {
          "internalType": "address",
          "name": "highBidder",
          "type": "address"
        }
      ],
      "stateMutability": "nonpayable",
      "type": "function"
    },
    {
      "inputs": [],
      "name": "settleAndBeginAuction",
      "outputs": [
        {
          "internalType": "uint256",
          "name": "newShareAmount",
          "type": "uint256"
        }
      ],
      "stateMutability": "nonpayable",
      "type": "function"
    },
    {
      "inputs": [],
      "name": "checkTimeRemaining",
      "outputs": [
        {
          "internalType": "uint256",
          "name": "timeLeft",
          "type": "uint256"
        }
      ],
      "stateMutability": "view",
      "type": "function"
    },
    {
      "inputs": [],
      "name": "checkEndTime",
      "outputs": [
        {
          "internalType": "uint256",
          "name": "",
          "type": "uint256"
        }
      ],
      "stateMutability": "view",
      "type": "function"
    },
    {
      "inputs": [],
      "name": "getCurrentAuctionInfo",
      "outputs": [
        {
          "internalType": "uint256",
          "name": "highBid",
          "type": "uint256"
        },
        {
          "internalType": "address",
          "name": "highBidder",
          "type": "address"
        },
        {
          "internalType": "uint256",
          "name": "lastBidTime",
          "type": "uint256"
        },
        {
          "internalType": "uint32",
          "name": "currentGeneration",
          "type": "uint32"
        }
      ],
      "stateMutability": "view",
      "type": "function"
    },
    {
      "inputs": [
        {
          "internalType": "uint256",
          "name": "id",
          "type": "uint256"
        }
      ],
      "name": "getAuctionInfo",
      "outputs": [
        {
          "internalType": "uint256",
          "name": "highBid",
          "type": "uint256"
        },
        {
          "internalType": "address",
          "name": "highBidder",
          "type": "address"
        },
        {
          "internalType": "uint256",
          "name": "lastBidTime",
          "type": "uint256"
        },
        {
          "internalType": "uint256",
          "name": "revenue",
          "type": "uint256"
        }
      ],
      "stateMutability": "view",
      "type": "function"
    },
    {
      "inputs": [],
      "name": "getHighBidder",
      "outputs": [
        {
          "internalType": "address",
          "name": "highBidder",
          "type": "address"
        }
      ],
      "stateMutability": "view",
      "type": "function"
    },
    {
      "inputs": [],
      "name": "getHighBid",
      "outputs": [
        {
          "internalType": "uint256",
          "name": "highBid",
          "type": "uint256"
        }
      ],
      "stateMutability": "view",
      "type": "function"
    },
    {
      "inputs": [],
      "name": "getLastBidTime",
      "outputs": [
        {
          "internalType": "uint256",
          "name": "lastBidTime",
          "type": "uint256"
        }
      ],
      "stateMutability": "view",
      "type": "function"
    },
    {
      "inputs": [],
      "name": "getAuctionBalance",
      "outputs": [
        {
          "internalType": "uint256",
          "name": "balanceOf",
          "type": "uint256"
        }
      ],
      "stateMutability": "view",
      "type": "function"
    },
    {
      "inputs": [],
      "name": "getShares",
      "outputs": [
        {
          "internalType": "uint128",
          "name": "shares",
          "type": "uint128"
        }
      ],
      "stateMutability": "view",
      "type": "function"
    },
    {
      "inputs": [
        {
          "internalType": "address",
          "name": "owner",
          "type": "address"
        }
      ],
      "name": "getSharesOf",
      "outputs": [
        {
          "internalType": "uint128",
          "name": "shares",
          "type": "uint128"
        }
      ],
      "stateMutability": "view",
      "type": "function"
    }
  ],
  "bytecode": "0x60806040526001600a60046101000a81548163ffffffff021916908363ffffffff1602179055506305f5e100600b553480156200003b57600080fd5b5060405162005cd438038062005cd4833981810160405260a08110156200006157600080fd5b8101908080519060200190929190805190602001909291908051906020019092919080519060200190929190805190602001909291905050506040518060400160405280600881526020017f456d616e61746f720000000000000000000000000000000000000000000000008152506040518060400160405280600481526020017f454e4654000000000000000000000000000000000000000000000000000000008152506200011e6301ffc9a760e01b6200070660201b60201c565b816006908051906020019062000136929190620013ad565b5080600790805190602001906200014f929190620013ad565b50620001686380ac58cd60e01b6200070660201b60201c565b62000180635b5e139f60e01b6200070660201b60201c565b6200019863780e9d6360e01b6200070660201b60201c565b505084600d60006101000a81548173ffffffffffffffffffffffffffffffffffffffff021916908373ffffffffffffffffffffffffffffffffffffffff16021790555083600e60006101000a81548173ffffffffffffffffffffffffffffffffffffffff021916908373ffffffffffffffffffffffffffffffffffffffff16021790555082600f60006101000a81548173ffffffffffffffffffffffffffffffffffffffff021916908373ffffffffffffffffffffffffffffffffffffffff16021790555081601060006101000a81548173ffffffffffffffffffffffffffffffffffffffff021916908373ffffffffffffffffffffffffffffffffffffffff16021790555080600a60006101000a81548163ffffffff021916908363ffffffff16021790555033600c60006101000a81548173ffffffffffffffffffffffffffffffffffffffff021916908373ffffffffffffffffffffffffffffffffffffffff160217905550620003133060016200080f60201b60201c565b600d60009054906101000a900473ffffffffffffffffffffffffffffffffffffffff1673ffffffffffffffffffffffffffffffffffffffff166361d164d3600f60009054906101000a900473ffffffffffffffffffffffffffffffffffffffff1663d787840a60e01b601060009054906101000a900473ffffffffffffffffffffffffffffffffffffffff1660008067ffffffffffffffff81118015620003b957600080fd5b506040519080825280601f01601f191660200182016040528015620003ed5781602001600182028036833780820191505090505b50604051602401808473ffffffffffffffffffffffffffffffffffffffff1681526020018363ffffffff16815260200180602001828103825283818151815260200191508051906020019080838360005b838110156200045b5780820151818401526020810190506200043e565b50505050905090810190601f168015620004895780820380516001836020036101000a031916815260200191505b50945050505050604051602081830303815290604052907bffffffffffffffffffffffffffffffffffffffffffffffffffffffff19166020820180517bffffffffffffffffffffffffffffffffffffffffffffffffffffffff83818316178352505050506040518363ffffffff1660e01b8152600401808373ffffffffffffffffffffffffffffffffffffffff16815260200180602001828103825283818151815260200191508051906020019080838360005b838110156200055a5780820151818401526020810190506200053d565b50505050905090810190601f168015620005885780820380516001836020036101000a031916815260200191505b509350505050600060405180830381600087803b158015620005a957600080fd5b505af1158015620005be573d6000803e3d6000fd5b505050506040513d6000823e3d601f19601f820116820180604052506020811015620005e957600080fd5b81019080805160405193929190846401000000008211156200060a57600080fd5b838201915060208201858111156200062157600080fd5b82518660018202830111640100000000821117156200063f57600080fd5b8083526020830192505050908051906020019080838360005b838110156200067557808201518184015260208101905062000658565b50505050905090810190601f168015620006a35780820380516001836020036101000a031916815260200191505b5060405250505050620006c3336000620009de60201b6200314d1760201c565b7fda83fc749f1dad2f8cdb0a38a3844a5da2f6da5554025c13adf3ecc8127d0f1e60006040518082815260200191505060405180910390a1505050505062001453565b63ffffffff60e01b817bffffffffffffffffffffffffffffffffffffffffffffffffffffffff19161415620007a3576040517f08c379a000000000000000000000000000000000000000000000000000000000815260040180806020018281038252601c8152602001807f4552433136353a20696e76616c696420696e746572666163652069640000000081525060200191505060405180910390fd5b6001600080837bffffffffffffffffffffffffffffffffffffffffffffffffffffffff19167bffffffffffffffffffffffffffffffffffffffffffffffffffffffff1916815260200190815260200160002060006101000a81548160ff02191690831515021790555050565b6200081f62000a0460201b60201c565b73ffffffffffffffffffffffffffffffffffffffff168273ffffffffffffffffffffffffffffffffffffffff161415620008c1576040517f08c379a00000000000000000000000000000000000000000000000000000000081526004018080602001828103825260198152602001807f4552433732313a20617070726f766520746f2063616c6c65720000000000000081525060200191505060405180910390fd5b8060056000620008d662000a0460201b60201c565b73ffffffffffffffffffffffffffffffffffffffff1673ffffffffffffffffffffffffffffffffffffffff16815260200190815260200160002060008473ffffffffffffffffffffffffffffffffffffffff1673ffffffffffffffffffffffffffffffffffffffff16815260200190815260200160002060006101000a81548160ff0219169083151502179055508173ffffffffffffffffffffffffffffffffffffffff166200098b62000a0460201b60201c565b73ffffffffffffffffffffffffffffffffffffffff167f17307eab39ab6107e8899845ad3d59bd9653f200f220920489ca2b5937696c318360405180821515815260200191505060405180910390a35050565b62000a0082826040518060200160405280600081525062000a0c60201b60201c565b5050565b600033905090565b62000a1e838362000a8f60201b60201c565b62000a33600084848462000ca360201b60201c565b62000a8a576040517f08c379a000000000000000000000000000000000000000000000000000000000815260040180806020018281038252603281526020018062005ca26032913960400191505060405180910390fd5b505050565b600073ffffffffffffffffffffffffffffffffffffffff168273ffffffffffffffffffffffffffffffffffffffff16141562000b33576040517f08c379a00000000000000000000000000000000000000000000000000000000081526004018080602001828103825260208152602001807f4552433732313a206d696e7420746f20746865207a65726f206164647265737381525060200191505060405180910390fd5b62000b448162000edf60201b60201c565b1562000bb8576040517f08c379a000000000000000000000000000000000000000000000000000000000815260040180806020018281038252601c8152602001807f4552433732313a20746f6b656e20616c7265616479206d696e7465640000000081525060200191505060405180910390fd5b62000bcc6000838362000f0360201b60201c565b62000c2481600160008573ffffffffffffffffffffffffffffffffffffffff1673ffffffffffffffffffffffffffffffffffffffff16815260200190815260200160002062000f0860201b6200316b1790919060201c565b5062000c428183600262000f2a60201b62003185179092919060201c565b50808273ffffffffffffffffffffffffffffffffffffffff16600073ffffffffffffffffffffffffffffffffffffffff167fddf252ad1be2c89b69c2b068fc378daa952ba7f163c4a11628f55a4df523b3ef60405160405180910390a45050565b600062000cd18473ffffffffffffffffffffffffffffffffffffffff1662000f6760201b620031ba1760201c565b62000ce0576001905062000ed7565b606062000e5d63150b7a0260e01b62000cfe62000a0460201b60201c565b888787604051602401808573ffffffffffffffffffffffffffffffffffffffff1681526020018473ffffffffffffffffffffffffffffffffffffffff16815260200183815260200180602001828103825283818151815260200191508051906020019080838360005b8381101562000d8457808201518184015260208101905062000d67565b50505050905090810190601f16801562000db25780820380516001836020036101000a031916815260200191505b5095505050505050604051602081830303815290604052907bffffffffffffffffffffffffffffffffffffffffffffffffffffffff19166020820180517bffffffffffffffffffffffffffffffffffffffffffffffffffffffff838183161783525050505060405180606001604052806032815260200162005ca2603291398773ffffffffffffffffffffffffffffffffffffffff1662000fb360201b62003205179092919060201c565b9050600081806020019051602081101562000e7757600080fd5b8101908080519060200190929190505050905063150b7a0260e01b7bffffffffffffffffffffffffffffffffffffffffffffffffffffffff1916817bffffffffffffffffffffffffffffffffffffffffffffffffffffffff191614925050505b949350505050565b600062000efc82600262000fd360201b6200321d1790919060201c565b9050919050565b505050565b600062000f22836000018360001b62000ff560201b60201c565b905092915050565b600062000f5e846000018460001b8473ffffffffffffffffffffffffffffffffffffffff1660001b6200106f60201b60201c565b90509392505050565b60008060007fc5d2460186f7233c927e7db2dcc703c0e500b653ca82273b7bfad8045d85a47060001b9050833f915080821415801562000faa57506000801b8214155b92505050919050565b606062000fca84846000856200114e60201b60201c565b90509392505050565b600062000fed836000018360001b6200136760201b60201c565b905092915050565b60006200100983836200138a60201b60201c565b6200106457826000018290806001815401808255809150506001900390600052602060002001600090919091909150558260000180549050836001016000848152602001908152602001600020819055506001905062001069565b600090505b92915050565b6000808460010160008581526020019081526020016000205490506000811415620011185784600001604051806040016040528086815260200185815250908060018154018082558091505060019003906000526020600020906002020160009091909190915060008201518160000155602082015181600101555050846000018054905085600101600086815260200190815260200160002081905550600191505062001147565b828560000160018303815481106200112c57fe5b90600052602060002090600202016001018190555060009150505b9392505050565b6060620011618562000f6760201b60201c565b620011d4576040517f08c379a000000000000000000000000000000000000000000000000000000000815260040180806020018281038252601d8152602001807f416464726573733a2063616c6c20746f206e6f6e2d636f6e747261637400000081525060200191505060405180910390fd5b600060608673ffffffffffffffffffffffffffffffffffffffff1685876040518082805190602001908083835b6020831062001226578051825260208201915060208101905060208303925062001201565b6001836020036101000a03801982511681845116808217855250505050505090500191505060006040518083038185875af1925050503d80600081146200128a576040519150601f19603f3d011682016040523d82523d6000602084013e6200128f565b606091505b50915091508115620012a65780925050506200135f565b600081511115620012ba5780518082602001fd5b836040517f08c379a00000000000000000000000000000000000000000000000000000000081526004018080602001828103825283818151815260200191508051906020019080838360005b838110156200132357808201518184015260208101905062001306565b50505050905090810190601f168015620013515780820380516001836020036101000a031916815260200191505b509250505060405180910390fd5b949350505050565b600080836001016000848152602001908152602001600020541415905092915050565b600080836001016000848152602001908152602001600020541415905092915050565b828054600181600116156101000203166002900490600052602060002090601f016020900481019282601f10620013f057805160ff191683800117855562001421565b8280016001018555821562001421579182015b828111156200142057825182559160200191906001019062001403565b5b50905062001430919062001434565b5090565b5b808211156200144f57600081600090555060010162001435565b5090565b61483f80620014636000396000f3fe608060405234801561001057600080fd5b50600436106102275760003560e01c8063454a2ab31161013057806395d89b41116100b8578063da780ecb1161007c578063da780ecb14610c9f578063e8f129cc14610cbd578063e985e9c514610d47578063ee85348e14610dc1578063fc3fc4ed14610e2b57610227565b806395d89b41146109f0578063a22cb46514610a73578063b88d4fde14610ac3578063c87b56dd14610bc8578063d73fe0aa14610c6f57610227565b806370a08231116100ff57806370a08231146108fe57806374a9d460146109565780637d1184f0146109745780638c7f0959146109a85780638ddb428a146109cc57610227565b8063454a2ab31461077b5780634f6ccce7146107e15780636352211e146108235780636c0360eb1461087b57610227565b806320f118b3116101b357806328b560481161018257806328b560481461064b5780632f745c591461066957806340c6ed97146106cb57806342842e0e146106e95780634352d3e11461075757610227565b806320f118b31461058357806322a644b2146105a157806323b872dd146105bf57806325a35e731461062d57610227565b8063095ea7b3116101fa578063095ea7b31461039e578063150b7a02146103ec57806316dc165b146104e257806318160ddd14610516578063189d99461461053457610227565b806301ffc9a71461022c57806302d05d3f1461028f57806306fdde03146102c3578063081812fc14610346575b600080fd5b6102776004803603602081101561024257600080fd5b8101908080357bffffffffffffffffffffffffffffffffffffffffffffffffffffffff19169060200190929190505050610e98565b60405180821515815260200191505060405180910390f35b610297610eff565b604051808273ffffffffffffffffffffffffffffffffffffffff16815260200191505060405180910390f35b6102cb610f25565b6040518080602001828103825283818151815260200191508051906020019080838360005b8381101561030b5780820151818401526020810190506102f0565b50505050905090810190601f1680156103385780820380516001836020036101000a031916815260200191505b509250505060405180910390f35b6103726004803603602081101561035c57600080fd5b8101908080359060200190929190505050610fc7565b604051808273ffffffffffffffffffffffffffffffffffffffff16815260200191505060405180910390f35b6103ea600480360360408110156103b457600080fd5b81019080803573ffffffffffffffffffffffffffffffffffffffff16906020019092919080359060200190929190505050611062565b005b6104ad6004803603608081101561040257600080fd5b81019080803573ffffffffffffffffffffffffffffffffffffffff169060200190929190803573ffffffffffffffffffffffffffffffffffffffff169060200190929190803590602001909291908035906020019064010000000081111561046957600080fd5b82018360208201111561047b57600080fd5b8035906020019184600183028401116401000000008311171561049d57600080fd5b90919293919293905050506111a6565b60405180827bffffffffffffffffffffffffffffffffffffffffffffffffffffffff1916815260200191505060405180910390f35b6104ea6111d4565b604051808273ffffffffffffffffffffffffffffffffffffffff16815260200191505060405180910390f35b61051e6111fa565b6040518082815260200191505060405180910390f35b61053c61120b565b604051808581526020018473ffffffffffffffffffffffffffffffffffffffff1681526020018381526020018263ffffffff16815260200194505050505060405180910390f35b61058b61126a565b6040518082815260200191505060405180910390f35b6105a96112a5565b6040518082815260200191505060405180910390f35b61062b600480360360608110156105d557600080fd5b81019080803573ffffffffffffffffffffffffffffffffffffffff169060200190929190803573ffffffffffffffffffffffffffffffffffffffff169060200190929190803590602001909291905050506112ab565b005b610635611321565b6040518082815260200191505060405180910390f35b6106536113ec565b6040518082815260200191505060405180910390f35b6106b56004803603604081101561067f57600080fd5b81019080803573ffffffffffffffffffffffffffffffffffffffff16906020019092919080359060200190929190505050611447565b6040518082815260200191505060405180910390f35b6106d36114a2565b6040518082815260200191505060405180910390f35b610755600480360360608110156106ff57600080fd5b81019080803573ffffffffffffffffffffffffffffffffffffffff169060200190929190803573ffffffffffffffffffffffffffffffffffffffff169060200190929190803590602001909291905050506114f9565b005b61075f611519565b604051808263ffffffff16815260200191505060405180910390f35b6107a76004803603602081101561079157600080fd5b810190808035906020019092919050505061152f565b604051808481526020018381526020018273ffffffffffffffffffffffffffffffffffffffff168152602001935050505060405180910390f35b61080d600480360360208110156107f757600080fd5b81019080803590602001909291905050506117e3565b6040518082815260200191505060405180910390f35b61084f6004803603602081101561083957600080fd5b8101908080359060200190929190505050611806565b604051808273ffffffffffffffffffffffffffffffffffffffff16815260200191505060405180910390f35b61088361183d565b6040518080602001828103825283818151815260200191508051906020019080838360005b838110156108c35780820151818401526020810190506108a8565b50505050905090810190601f1680156108f05780820380516001836020036101000a031916815260200191505b509250505060405180910390f35b6109406004803603602081101561091457600080fd5b81019080803573ffffffffffffffffffffffffffffffffffffffff1690602001909291905050506118df565b6040518082815260200191505060405180910390f35b61095e6119b4565b6040518082815260200191505060405180910390f35b61097c6119ef565b604051808273ffffffffffffffffffffffffffffffffffffffff16815260200191505060405180910390f35b6109b0611a4a565b604051808263ffffffff16815260200191505060405180910390f35b6109d4611a4f565b604051808263ffffffff16815260200191505060405180910390f35b6109f8611a65565b6040518080602001828103825283818151815260200191508051906020019080838360005b83811015610a38578082015181840152602081019050610a1d565b50505050905090810190601f168015610a655780820380516001836020036101000a031916815260200191505b509250505060405180910390f35b610ac160048036036040811015610a8957600080fd5b81019080803573ffffffffffffffffffffffffffffffffffffffff169060200190929190803515159060200190929190505050611b07565b005b610bc660048036036080811015610ad957600080fd5b81019080803573ffffffffffffffffffffffffffffffffffffffff169060200190929190803573ffffffffffffffffffffffffffffffffffffffff1690602001909291908035906020019092919080359060200190640100000000811115610b4057600080fd5b820183602082011115610b5257600080fd5b80359060200191846001830284011164010000000083111715610b7457600080fd5b91908080601f016020809104026020016040519081016040528093929190818152602001838380828437600081840152601f19601f820116905080830192505050505050509192919290505050611cbd565b005b610bf460048036036020811015610bde57600080fd5b8101908080359060200190929190505050611d35565b6040518080602001828103825283818151815260200191508051906020019080838360005b83811015610c34578082015181840152602081019050610c19565b50505050905090810190601f168015610c615780820380516001836020036101000a031916815260200191505b509250505060405180910390f35b610c7761201e565b60405180826fffffffffffffffffffffffffffffffff16815260200191505060405180910390f35b610ca7612175565b6040518082815260200191505060405180910390f35b610ce960048036036020811015610cd357600080fd5b8101908080359060200190929190505050612e89565b604051808681526020018581526020018473ffffffffffffffffffffffffffffffffffffffff1681526020018373ffffffffffffffffffffffffffffffffffffffff1681526020018281526020019550505050505060405180910390f35b610da960048036036040811015610d5d57600080fd5b81019080803573ffffffffffffffffffffffffffffffffffffffff169060200190929190803573ffffffffffffffffffffffffffffffffffffffff169060200190929190505050612eff565b60405180821515815260200191505060405180910390f35b610e0360048036036020811015610dd757600080fd5b81019080803573ffffffffffffffffffffffffffffffffffffffff169060200190929190505050612f93565b60405180826fffffffffffffffffffffffffffffffff16815260200191505060405180910390f35b610e5760048036036020811015610e4157600080fd5b81019080803590602001909291905050506130ec565b604051808581526020018473ffffffffffffffffffffffffffffffffffffffff16815260200183815260200182815260200194505050505060405180910390f35b6000806000837bffffffffffffffffffffffffffffffffffffffffffffffffffffffff19167bffffffffffffffffffffffffffffffffffffffffffffffffffffffff1916815260200190815260200160002060009054906101000a900460ff169050919050565b600c60009054906101000a900473ffffffffffffffffffffffffffffffffffffffff1681565b606060068054600181600116156101000203166002900480601f016020809104026020016040519081016040528092919081815260200182805460018160011615610100020316600290048015610fbd5780601f10610f9257610100808354040283529160200191610fbd565b820191906000526020600020905b815481529060010190602001808311610fa057829003601f168201915b5050505050905090565b6000610fd282613237565b611027576040517f08c379a000000000000000000000000000000000000000000000000000000000815260040180806020018281038252602c8152602001806146fe602c913960400191505060405180910390fd5b6004600083815260200190815260200160002060009054906101000a900473ffffffffffffffffffffffffffffffffffffffff169050919050565b600061106d82611806565b90508073ffffffffffffffffffffffffffffffffffffffff168373ffffffffffffffffffffffffffffffffffffffff1614156110f4576040517f08c379a00000000000000000000000000000000000000000000000000000000081526004018080602001828103825260218152602001806147826021913960400191505060405180910390fd5b8073ffffffffffffffffffffffffffffffffffffffff16611113613254565b73ffffffffffffffffffffffffffffffffffffffff16148061114257506111418161113c613254565b612eff565b5b611197576040517f08c379a00000000000000000000000000000000000000000000000000000000081526004018080602001828103825260388152602001806146516038913960400191505060405180910390fd5b6111a1838361325c565b505050565b60007f150b7a023d4804d13e8c85fb27262cb750cf6ba9f9dd3bb30d90f482ceeb4b1f905095945050505050565b601060009054906101000a900473ffffffffffffffffffffffffffffffffffffffff1681565b60006112066002613315565b905090565b6000806000806000601160008363ffffffff168152602001908152602001600020905080600101548160030160009054906101000a900473ffffffffffffffffffffffffffffffffffffffff1682600001549450945094505090919293565b60008060116000600a60049054906101000a900463ffffffff1663ffffffff1681526020019081526020016000209050806000015491505090565b600b5481565b6112bc6112b6613254565b8261332a565b611311576040517f08c379a00000000000000000000000000000000000000000000000000000000081526004018080602001828103825260318152602001806147d96031913960400191505060405180910390fd5b61131c83838361341e565b505050565b6000601060009054906101000a900473ffffffffffffffffffffffffffffffffffffffff1673ffffffffffffffffffffffffffffffffffffffff166370a08231306040518263ffffffff1660e01b8152600401808273ffffffffffffffffffffffffffffffffffffffff16815260200191505060206040518083038186803b1580156113ac57600080fd5b505afa1580156113c0573d6000803e3d6000fd5b505050506040513d60208110156113d657600080fd5b8101908080519060200190929190505050905090565b60008060116000600a60049054906101000a900463ffffffff1663ffffffff16815260200190815260200160002090506000600a60009054906101000a900463ffffffff1663ffffffff168260000154019050809250505090565b600061149a82600160008673ffffffffffffffffffffffffffffffffffffffff1673ffffffffffffffffffffffffffffffffffffffff16815260200190815260200160002061366190919063ffffffff16565b905092915050565b60008060116000600a60049054906101000a900463ffffffff1663ffffffff168152602001908152602001600020905042600a60009054906101000a900463ffffffff1663ffffffff168260000154010391505090565b61151483838360405180602001604052806000815250611cbd565b505050565b600a60009054906101000a900463ffffffff1681565b60008060008060116000600a60049054906101000a900463ffffffff1663ffffffff16815260200190815260200160002090506000808260010154111561159657600a60009054906101000a900463ffffffff1663ffffffff16826000015401905061159d565b6002420290505b8042106115f5576040517f08c379a00000000000000000000000000000000000000000000000000000000081526004018080602001828103825260368152602001806147a36036913960400191505060405180910390fd5b81600101548611611651576040517f08c379a000000000000000000000000000000000000000000000000000000000815260040180806020018281038252602b815260200180614582602b913960400191505060405180910390fd5b601060009054906101000a900473ffffffffffffffffffffffffffffffffffffffff1673ffffffffffffffffffffffffffffffffffffffff166323b872dd3330896040518463ffffffff1660e01b8152600401808473ffffffffffffffffffffffffffffffffffffffff1681526020018373ffffffffffffffffffffffffffffffffffffffff1681526020018281526020019350505050602060405180830381600087803b15801561170257600080fd5b505af1158015611716573d6000803e3d6000fd5b505050506040513d602081101561172c57600080fd5b810190808051906020019092919050505050858260010181905550338260030160006101000a81548173ffffffffffffffffffffffffffffffffffffffff021916908373ffffffffffffffffffffffffffffffffffffffff160217905550428260000181905550858260040160008282540192505081905550816001015482600001548360030160009054906101000a900473ffffffffffffffffffffffffffffffffffffffff1694509450945050509193909250565b6000806117fa83600261367b90919063ffffffff16565b50905080915050919050565b6000611836826040518060600160405280602981526020016146b36029913960026136a79092919063ffffffff16565b9050919050565b606060098054600181600116156101000203166002900480601f0160208091040260200160405190810160405280929190818152602001828054600181600116156101000203166002900480156118d55780601f106118aa576101008083540402835291602001916118d5565b820191906000526020600020905b8154815290600101906020018083116118b857829003601f168201915b5050505050905090565b60008073ffffffffffffffffffffffffffffffffffffffff168273ffffffffffffffffffffffffffffffffffffffff161415611966576040517f08c379a000000000000000000000000000000000000000000000000000000000815260040180806020018281038252602a815260200180614689602a913960400191505060405180910390fd5b6119ad600160008473ffffffffffffffffffffffffffffffffffffffff1673ffffffffffffffffffffffffffffffffffffffff1681526020019081526020016000206136c6565b9050919050565b60008060116000600a60049054906101000a900463ffffffff1663ffffffff1681526020019081526020016000209050806001015491505090565b60008060116000600a60049054906101000a900463ffffffff1663ffffffff16815260200190815260200160002090508060030160009054906101000a900473ffffffffffffffffffffffffffffffffffffffff1691505090565b600081565b600a60049054906101000a900463ffffffff1681565b606060078054600181600116156101000203166002900480601f016020809104026020016040519081016040528092919081815260200182805460018160011615610100020316600290048015611afd5780601f10611ad257610100808354040283529160200191611afd565b820191906000526020600020905b815481529060010190602001808311611ae057829003601f168201915b5050505050905090565b611b0f613254565b73ffffffffffffffffffffffffffffffffffffffff168273ffffffffffffffffffffffffffffffffffffffff161415611bb0576040517f08c379a00000000000000000000000000000000000000000000000000000000081526004018080602001828103825260198152602001807f4552433732313a20617070726f766520746f2063616c6c65720000000000000081525060200191505060405180910390fd5b8060056000611bbd613254565b73ffffffffffffffffffffffffffffffffffffffff1673ffffffffffffffffffffffffffffffffffffffff16815260200190815260200160002060008473ffffffffffffffffffffffffffffffffffffffff1673ffffffffffffffffffffffffffffffffffffffff16815260200190815260200160002060006101000a81548160ff0219169083151502179055508173ffffffffffffffffffffffffffffffffffffffff16611c6a613254565b73ffffffffffffffffffffffffffffffffffffffff167f17307eab39ab6107e8899845ad3d59bd9653f200f220920489ca2b5937696c318360405180821515815260200191505060405180910390a35050565b611cce611cc8613254565b8361332a565b611d23576040517f08c379a00000000000000000000000000000000000000000000000000000000081526004018080602001828103825260318152602001806147d96031913960400191505060405180910390fd5b611d2f848484846136db565b50505050565b6060611d4082613237565b611d95576040517f08c379a000000000000000000000000000000000000000000000000000000000815260040180806020018281038252602f815260200180614753602f913960400191505060405180910390fd5b6060600860008481526020019081526020016000208054600181600116156101000203166002900480601f016020809104026020016040519081016040528092919081815260200182805460018160011615610100020316600290048015611e3e5780601f10611e1357610100808354040283529160200191611e3e565b820191906000526020600020905b815481529060010190602001808311611e2157829003601f168201915b50505050509050600060098054600181600116156101000203166002900490501415611e6d5780915050612019565b600081511115611f46576009816040516020018083805460018160011615610100020316600290048015611ed85780601f10611eb6576101008083540402835291820191611ed8565b820191906000526020600020905b815481529060010190602001808311611ec4575b505082805190602001908083835b60208310611f095780518252602082019150602081019050602083039250611ee6565b6001836020036101000a03801982511681845116808217855250505050505090500192505050604051602081830303815290604052915050612019565b6009611f518461374d565b6040516020018083805460018160011615610100020316600290048015611faf5780601f10611f8d576101008083540402835291820191611faf565b820191906000526020600020905b815481529060010190602001808311611f9b575b505082805190602001908083835b60208310611fe05780518252602082019150602081019050602083039250611fbd565b6001836020036101000a038019825116818451168082178552505050505050905001925050506040516020818303038152906040529150505b919050565b600080600f60009054906101000a900473ffffffffffffffffffffffffffffffffffffffff1673ffffffffffffffffffffffffffffffffffffffff16635b534051601060009054906101000a900473ffffffffffffffffffffffffffffffffffffffff16306000336040518563ffffffff1660e01b8152600401808573ffffffffffffffffffffffffffffffffffffffff1681526020018473ffffffffffffffffffffffffffffffffffffffff1681526020018363ffffffff1681526020018273ffffffffffffffffffffffffffffffffffffffff16815260200194505050505060606040518083038186803b15801561211757600080fd5b505afa15801561212b573d6000803e3d6000fd5b505050506040513d606081101561214157600080fd5b8101908080519060200190929190805190602001909291908051906020019092919050505090915050809150508091505090565b60008060116000600a60049054906101000a900463ffffffff1663ffffffff1681526020019081526020016000209050600081600101541161221f576040517f08c379a000000000000000000000000000000000000000000000000000000000815260040180806020018281038252601f8152602001807f5468652061756374696f6e20686173206e6f742073746172746564207965740081525060200191505060405180910390fd5b6000600a60009054906101000a900463ffffffff1663ffffffff1682600001540190508042116122b7576040517f08c379a000000000000000000000000000000000000000000000000000000000815260040180806020018281038252601b8152602001807f5468652061756374696f6e206973206e6f74206f76657220796574000000000081525060200191505060405180910390fd5b6122fd8260030160009054906101000a900473ffffffffffffffffffffffffffffffffffffffff16600a60049054906101000a900463ffffffff1663ffffffff1661314d565b6001600a60049054906101000a900463ffffffff1663ffffffff161461278b5760006123f7601060009054906101000a900473ffffffffffffffffffffffffffffffffffffffff1673ffffffffffffffffffffffffffffffffffffffff166370a08231306040518263ffffffff1660e01b8152600401808273ffffffffffffffffffffffffffffffffffffffff16815260200191505060206040518083038186803b1580156123ab57600080fd5b505afa1580156123bf573d6000803e3d6000fd5b505050506040513d60208110156123d557600080fd5b81019080805190602001909291905050506123f26003600a613894565b6138d0565b9050600d60009054906101000a900473ffffffffffffffffffffffffffffffffffffffff1673ffffffffffffffffffffffffffffffffffffffff166361d164d3600f60009054906101000a900473ffffffffffffffffffffffffffffffffffffffff1663b96731c260e01b601060009054906101000a900473ffffffffffffffffffffffffffffffffffffffff16600086600067ffffffffffffffff811180156124a057600080fd5b506040519080825280601f01601f1916602001820160405280156124d35781602001600182028036833780820191505090505b50604051602401808573ffffffffffffffffffffffffffffffffffffffff1681526020018463ffffffff16815260200183815260200180602001828103825283818151815260200191508051906020019080838360005b8381101561254557808201518184015260208101905061252a565b50505050905090810190601f1680156125725780820380516001836020036101000a031916815260200191505b5095505050505050604051602081830303815290604052907bffffffffffffffffffffffffffffffffffffffffffffffffffffffff19166020820180517bffffffffffffffffffffffffffffffffffffffffffffffffffffffff83818316178352505050506040518363ffffffff1660e01b8152600401808373ffffffffffffffffffffffffffffffffffffffff16815260200180602001828103825283818151815260200191508051906020019080838360005b83811015612642578082015181840152602081019050612627565b50505050905090810190601f16801561266f5780820380516001836020036101000a031916815260200191505b509350505050600060405180830381600087803b15801561268f57600080fd5b505af11580156126a3573d6000803e3d6000fd5b505050506040513d6000823e3d601f19601f8201168201806040525060208110156126cd57600080fd5b81019080805160405193929190846401000000008211156126ed57600080fd5b8382019150602082018581111561270357600080fd5b825186600182028301116401000000008211171561272057600080fd5b8083526020830192505050908051906020019080838360005b83811015612754578082015181840152602081019050612739565b50505050905090810190601f1680156127815780820380516001836020036101000a031916815260200191505b5060405250505050505b600d60009054906101000a900473ffffffffffffffffffffffffffffffffffffffff1673ffffffffffffffffffffffffffffffffffffffff166361d164d3600f60009054906101000a900473ffffffffffffffffffffffffffffffffffffffff1663232d2b5860e01b601060009054906101000a900473ffffffffffffffffffffffffffffffffffffffff1660008760030160009054906101000a900473ffffffffffffffffffffffffffffffffffffffff16600b5461286e8a60030160009054906101000a900473ffffffffffffffffffffffffffffffffffffffff16612f93565b6fffffffffffffffffffffffffffffffff1601600067ffffffffffffffff8111801561289957600080fd5b506040519080825280601f01601f1916602001820160405280156128cc5781602001600182028036833780820191505090505b50604051602401808673ffffffffffffffffffffffffffffffffffffffff1681526020018563ffffffff1681526020018473ffffffffffffffffffffffffffffffffffffffff16815260200183815260200180602001828103825283818151815260200191508051906020019080838360005b8381101561295a57808201518184015260208101905061293f565b50505050905090810190601f1680156129875780820380516001836020036101000a031916815260200191505b509650505050505050604051602081830303815290604052907bffffffffffffffffffffffffffffffffffffffffffffffffffffffff19166020820180517bffffffffffffffffffffffffffffffffffffffffffffffffffffffff83818316178352505050506040518363ffffffff1660e01b8152600401808373ffffffffffffffffffffffffffffffffffffffff16815260200180602001828103825283818151815260200191508051906020019080838360005b83811015612a58578082015181840152602081019050612a3d565b50505050905090810190601f168015612a855780820380516001836020036101000a031916815260200191505b509350505050600060405180830381600087803b158015612aa557600080fd5b505af1158015612ab9573d6000803e3d6000fd5b505050506040513d6000823e3d601f19601f820116820180604052506020811015612ae357600080fd5b8101908080516040519392919084640100000000821115612b0357600080fd5b83820191506020820185811115612b1957600080fd5b8251866001820283011164010000000082111715612b3657600080fd5b8083526020830192505050908051906020019080838360005b83811015612b6a578082015181840152602081019050612b4f565b50505050905090810190601f168015612b975780820380516001836020036101000a031916815260200191505b5060405250505050612bb6600b54612bb16009600a613894565b6138d0565b600b81905550601060009054906101000a900473ffffffffffffffffffffffffffffffffffffffff1673ffffffffffffffffffffffffffffffffffffffff1663a9059cbb600c60009054906101000a900473ffffffffffffffffffffffffffffffffffffffff16601060009054906101000a900473ffffffffffffffffffffffffffffffffffffffff1673ffffffffffffffffffffffffffffffffffffffff166370a08231306040518263ffffffff1660e01b8152600401808273ffffffffffffffffffffffffffffffffffffffff16815260200191505060206040518083038186803b158015612ca657600080fd5b505afa158015612cba573d6000803e3d6000fd5b505050506040513d6020811015612cd057600080fd5b81019080805190602001909291905050506040518363ffffffff1660e01b8152600401808373ffffffffffffffffffffffffffffffffffffffff16815260200182815260200192505050602060405180830381600087803b158015612d3457600080fd5b505af1158015612d48573d6000803e3d6000fd5b505050506040513d6020811015612d5e57600080fd5b8101908080519060200190929190505050508160030160009054906101000a900473ffffffffffffffffffffffffffffffffffffffff1673ffffffffffffffffffffffffffffffffffffffff167f9f96e353bf532e3a5c1d3588b979d045747202d9de14462f9062a73d40103586600a60049054906101000a900463ffffffff16604051808263ffffffff16815260200191505060405180910390a2600a600481819054906101000a900463ffffffff168092919060010191906101000a81548163ffffffff021916908363ffffffff160217905550507fda83fc749f1dad2f8cdb0a38a3844a5da2f6da5554025c13adf3ecc8127d0f1e600a60049054906101000a900463ffffffff16604051808263ffffffff16815260200191505060405180910390a1505090565b60116020528060005260406000206000915090508060000154908060010154908060020160009054906101000a900473ffffffffffffffffffffffffffffffffffffffff16908060030160009054906101000a900473ffffffffffffffffffffffffffffffffffffffff16908060040154905085565b6000600560008473ffffffffffffffffffffffffffffffffffffffff1673ffffffffffffffffffffffffffffffffffffffff16815260200190815260200160002060008373ffffffffffffffffffffffffffffffffffffffff1673ffffffffffffffffffffffffffffffffffffffff16815260200190815260200160002060009054906101000a900460ff16905092915050565b600080600f60009054906101000a900473ffffffffffffffffffffffffffffffffffffffff1673ffffffffffffffffffffffffffffffffffffffff16635b534051601060009054906101000a900473ffffffffffffffffffffffffffffffffffffffff16306000876040518563ffffffff1660e01b8152600401808573ffffffffffffffffffffffffffffffffffffffff1681526020018473ffffffffffffffffffffffffffffffffffffffff1681526020018363ffffffff1681526020018273ffffffffffffffffffffffffffffffffffffffff16815260200194505050505060606040518083038186803b15801561308c57600080fd5b505afa1580156130a0573d6000803e3d6000fd5b505050506040513d60608110156130b657600080fd5b81019080805190602001909291908051906020019092919080519060200190929190505050909150508091505080915050919050565b600080600080600060116000878152602001908152602001600020905080600101548160030160009054906101000a900473ffffffffffffffffffffffffffffffffffffffff16826000015483600401549450945094509450509193509193565b613167828260405180602001604052806000815250613918565b5050565b600061317d836000018360001b613989565b905092915050565b60006131b1846000018460001b8473ffffffffffffffffffffffffffffffffffffffff1660001b6139f9565b90509392505050565b60008060007fc5d2460186f7233c927e7db2dcc703c0e500b653ca82273b7bfad8045d85a47060001b9050833f91508082141580156131fc57506000801b8214155b92505050919050565b60606132148484600085613ad5565b90509392505050565b600061322f836000018360001b613cdb565b905092915050565b600061324d82600261321d90919063ffffffff16565b9050919050565b600033905090565b816004600083815260200190815260200160002060006101000a81548173ffffffffffffffffffffffffffffffffffffffff021916908373ffffffffffffffffffffffffffffffffffffffff160217905550808273ffffffffffffffffffffffffffffffffffffffff166132cf83611806565b73ffffffffffffffffffffffffffffffffffffffff167f8c5be1e5ebec7d5bd14f71427d1e84f3dd0314c0f7b2291e5b200ac8c7c3b92560405160405180910390a45050565b600061332382600001613cfe565b9050919050565b600061333582613237565b61338a576040517f08c379a000000000000000000000000000000000000000000000000000000000815260040180806020018281038252602c815260200180614625602c913960400191505060405180910390fd5b600061339583611806565b90508073ffffffffffffffffffffffffffffffffffffffff168473ffffffffffffffffffffffffffffffffffffffff16148061340457508373ffffffffffffffffffffffffffffffffffffffff166133ec84610fc7565b73ffffffffffffffffffffffffffffffffffffffff16145b8061341557506134148185612eff565b5b91505092915050565b8273ffffffffffffffffffffffffffffffffffffffff1661343e82611806565b73ffffffffffffffffffffffffffffffffffffffff16146134aa576040517f08c379a000000000000000000000000000000000000000000000000000000000815260040180806020018281038252602981526020018061472a6029913960400191505060405180910390fd5b600073ffffffffffffffffffffffffffffffffffffffff168273ffffffffffffffffffffffffffffffffffffffff161415613530576040517f08c379a00000000000000000000000000000000000000000000000000000000081526004018080602001828103825260248152602001806146016024913960400191505060405180910390fd5b61353b838383613d0f565b61354660008261325c565b61359781600160008673ffffffffffffffffffffffffffffffffffffffff1673ffffffffffffffffffffffffffffffffffffffff168152602001908152602001600020613d1490919063ffffffff16565b506135e981600160008573ffffffffffffffffffffffffffffffffffffffff1673ffffffffffffffffffffffffffffffffffffffff16815260200190815260200160002061316b90919063ffffffff16565b50613600818360026131859092919063ffffffff16565b50808273ffffffffffffffffffffffffffffffffffffffff168473ffffffffffffffffffffffffffffffffffffffff167fddf252ad1be2c89b69c2b068fc378daa952ba7f163c4a11628f55a4df523b3ef60405160405180910390a4505050565b60006136708360000183613d2e565b60001c905092915050565b60008060008061368e8660000186613db1565b915091508160001c8160001c9350935050509250929050565b60006136ba846000018460001b84613e4a565b60001c90509392505050565b60006136d482600001613f40565b9050919050565b6136e684848461341e565b6136f284848484613f51565b613747576040517f08c379a00000000000000000000000000000000000000000000000000000000081526004018080602001828103825260328152602001806145cf6032913960400191505060405180910390fd5b50505050565b60606000821415613795576040518060400160405280600181526020017f3000000000000000000000000000000000000000000000000000000000000000815250905061388f565b600082905060005b600082146137bf578080600101915050600a82816137b757fe5b04915061379d565b60608167ffffffffffffffff811180156137d857600080fd5b506040519080825280601f01601f19166020018201604052801561380b5781602001600182028036833780820191505090505b50905060006001830390508593505b6000841461388757600a848161382c57fe5b0660300160f81b8282806001900393508151811061384657fe5b60200101907effffffffffffffffffffffffffffffffffffffffffffffffffffffffffffff1916908160001a905350600a848161387f57fe5b04935061381a565b819450505050505b919050565b6000816138c06138b0856b033b2e3c9fd0803ce800000061416a565b600285816138ba57fe5b046141ff565b816138c757fe5b04905092915050565b60006b033b2e3c9fd0803ce80000006139086138ec858561416a565b60026b033b2e3c9fd0803ce80000008161390257fe5b046141ff565b8161390f57fe5b04905092915050565b6139228383614282565b61392f6000848484613f51565b613984576040517f08c379a00000000000000000000000000000000000000000000000000000000081526004018080602001828103825260328152602001806145cf6032913960400191505060405180910390fd5b505050565b60006139958383614476565b6139ee5782600001829080600181540180825580915050600190039060005260206000200160009091909190915055826000018054905083600101600084815260200190815260200160002081905550600190506139f3565b600090505b92915050565b6000808460010160008581526020019081526020016000205490506000811415613aa057846000016040518060400160405280868152602001858152509080600181540180825580915050600190039060005260206000209060020201600090919091909150600082015181600001556020820151816001015550508460000180549050856001016000868152602001908152602001600020819055506001915050613ace565b82856000016001830381548110613ab357fe5b90600052602060002090600202016001018190555060009150505b9392505050565b6060613ae0856131ba565b613b52576040517f08c379a000000000000000000000000000000000000000000000000000000000815260040180806020018281038252601d8152602001807f416464726573733a2063616c6c20746f206e6f6e2d636f6e747261637400000081525060200191505060405180910390fd5b600060608673ffffffffffffffffffffffffffffffffffffffff1685876040518082805190602001908083835b60208310613ba25780518252602082019150602081019050602083039250613b7f565b6001836020036101000a03801982511681845116808217855250505050505090500191505060006040518083038185875af1925050503d8060008114613c04576040519150601f19603f3d011682016040523d82523d6000602084013e613c09565b606091505b50915091508115613c1e578092505050613cd3565b600081511115613c315780518082602001fd5b836040517f08c379a00000000000000000000000000000000000000000000000000000000081526004018080602001828103825283818151815260200191508051906020019080838360005b83811015613c98578082015181840152602081019050613c7d565b50505050905090810190601f168015613cc55780820380516001836020036101000a031916815260200191505b509250505060405180910390fd5b949350505050565b600080836001016000848152602001908152602001600020541415905092915050565b600081600001805490509050919050565b505050565b6000613d26836000018360001b614499565b905092915050565b600081836000018054905011613d8f576040517f08c379a00000000000000000000000000000000000000000000000000000000081526004018080602001828103825260228152602001806145ad6022913960400191505060405180910390fd5b826000018281548110613d9e57fe5b9060005260206000200154905092915050565b60008082846000018054905011613e13576040517f08c379a00000000000000000000000000000000000000000000000000000000081526004018080602001828103825260228152602001806146dc6022913960400191505060405180910390fd5b6000846000018481548110613e2457fe5b906000526020600020906002020190508060000154816001015492509250509250929050565b60008084600101600085815260200190815260200160002054905060008114158390613f11576040517f08c379a00000000000000000000000000000000000000000000000000000000081526004018080602001828103825283818151815260200191508051906020019080838360005b83811015613ed6578082015181840152602081019050613ebb565b50505050905090810190601f168015613f035780820380516001836020036101000a031916815260200191505b509250505060405180910390fd5b50846000016001820381548110613f2457fe5b9060005260206000209060020201600101549150509392505050565b600081600001805490509050919050565b6000613f728473ffffffffffffffffffffffffffffffffffffffff166131ba565b613f7f5760019050614162565b60606140e963150b7a0260e01b613f94613254565b888787604051602401808573ffffffffffffffffffffffffffffffffffffffff1681526020018473ffffffffffffffffffffffffffffffffffffffff16815260200183815260200180602001828103825283818151815260200191508051906020019080838360005b83811015614018578082015181840152602081019050613ffd565b50505050905090810190601f1680156140455780820380516001836020036101000a031916815260200191505b5095505050505050604051602081830303815290604052907bffffffffffffffffffffffffffffffffffffffffffffffffffffffff19166020820180517bffffffffffffffffffffffffffffffffffffffffffffffffffffffff83818316178352505050506040518060600160405280603281526020016145cf603291398773ffffffffffffffffffffffffffffffffffffffff166132059092919063ffffffff16565b9050600081806020019051602081101561410257600080fd5b8101908080519060200190929190505050905063150b7a0260e01b7bffffffffffffffffffffffffffffffffffffffffffffffffffffffff1916817bffffffffffffffffffffffffffffffffffffffffffffffffffffffff191614925050505b949350505050565b600080821480614187575082828385029250828161418457fe5b04145b6141f9576040517f08c379a00000000000000000000000000000000000000000000000000000000081526004018080602001828103825260148152602001807f64732d6d6174682d6d756c2d6f766572666c6f7700000000000000000000000081525060200191505060405180910390fd5b92915050565b600082828401915081101561427c576040517f08c379a00000000000000000000000000000000000000000000000000000000081526004018080602001828103825260148152602001807f64732d6d6174682d6164642d6f766572666c6f7700000000000000000000000081525060200191505060405180910390fd5b92915050565b600073ffffffffffffffffffffffffffffffffffffffff168273ffffffffffffffffffffffffffffffffffffffff161415614325576040517f08c379a00000000000000000000000000000000000000000000000000000000081526004018080602001828103825260208152602001807f4552433732313a206d696e7420746f20746865207a65726f206164647265737381525060200191505060405180910390fd5b61432e81613237565b156143a1576040517f08c379a000000000000000000000000000000000000000000000000000000000815260040180806020018281038252601c8152602001807f4552433732313a20746f6b656e20616c7265616479206d696e7465640000000081525060200191505060405180910390fd5b6143ad60008383613d0f565b6143fe81600160008573ffffffffffffffffffffffffffffffffffffffff1673ffffffffffffffffffffffffffffffffffffffff16815260200190815260200160002061316b90919063ffffffff16565b50614415818360026131859092919063ffffffff16565b50808273ffffffffffffffffffffffffffffffffffffffff16600073ffffffffffffffffffffffffffffffffffffffff167fddf252ad1be2c89b69c2b068fc378daa952ba7f163c4a11628f55a4df523b3ef60405160405180910390a45050565b600080836001016000848152602001908152602001600020541415905092915050565b6000808360010160008481526020019081526020016000205490506000811461457557600060018203905060006001866000018054905003905060008660000182815481106144e457fe5b906000526020600020015490508087600001848154811061450157fe5b906000526020600020018190555060018301876001016000838152602001908152602001600020819055508660000180548061453957fe5b6001900381819060005260206000200160009055905586600101600087815260200190815260200160002060009055600194505050505061457b565b60009150505b9291505056fe796f75206d75737420626964206d6f7265207468616e207468652063757272656e74206869676820626964456e756d657261626c655365743a20696e646578206f7574206f6620626f756e64734552433732313a207472616e7366657220746f206e6f6e20455243373231526563656976657220696d706c656d656e7465724552433732313a207472616e7366657220746f20746865207a65726f20616464726573734552433732313a206f70657261746f7220717565727920666f72206e6f6e6578697374656e7420746f6b656e4552433732313a20617070726f76652063616c6c6572206973206e6f74206f776e6572206e6f7220617070726f76656420666f7220616c6c4552433732313a2062616c616e636520717565727920666f7220746865207a65726f20616464726573734552433732313a206f776e657220717565727920666f72206e6f6e6578697374656e7420746f6b656e456e756d657261626c654d61703a20696e646578206f7574206f6620626f756e64734552433732313a20617070726f76656420717565727920666f72206e6f6e6578697374656e7420746f6b656e4552433732313a207472616e73666572206f6620746f6b656e2074686174206973206e6f74206f776e4552433732314d657461646174613a2055524920717565727920666f72206e6f6e6578697374656e7420746f6b656e4552433732313a20617070726f76616c20746f2063757272656e74206f776e65725468652063757272656e742061756374696f6e2068617320656e6465642e20506c656173652073746172742061206e6577206f6e652e4552433732313a207472616e736665722063616c6c6572206973206e6f74206f776e6572206e6f7220617070726f766564a2646970667358221220fe1928f8bbdd3c8a964c5d51232bc0cf77cae79930393b0fa36f49d2c8d1be9664736f6c634300070000334552433732313a207472616e7366657220746f206e6f6e20455243373231526563656976657220696d706c656d656e746572",
  "immutableReferences": {},
  "source": "pragma solidity ^0.7.0;\n\ncontract DSMath {\n    function add(uint x, uint y) internal pure returns (uint z) {\n        require((z = x + y) >= x, \"ds-math-add-overflow\");\n    }\n    function sub(uint x, uint y) internal pure returns (uint z) {\n        require((z = x - y) <= x, \"ds-math-sub-underflow\");\n    }\n    function mul(uint x, uint y) internal pure returns (uint z) {\n        require(y == 0 || (z = x * y) / y == x, \"ds-math-mul-overflow\");\n    }\n\n    function min(uint x, uint y) internal pure returns (uint z) {\n        return x <= y ? x : y;\n    }\n    function max(uint x, uint y) internal pure returns (uint z) {\n        return x >= y ? x : y;\n    }\n    function imin(int x, int y) internal pure returns (int z) {\n        return x <= y ? x : y;\n    }\n    function imax(int x, int y) internal pure returns (int z) {\n        return x >= y ? x : y;\n    }\n\n    uint constant WAD = 10 ** 18;\n    uint constant RAY = 10 ** 27;\n\n    //rounds to zero if x*y < WAD / 2\n    function wmul(uint x, uint y) internal pure returns (uint z) {\n        z = add(mul(x, y), WAD / 2) / WAD;\n    }\n    //rounds to zero if x*y < WAD / 2\n    function rmul(uint x, uint y) internal pure returns (uint z) {\n        z = add(mul(x, y), RAY / 2) / RAY;\n    }\n    //rounds to zero if x*y < WAD / 2\n    function wdiv(uint x, uint y) internal pure returns (uint z) {\n        z = add(mul(x, WAD), y / 2) / y;\n    }\n    //rounds to zero if x*y < RAY / 2\n    function rdiv(uint x, uint y) internal pure returns (uint z) {\n        z = add(mul(x, RAY), y / 2) / y;\n    }\n\n    // This famous algorithm is called \"exponentiation by squaring\"\n    // and calculates x^n with x as fixed-point and n as regular unsigned.\n    //\n    // It's O(log n), instead of O(n) for naive repeated multiplication.\n    //\n    // These facts are why it works:\n    //\n    //  If n is even, then x^n = (x^2)^(n/2).\n    //  If n is odd,  then x^n = x * x^(n-1),\n    //   and applying the equation for even x gives\n    //    x^n = x * (x^2)^((n-1) / 2).\n    //\n    //  Also, EVM division is flooring and\n    //    floor[(n-1) / 2] = floor[n / 2].\n    //\n    function rpow(uint x, uint n) internal pure returns (uint z) {\n        z = n % 2 != 0 ? x : RAY;\n\n        for (n /= 2; n != 0; n /= 2) {\n            x = rmul(x, x);\n\n            if (n % 2 != 0) {\n                z = rmul(z, x);\n            }\n        }\n    }\n}\n\nimport \"@openzeppelin/contracts/token/ERC721/ERC721.sol\";\nimport \"@openzeppelin/contracts/token/ERC721/IERC721Receiver.sol\";\n\nimport \"@superfluid-finance/ethereum-contracts/contracts/interfaces/superfluid/ISuperfluid.sol\";\nimport \"@superfluid-finance/ethereum-contracts/contracts/interfaces/agreements/IConstantFlowAgreementV1.sol\";\nimport \"@superfluid-finance/ethereum-contracts/contracts/interfaces/agreements/IInstantDistributionAgreementV1.sol\";\n\ncontract Emanator is ERC721, IERC721Receiver, DSMath {\n  using SafeMath for uint256;\n\n  uint32 public constant INDEX_ID = 0;\n  // winLength is the number of seconds that a user must be the highBidder to win the auction;\n  uint32 public winLength;\n  uint32 public currentGeneration = 1;\n\n  uint public shareAmount = 1*10**8;\n\n  address payable public creator;\n\n  ISuperfluid private host;\n  IConstantFlowAgreementV1 private cfa;\n  IInstantDistributionAgreementV1 private ida;\n  ISuperToken public tokenX;\n\n  struct Auction {\n    uint256 lastBidTime;\n    uint256 highBid;\n    address owner;\n    address highBidder;\n    uint256 revenue;\n  }\n\n  mapping (uint256 => Auction) public auctionByGeneration;\n\n  event newAuction(uint256 id);\n  event auctionWon(uint256 id, address indexed winner);\n\n  constructor(ISuperfluid _host, IConstantFlowAgreementV1 _cfa, IInstantDistributionAgreementV1 _ida, ISuperToken _tokenX, uint32 _winLength) ERC721 (\"Emanator\", \"ENFT\") {\n      // assert(address(_host) != address(0));\n      // assert(address(_cfa) != address(0));\n      // assert(address(_ida) != address(0));\n      // assert(address(_tokenX) != address(0));\n      // assert(winLength >= 15);\n      host = _host;\n      cfa = _cfa;\n      ida = _ida;\n      tokenX = _tokenX;\n      winLength = _winLength;\n      creator = msg.sender;\n      setApprovalForAll(address(this), true);\n\n      host.callAgreement(\n          ida,\n          abi.encodeWithSelector(\n              ida.createIndex.selector,\n              tokenX,\n              INDEX_ID,\n              new bytes(0)\n          )\n      );\n\n      ERC721._safeMint(msg.sender, 0);\n      // Start the first auction\n      emit newAuction(0);\n  }\n\n  function onERC721Received(address, address, uint256, bytes calldata) external override returns (bytes4) {\n      return bytes4(keccak256(\"onERC721Received(address,address,uint256,bytes)\"));\n  }\n\n  // Submit a higher bid and increase the length of the auction\n  function bid(uint bidAmount) public returns (uint256 highBid, uint256 lastBidTime, address highBidder) {\n      Auction storage _auction = auctionByGeneration[currentGeneration];\n      uint256 endTime;\n      if(_auction.highBid > 0){\n          endTime = _auction.lastBidTime + winLength;\n      } else {\n          endTime = block.timestamp * 2;\n      }\n\n      require(block.timestamp < endTime, \"The current auction has ended. Please start a new one.\");\n      // TODO: Add a minimum bid increase threshold\n      require(bidAmount > _auction.highBid, \"you must bid more than the current high bid\");\n\n      tokenX.transferFrom(msg.sender, address(this), bidAmount);\n\n      _auction.highBid = bidAmount;\n      _auction.highBidder = msg.sender;\n      _auction.lastBidTime = block.timestamp;\n      _auction.revenue += bidAmount;\n\n      return (_auction.highBid, _auction.lastBidTime, _auction.highBidder);\n  }\n\n  // End the auction and claim prized\n  function settleAndBeginAuction() public returns (uint newShareAmount) {\n      Auction storage _auction = auctionByGeneration[currentGeneration];\n\n      require(_auction.highBid > 0, \"The auction has not started yet\");\n      uint256 endTime = _auction.lastBidTime + winLength;\n      require(block.timestamp > endTime, \"The auction is not over yet\");\n\n      // Mint the NFT\n      ERC721._safeMint(_auction.highBidder, currentGeneration);\n\n      // All tokens in first auction go to owner\n      if (currentGeneration != 1){\n        // Distribute tokens to previous winners\n        uint distributeAmount = rmul(tokenX.balanceOf(address(this)), rdiv(3, 10));\n        host.callAgreement(\n            ida,\n            abi.encodeWithSelector(\n                ida.distribute.selector,\n                tokenX,\n                INDEX_ID,\n                distributeAmount,\n                new bytes(0)\n            )\n        );\n      }\n\n      // Update revenue shares\n      host.callAgreement(\n        ida,\n        abi.encodeWithSelector(\n          ida.updateSubscription.selector,\n          tokenX,\n          INDEX_ID,\n          _auction.highBidder,\n          getSharesOf(_auction.highBidder) + shareAmount,\n          new bytes(0)\n        )\n      );\n      shareAmount = rmul(shareAmount, rdiv(9, 10));\n\n      // Remaining balance to owner\n      tokenX.transfer(creator, tokenX.balanceOf(address(this)));\n\n      // Start a new auction\n      emit auctionWon(currentGeneration, _auction.highBidder);\n      currentGeneration++;\n      emit newAuction(currentGeneration);\n      return newShareAmount;\n  }\n\n  function checkTimeRemaining() public view returns (uint timeLeft) {\n      Auction storage _auction = auctionByGeneration[currentGeneration];\n      return (_auction.lastBidTime + winLength - block.timestamp);\n  }\n\n  function checkEndTime() public view returns (uint) {\n      Auction storage _auction = auctionByGeneration[currentGeneration];\n      uint endTime = _auction.lastBidTime + winLength;\n      return endTime;\n  }\n\n  function getCurrentAuctionInfo() public view returns ( uint highBid, address highBidder, uint lastBidTime, uint32 currentGeneration){\n      Auction storage _auction = auctionByGeneration[currentGeneration];\n      return ( _auction.highBid, _auction.highBidder, _auction.lastBidTime, currentGeneration);\n  }\n\n  function getAuctionInfo(uint id) public view returns ( uint highBid, address highBidder, uint lastBidTime, uint revenue){\n      Auction storage _auction = auctionByGeneration[id];\n      return ( _auction.highBid, _auction.highBidder, _auction.lastBidTime, _auction.revenue);\n  }\n\n  function getHighBidder() public view returns (address highBidder){\n      Auction storage _auction = auctionByGeneration[currentGeneration];\n      return (_auction.highBidder);\n  }\n\n  function getHighBid() public view returns (uint highBid){\n      Auction storage _auction = auctionByGeneration[currentGeneration];\n      return (_auction.highBid);\n  }\n\n  function getLastBidTime() public view returns (uint lastBidTime){\n      Auction storage _auction = auctionByGeneration[currentGeneration];\n      return (_auction.lastBidTime);\n  }\n\n  function getAuctionBalance() public view returns (uint balanceOf) {\n      return tokenX.balanceOf(address(this));\n  }\n\n  function getShares() public view returns (uint128 shares) {\n    uint128 currentUnits;\n    (,currentUnits,) = ida.getSubscription(tokenX, address(this), INDEX_ID, msg.sender);\n    return currentUnits;\n  }\n\n  function getSharesOf(address owner) public view returns (uint128 shares) {\n    uint128 currentUnits;\n    (,currentUnits,) = ida.getSubscription(tokenX, address(this), INDEX_ID, owner);\n    return currentUnits;\n  }\n }\n",
  "sourcePath": "/home/dev/repos/monorepo/contracts/contracts/Emanator.sol",
  "compiler": {
    "name": "solc",
    "version": "0.7.0+commit.9e61f92b.Emscripten.clang"
  },
  "schemaVersion": "3.3.2",
  "updatedAt": "2020-11-12T19:02:31.186Z",
  "devdoc": {
    "kind": "dev",
    "methods": {
      "approve(address,uint256)": {
        "details": "See {IERC721-approve}."
      },
      "balanceOf(address)": {
        "details": "See {IERC721-balanceOf}."
      },
      "baseURI()": {
        "details": "Returns the base URI set via {_setBaseURI}. This will be automatically added as a prefix in {tokenURI} to each token's URI, or to the token ID if no specific URI is set for that token ID."
      },
      "getApproved(uint256)": {
        "details": "See {IERC721-getApproved}."
      },
      "isApprovedForAll(address,address)": {
        "details": "See {IERC721-isApprovedForAll}."
      },
      "name()": {
        "details": "See {IERC721Metadata-name}."
      },
      "ownerOf(uint256)": {
        "details": "See {IERC721-ownerOf}."
      },
      "safeTransferFrom(address,address,uint256)": {
        "details": "See {IERC721-safeTransferFrom}."
      },
      "safeTransferFrom(address,address,uint256,bytes)": {
        "details": "See {IERC721-safeTransferFrom}."
      },
      "setApprovalForAll(address,bool)": {
        "details": "See {IERC721-setApprovalForAll}."
      },
      "supportsInterface(bytes4)": {
        "details": "See {IERC165-supportsInterface}. Time complexity O(1), guaranteed to always use less than 30 000 gas."
      },
      "symbol()": {
        "details": "See {IERC721Metadata-symbol}."
      },
      "tokenByIndex(uint256)": {
        "details": "See {IERC721Enumerable-tokenByIndex}."
      },
      "tokenOfOwnerByIndex(address,uint256)": {
        "details": "See {IERC721Enumerable-tokenOfOwnerByIndex}."
      },
      "tokenURI(uint256)": {
        "details": "See {IERC721Metadata-tokenURI}."
      },
      "totalSupply()": {
        "details": "See {IERC721Enumerable-totalSupply}."
      },
      "transferFrom(address,address,uint256)": {
        "details": "See {IERC721-transferFrom}."
      }
    },
    "version": 1
  },
  "userdoc": {
    "kind": "user",
    "methods": {},
    "version": 1
  }
}