{
  "contractName": "Emanator",
  "abi": [
    {
      "inputs": [
        {
          "internalType": "contract ISuperfluid",
          "name": "_host",
          "type": "address"
        },
        {
          "internalType": "contract IConstantFlowAgreementV1",
          "name": "_cfa",
          "type": "address"
        },
        {
          "internalType": "contract IInstantDistributionAgreementV1",
          "name": "_ida",
          "type": "address"
        },
        {
          "internalType": "contract ISuperToken",
          "name": "_tokenX",
          "type": "address"
        },
        {
          "internalType": "uint256",
          "name": "_winLength",
          "type": "uint256"
        }
      ],
      "stateMutability": "nonpayable",
      "type": "constructor"
    },
    {
      "anonymous": false,
      "inputs": [
        {
          "indexed": true,
          "internalType": "address",
          "name": "owner",
          "type": "address"
        },
        {
          "indexed": true,
          "internalType": "address",
          "name": "approved",
          "type": "address"
        },
        {
          "indexed": true,
          "internalType": "uint256",
          "name": "tokenId",
          "type": "uint256"
        }
      ],
      "name": "Approval",
      "type": "event"
    },
    {
      "anonymous": false,
      "inputs": [
        {
          "indexed": true,
          "internalType": "address",
          "name": "owner",
          "type": "address"
        },
        {
          "indexed": true,
          "internalType": "address",
          "name": "operator",
          "type": "address"
        },
        {
          "indexed": false,
          "internalType": "bool",
          "name": "approved",
          "type": "bool"
        }
      ],
      "name": "ApprovalForAll",
      "type": "event"
    },
    {
      "anonymous": false,
      "inputs": [
        {
          "indexed": true,
          "internalType": "address",
          "name": "from",
          "type": "address"
        },
        {
          "indexed": true,
          "internalType": "address",
          "name": "to",
          "type": "address"
        },
        {
          "indexed": true,
          "internalType": "uint256",
          "name": "tokenId",
          "type": "uint256"
        }
      ],
      "name": "Transfer",
      "type": "event"
    },
    {
      "anonymous": false,
      "inputs": [
        {
          "indexed": false,
          "internalType": "uint256",
          "name": "id",
          "type": "uint256"
        },
        {
          "indexed": true,
          "internalType": "address",
          "name": "winner",
          "type": "address"
        }
      ],
      "name": "auctionWon",
      "type": "event"
    },
    {
      "anonymous": false,
      "inputs": [
        {
          "indexed": false,
          "internalType": "uint256",
          "name": "id",
          "type": "uint256"
        }
      ],
      "name": "newAuction",
      "type": "event"
    },
    {
      "inputs": [
        {
          "internalType": "address",
          "name": "to",
          "type": "address"
        },
        {
          "internalType": "uint256",
          "name": "tokenId",
          "type": "uint256"
        }
      ],
      "name": "approve",
      "outputs": [],
      "stateMutability": "nonpayable",
      "type": "function"
    },
    {
      "inputs": [
        {
          "internalType": "uint256",
          "name": "",
          "type": "uint256"
        }
      ],
      "name": "auctionByGeneration",
      "outputs": [
        {
          "internalType": "uint256",
          "name": "lastBidTime",
          "type": "uint256"
        },
        {
          "internalType": "uint256",
          "name": "highBid",
          "type": "uint256"
        },
        {
          "internalType": "address",
          "name": "owner",
          "type": "address"
        },
        {
          "internalType": "address",
          "name": "highBidder",
          "type": "address"
        }
      ],
      "stateMutability": "view",
      "type": "function"
    },
    {
      "inputs": [
        {
          "internalType": "address",
          "name": "owner",
          "type": "address"
        }
      ],
      "name": "balanceOf",
      "outputs": [
        {
          "internalType": "uint256",
          "name": "",
          "type": "uint256"
        }
      ],
      "stateMutability": "view",
      "type": "function"
    },
    {
      "inputs": [],
      "name": "baseURI",
      "outputs": [
        {
          "internalType": "string",
          "name": "",
          "type": "string"
        }
      ],
      "stateMutability": "view",
      "type": "function"
    },
    {
      "inputs": [],
      "name": "creator",
      "outputs": [
        {
          "internalType": "address payable",
          "name": "",
          "type": "address"
        }
      ],
      "stateMutability": "view",
      "type": "function"
    },
    {
      "inputs": [],
      "name": "currentGeneration",
      "outputs": [
        {
          "internalType": "uint256",
          "name": "",
          "type": "uint256"
        }
      ],
      "stateMutability": "view",
      "type": "function"
    },
    {
      "inputs": [
        {
          "internalType": "uint256",
          "name": "tokenId",
          "type": "uint256"
        }
      ],
      "name": "getApproved",
      "outputs": [
        {
          "internalType": "address",
          "name": "",
          "type": "address"
        }
      ],
      "stateMutability": "view",
      "type": "function"
    },
    {
      "inputs": [
        {
          "internalType": "address",
          "name": "owner",
          "type": "address"
        },
        {
          "internalType": "address",
          "name": "operator",
          "type": "address"
        }
      ],
      "name": "isApprovedForAll",
      "outputs": [
        {
          "internalType": "bool",
          "name": "",
          "type": "bool"
        }
      ],
      "stateMutability": "view",
      "type": "function"
    },
    {
      "inputs": [],
      "name": "name",
      "outputs": [
        {
          "internalType": "string",
          "name": "",
          "type": "string"
        }
      ],
      "stateMutability": "view",
      "type": "function"
    },
    {
      "inputs": [
        {
          "internalType": "uint256",
          "name": "tokenId",
          "type": "uint256"
        }
      ],
      "name": "ownerOf",
      "outputs": [
        {
          "internalType": "address",
          "name": "",
          "type": "address"
        }
      ],
      "stateMutability": "view",
      "type": "function"
    },
    {
      "inputs": [
        {
          "internalType": "uint256",
          "name": "",
          "type": "uint256"
        }
      ],
      "name": "ownerRevShares",
      "outputs": [
        {
          "internalType": "uint256",
          "name": "",
          "type": "uint256"
        }
      ],
      "stateMutability": "view",
      "type": "function"
    },
    {
      "inputs": [
        {
          "internalType": "uint256",
          "name": "",
          "type": "uint256"
        }
      ],
      "name": "revShareRecipients",
      "outputs": [
        {
          "internalType": "address payable",
          "name": "",
          "type": "address"
        }
      ],
      "stateMutability": "view",
      "type": "function"
    },
    {
      "inputs": [
        {
          "internalType": "address",
          "name": "from",
          "type": "address"
        },
        {
          "internalType": "address",
          "name": "to",
          "type": "address"
        },
        {
          "internalType": "uint256",
          "name": "tokenId",
          "type": "uint256"
        }
      ],
      "name": "safeTransferFrom",
      "outputs": [],
      "stateMutability": "nonpayable",
      "type": "function"
    },
    {
      "inputs": [
        {
          "internalType": "address",
          "name": "from",
          "type": "address"
        },
        {
          "internalType": "address",
          "name": "to",
          "type": "address"
        },
        {
          "internalType": "uint256",
          "name": "tokenId",
          "type": "uint256"
        },
        {
          "internalType": "bytes",
          "name": "_data",
          "type": "bytes"
        }
      ],
      "name": "safeTransferFrom",
      "outputs": [],
      "stateMutability": "nonpayable",
      "type": "function"
    },
    {
      "inputs": [
        {
          "internalType": "address",
          "name": "operator",
          "type": "address"
        },
        {
          "internalType": "bool",
          "name": "approved",
          "type": "bool"
        }
      ],
      "name": "setApprovalForAll",
      "outputs": [],
      "stateMutability": "nonpayable",
      "type": "function"
    },
    {
      "inputs": [
        {
          "internalType": "bytes4",
          "name": "interfaceId",
          "type": "bytes4"
        }
      ],
      "name": "supportsInterface",
      "outputs": [
        {
          "internalType": "bool",
          "name": "",
          "type": "bool"
        }
      ],
      "stateMutability": "view",
      "type": "function"
    },
    {
      "inputs": [],
      "name": "symbol",
      "outputs": [
        {
          "internalType": "string",
          "name": "",
          "type": "string"
        }
      ],
      "stateMutability": "view",
      "type": "function"
    },
    {
      "inputs": [
        {
          "internalType": "uint256",
          "name": "index",
          "type": "uint256"
        }
      ],
      "name": "tokenByIndex",
      "outputs": [
        {
          "internalType": "uint256",
          "name": "",
          "type": "uint256"
        }
      ],
      "stateMutability": "view",
      "type": "function"
    },
    {
      "inputs": [
        {
          "internalType": "address",
          "name": "owner",
          "type": "address"
        },
        {
          "internalType": "uint256",
          "name": "index",
          "type": "uint256"
        }
      ],
      "name": "tokenOfOwnerByIndex",
      "outputs": [
        {
          "internalType": "uint256",
          "name": "",
          "type": "uint256"
        }
      ],
      "stateMutability": "view",
      "type": "function"
    },
    {
      "inputs": [
        {
          "internalType": "uint256",
          "name": "tokenId",
          "type": "uint256"
        }
      ],
      "name": "tokenURI",
      "outputs": [
        {
          "internalType": "string",
          "name": "",
          "type": "string"
        }
      ],
      "stateMutability": "view",
      "type": "function"
    },
    {
      "inputs": [],
      "name": "totalShares",
      "outputs": [
        {
          "internalType": "uint256",
          "name": "",
          "type": "uint256"
        }
      ],
      "stateMutability": "view",
      "type": "function"
    },
    {
      "inputs": [],
      "name": "totalSupply",
      "outputs": [
        {
          "internalType": "uint256",
          "name": "",
          "type": "uint256"
        }
      ],
      "stateMutability": "view",
      "type": "function"
    },
    {
      "inputs": [
        {
          "internalType": "address",
          "name": "from",
          "type": "address"
        },
        {
          "internalType": "address",
          "name": "to",
          "type": "address"
        },
        {
          "internalType": "uint256",
          "name": "tokenId",
          "type": "uint256"
        }
      ],
      "name": "transferFrom",
      "outputs": [],
      "stateMutability": "nonpayable",
      "type": "function"
    },
    {
      "inputs": [],
      "name": "winLength",
      "outputs": [
        {
          "internalType": "uint256",
          "name": "",
          "type": "uint256"
        }
      ],
      "stateMutability": "view",
      "type": "function"
    },
    {
      "inputs": [
        {
          "internalType": "address",
          "name": "",
          "type": "address"
        },
        {
          "internalType": "address",
          "name": "",
          "type": "address"
        },
        {
          "internalType": "uint256",
          "name": "",
          "type": "uint256"
        },
        {
          "internalType": "bytes",
          "name": "",
          "type": "bytes"
        }
      ],
      "name": "onERC721Received",
      "outputs": [
        {
          "internalType": "bytes4",
          "name": "",
          "type": "bytes4"
        }
      ],
      "stateMutability": "nonpayable",
      "type": "function"
    },
    {
      "inputs": [
        {
          "internalType": "uint256",
          "name": "bidAmount",
          "type": "uint256"
        }
      ],
      "name": "bid",
      "outputs": [
        {
          "internalType": "uint256",
          "name": "highBid",
          "type": "uint256"
        },
        {
          "internalType": "uint256",
          "name": "lastBidTime",
          "type": "uint256"
        },
        {
          "internalType": "address",
          "name": "highBidder",
          "type": "address"
        }
      ],
      "stateMutability": "nonpayable",
      "type": "function"
    },
    {
      "inputs": [],
      "name": "settleAndBeginAuction",
      "outputs": [],
      "stateMutability": "nonpayable",
      "type": "function"
    },
    {
      "inputs": [],
      "name": "checkTimeRemaining",
      "outputs": [
        {
          "internalType": "uint256",
          "name": "",
          "type": "uint256"
        }
      ],
      "stateMutability": "view",
      "type": "function"
    },
    {
      "inputs": [],
      "name": "checkEndTime",
      "outputs": [
        {
          "internalType": "uint256",
          "name": "",
          "type": "uint256"
        }
      ],
      "stateMutability": "view",
      "type": "function"
    },
    {
      "inputs": [],
      "name": "getCurrentAuctionInfo",
      "outputs": [
        {
          "internalType": "uint256",
          "name": "highBid",
          "type": "uint256"
        },
        {
          "internalType": "address",
          "name": "highBidder",
          "type": "address"
        },
        {
          "internalType": "uint256",
          "name": "lastBidTime",
          "type": "uint256"
        }
      ],
      "stateMutability": "view",
      "type": "function"
    },
    {
      "inputs": [
        {
          "internalType": "uint256",
          "name": "id",
          "type": "uint256"
        }
      ],
      "name": "getAuctionInfo",
      "outputs": [
        {
          "internalType": "uint256",
          "name": "highBid",
          "type": "uint256"
        },
        {
          "internalType": "address",
          "name": "highBidder",
          "type": "address"
        },
        {
          "internalType": "uint256",
          "name": "lastBidTime",
          "type": "uint256"
        }
      ],
      "stateMutability": "view",
      "type": "function"
    },
    {
      "inputs": [],
      "name": "getAuctionBalance",
      "outputs": [
        {
          "internalType": "uint256",
          "name": "balanceOf",
          "type": "uint256"
        }
      ],
      "stateMutability": "view",
      "type": "function"
    }
  ],
  "bytecode": "0x60806040523480156200001157600080fd5b5060405162004f6038038062004f60833981810160405260a08110156200003757600080fd5b8101908080519060200190929190805190602001909291908051906020019092919080519060200190929190805190602001909291905050506040518060400160405280600881526020017f656d614e614654650000000000000000000000000000000000000000000000008152506040518060400160405280600581526020017f656d4e4654000000000000000000000000000000000000000000000000000000815250620000f46301ffc9a760e01b6200050160201b60201c565b81600690805190602001906200010c9291906200121c565b508060079080519060200190620001259291906200121c565b506200013e6380ac58cd60e01b6200050160201b60201c565b62000156635b5e139f60e01b6200050160201b60201c565b6200016e63780e9d6360e01b6200050160201b60201c565b5050600073ffffffffffffffffffffffffffffffffffffffff16601060009054906101000a900473ffffffffffffffffffffffffffffffffffffffff1673ffffffffffffffffffffffffffffffffffffffff161415620001ca57fe5b600073ffffffffffffffffffffffffffffffffffffffff16601160009054906101000a900473ffffffffffffffffffffffffffffffffffffffff1673ffffffffffffffffffffffffffffffffffffffff1614156200022457fe5b600073ffffffffffffffffffffffffffffffffffffffff16601260009054906101000a900473ffffffffffffffffffffffffffffffffffffffff1673ffffffffffffffffffffffffffffffffffffffff1614156200027e57fe5b600073ffffffffffffffffffffffffffffffffffffffff168273ffffffffffffffffffffffffffffffffffffffff161415620002b657fe5b84601060006101000a81548173ffffffffffffffffffffffffffffffffffffffff021916908373ffffffffffffffffffffffffffffffffffffffff16021790555083601160006101000a81548173ffffffffffffffffffffffffffffffffffffffff021916908373ffffffffffffffffffffffffffffffffffffffff16021790555082601260006101000a81548173ffffffffffffffffffffffffffffffffffffffff021916908373ffffffffffffffffffffffffffffffffffffffff16021790555081601360006101000a81548173ffffffffffffffffffffffffffffffffffffffff021916908373ffffffffffffffffffffffffffffffffffffffff16021790555080600b8190555033600a60006101000a81548173ffffffffffffffffffffffffffffffffffffffff021916908373ffffffffffffffffffffffffffffffffffffffff160217905550600c600a60009054906101000a900473ffffffffffffffffffffffffffffffffffffffff169080600181540180825580915050600190039060005260206000200160009091909190916101000a81548173ffffffffffffffffffffffffffffffffffffffff021916908373ffffffffffffffffffffffffffffffffffffffff160217905550600d620f42409080600181540180825580915050600190039060005260206000200160009091909190915055600d600081548110620004c257fe5b9060005260206000200154600e81905550620004e63060016200060a60201b60201c565b620004f6620007d960201b60201c565b5050505050620012c2565b63ffffffff60e01b817bffffffffffffffffffffffffffffffffffffffffffffffffffffffff191614156200059e576040517f08c379a000000000000000000000000000000000000000000000000000000000815260040180806020018281038252601c8152602001807f4552433136353a20696e76616c696420696e746572666163652069640000000081525060200191505060405180910390fd5b6001600080837bffffffffffffffffffffffffffffffffffffffffffffffffffffffff19167bffffffffffffffffffffffffffffffffffffffffffffffffffffffff1916815260200190815260200160002060006101000a81548160ff02191690831515021790555050565b6200061a6200084d60201b60201c565b73ffffffffffffffffffffffffffffffffffffffff168273ffffffffffffffffffffffffffffffffffffffff161415620006bc576040517f08c379a00000000000000000000000000000000000000000000000000000000081526004018080602001828103825260198152602001807f4552433732313a20617070726f766520746f2063616c6c65720000000000000081525060200191505060405180910390fd5b8060056000620006d16200084d60201b60201c565b73ffffffffffffffffffffffffffffffffffffffff1673ffffffffffffffffffffffffffffffffffffffff16815260200190815260200160002060008473ffffffffffffffffffffffffffffffffffffffff1673ffffffffffffffffffffffffffffffffffffffff16815260200190815260200160002060006101000a81548160ff0219169083151502179055508173ffffffffffffffffffffffffffffffffffffffff16620007866200084d60201b60201c565b73ffffffffffffffffffffffffffffffffffffffff167f17307eab39ab6107e8899845ad3d59bd9653f200f220920489ca2b5937696c318360405180821515815260200191505060405180910390a35050565b620007f13360006200085560201b6200234c1760201c565b6001600f819055506000601460006001815260200190815260200160002090507fda83fc749f1dad2f8cdb0a38a3844a5da2f6da5554025c13adf3ecc8127d0f1e600f546040518082815260200191505060405180910390a150565b600033905090565b620008778282604051806020016040528060008152506200087b60201b60201c565b5050565b6200088d8383620008fe60201b60201c565b620008a2600084848462000b1260201b60201c565b620008f9576040517f08c379a000000000000000000000000000000000000000000000000000000000815260040180806020018281038252603281526020018062004f2e6032913960400191505060405180910390fd5b505050565b600073ffffffffffffffffffffffffffffffffffffffff168273ffffffffffffffffffffffffffffffffffffffff161415620009a2576040517f08c379a00000000000000000000000000000000000000000000000000000000081526004018080602001828103825260208152602001807f4552433732313a206d696e7420746f20746865207a65726f206164647265737381525060200191505060405180910390fd5b620009b38162000d4e60201b60201c565b1562000a27576040517f08c379a000000000000000000000000000000000000000000000000000000000815260040180806020018281038252601c8152602001807f4552433732313a20746f6b656e20616c7265616479206d696e7465640000000081525060200191505060405180910390fd5b62000a3b6000838362000d7260201b60201c565b62000a9381600160008573ffffffffffffffffffffffffffffffffffffffff1673ffffffffffffffffffffffffffffffffffffffff16815260200190815260200160002062000d7760201b6200236a1790919060201c565b5062000ab18183600262000d9960201b62002384179092919060201c565b50808273ffffffffffffffffffffffffffffffffffffffff16600073ffffffffffffffffffffffffffffffffffffffff167fddf252ad1be2c89b69c2b068fc378daa952ba7f163c4a11628f55a4df523b3ef60405160405180910390a45050565b600062000b408473ffffffffffffffffffffffffffffffffffffffff1662000dd660201b620023b91760201c565b62000b4f576001905062000d46565b606062000ccc63150b7a0260e01b62000b6d6200084d60201b60201c565b888787604051602401808573ffffffffffffffffffffffffffffffffffffffff1681526020018473ffffffffffffffffffffffffffffffffffffffff16815260200183815260200180602001828103825283818151815260200191508051906020019080838360005b8381101562000bf357808201518184015260208101905062000bd6565b50505050905090810190601f16801562000c215780820380516001836020036101000a031916815260200191505b5095505050505050604051602081830303815290604052907bffffffffffffffffffffffffffffffffffffffffffffffffffffffff19166020820180517bffffffffffffffffffffffffffffffffffffffffffffffffffffffff838183161783525050505060405180606001604052806032815260200162004f2e603291398773ffffffffffffffffffffffffffffffffffffffff1662000e2260201b62002404179092919060201c565b9050600081806020019051602081101562000ce657600080fd5b8101908080519060200190929190505050905063150b7a0260e01b7bffffffffffffffffffffffffffffffffffffffffffffffffffffffff1916817bffffffffffffffffffffffffffffffffffffffffffffffffffffffff191614925050505b949350505050565b600062000d6b82600262000e4260201b6200241c1790919060201c565b9050919050565b505050565b600062000d91836000018360001b62000e6460201b60201c565b905092915050565b600062000dcd846000018460001b8473ffffffffffffffffffffffffffffffffffffffff1660001b62000ede60201b60201c565b90509392505050565b60008060007fc5d2460186f7233c927e7db2dcc703c0e500b653ca82273b7bfad8045d85a47060001b9050833f915080821415801562000e1957506000801b8214155b92505050919050565b606062000e39848460008562000fbd60201b60201c565b90509392505050565b600062000e5c836000018360001b620011d660201b60201c565b905092915050565b600062000e788383620011f960201b60201c565b62000ed357826000018290806001815401808255809150506001900390600052602060002001600090919091909150558260000180549050836001016000848152602001908152602001600020819055506001905062000ed8565b600090505b92915050565b600080846001016000858152602001908152602001600020549050600081141562000f875784600001604051806040016040528086815260200185815250908060018154018082558091505060019003906000526020600020906002020160009091909190915060008201518160000155602082015181600101555050846000018054905085600101600086815260200190815260200160002081905550600191505062000fb6565b8285600001600183038154811062000f9b57fe5b90600052602060002090600202016001018190555060009150505b9392505050565b606062000fd08562000dd660201b60201c565b62001043576040517f08c379a000000000000000000000000000000000000000000000000000000000815260040180806020018281038252601d8152602001807f416464726573733a2063616c6c20746f206e6f6e2d636f6e747261637400000081525060200191505060405180910390fd5b600060608673ffffffffffffffffffffffffffffffffffffffff1685876040518082805190602001908083835b6020831062001095578051825260208201915060208101905060208303925062001070565b6001836020036101000a03801982511681845116808217855250505050505090500191505060006040518083038185875af1925050503d8060008114620010f9576040519150601f19603f3d011682016040523d82523d6000602084013e620010fe565b606091505b5091509150811562001115578092505050620011ce565b600081511115620011295780518082602001fd5b836040517f08c379a00000000000000000000000000000000000000000000000000000000081526004018080602001828103825283818151815260200191508051906020019080838360005b838110156200119257808201518184015260208101905062001175565b50505050905090810190601f168015620011c05780820380516001836020036101000a031916815260200191505b509250505060405180910390fd5b949350505050565b600080836001016000848152602001908152602001600020541415905092915050565b600080836001016000848152602001908152602001600020541415905092915050565b828054600181600116156101000203166002900490600052602060002090601f016020900481019282601f106200125f57805160ff191683800117855562001290565b8280016001018555821562001290579182015b828111156200128f57825182559160200191906001019062001272565b5b5090506200129f9190620012a3565b5090565b5b80821115620012be576000816000905550600101620012a4565b5090565b613c5c80620012d26000396000f3fe608060405234801561001057600080fd5b50600436106101f05760003560e01c80634352d3e11161010f578063a22cb465116100a2578063e224e62711610071578063e224e62714610bb9578063e8f129cc14610bfb578063e985e9c514610c7e578063fc3fc4ed14610cf8576101f0565b8063a22cb465146109b3578063b88d4fde14610a03578063c87b56dd14610b08578063da780ecb14610baf576101f0565b80636c0360eb116100de5780636c0360eb1461083757806370a08231146108ba5780638ddb428a1461091257806395d89b4114610930576101f0565b80634352d3e114610719578063454a2ab3146107375780634f6ccce71461079d5780636352211e146107df576101f0565b806323708c81116101875780632f745c59116101565780632f745c591461060d5780633a98ef391461066f57806340c6ed971461068d57806342842e0e146106ab576101f0565b806323708c811461050b57806323b872dd1461056357806325a35e73146105d157806328b56048146105ef576101f0565b8063095ea7b3116101c3578063095ea7b314610367578063150b7a02146103b557806318160ddd146104ab578063189d9946146104c9576101f0565b806301ffc9a7146101f557806302d05d3f1461025857806306fdde031461028c578063081812fc1461030f575b600080fd5b6102406004803603602081101561020b57600080fd5b8101908080357bffffffffffffffffffffffffffffffffffffffffffffffffffffffff19169060200190929190505050610d5e565b60405180821515815260200191505060405180910390f35b610260610dc5565b604051808273ffffffffffffffffffffffffffffffffffffffff16815260200191505060405180910390f35b610294610deb565b6040518080602001828103825283818151815260200191508051906020019080838360005b838110156102d45780820151818401526020810190506102b9565b50505050905090810190601f1680156103015780820380516001836020036101000a031916815260200191505b509250505060405180910390f35b61033b6004803603602081101561032557600080fd5b8101908080359060200190929190505050610e8d565b604051808273ffffffffffffffffffffffffffffffffffffffff16815260200191505060405180910390f35b6103b36004803603604081101561037d57600080fd5b81019080803573ffffffffffffffffffffffffffffffffffffffff16906020019092919080359060200190929190505050610f28565b005b610476600480360360808110156103cb57600080fd5b81019080803573ffffffffffffffffffffffffffffffffffffffff169060200190929190803573ffffffffffffffffffffffffffffffffffffffff169060200190929190803590602001909291908035906020019064010000000081111561043257600080fd5b82018360208201111561044457600080fd5b8035906020019184600183028401116401000000008311171561046657600080fd5b909192939192939050505061106c565b60405180827bffffffffffffffffffffffffffffffffffffffffffffffffffffffff1916815260200191505060405180910390f35b6104b361109a565b6040518082815260200191505060405180910390f35b6104d16110ab565b604051808481526020018373ffffffffffffffffffffffffffffffffffffffff168152602001828152602001935050505060405180910390f35b6105376004803603602081101561052157600080fd5b8101908080359060200190929190505050611103565b604051808273ffffffffffffffffffffffffffffffffffffffff16815260200191505060405180910390f35b6105cf6004803603606081101561057957600080fd5b81019080803573ffffffffffffffffffffffffffffffffffffffff169060200190929190803573ffffffffffffffffffffffffffffffffffffffff1690602001909291908035906020019092919050505061113f565b005b6105d96111b5565b6040518082815260200191505060405180910390f35b6105f7611280565b6040518082815260200191505060405180910390f35b6106596004803603604081101561062357600080fd5b81019080803573ffffffffffffffffffffffffffffffffffffffff16906020019092919080359060200190929190505050611329565b6040518082815260200191505060405180910390f35b610677611384565b6040518082815260200191505060405180910390f35b61069561138a565b6040518082815260200191505060405180910390f35b610717600480360360608110156106c157600080fd5b81019080803573ffffffffffffffffffffffffffffffffffffffff169060200190929190803573ffffffffffffffffffffffffffffffffffffffff16906020019092919080359060200190929190505050611435565b005b610721611455565b6040518082815260200191505060405180910390f35b6107636004803603602081101561074d57600080fd5b810190808035906020019092919050505061145b565b604051808481526020018381526020018273ffffffffffffffffffffffffffffffffffffffff168152602001935050505060405180910390f35b6107c9600480360360208110156107b357600080fd5b81019080803590602001909291905050506116b9565b6040518082815260200191505060405180910390f35b61080b600480360360208110156107f557600080fd5b81019080803590602001909291905050506116dc565b604051808273ffffffffffffffffffffffffffffffffffffffff16815260200191505060405180910390f35b61083f611713565b6040518080602001828103825283818151815260200191508051906020019080838360005b8381101561087f578082015181840152602081019050610864565b50505050905090810190601f1680156108ac5780820380516001836020036101000a031916815260200191505b509250505060405180910390f35b6108fc600480360360208110156108d057600080fd5b81019080803573ffffffffffffffffffffffffffffffffffffffff1690602001909291905050506117b5565b6040518082815260200191505060405180910390f35b61091a61188a565b6040518082815260200191505060405180910390f35b610938611890565b6040518080602001828103825283818151815260200191508051906020019080838360005b8381101561097857808201518184015260208101905061095d565b50505050905090810190601f1680156109a55780820380516001836020036101000a031916815260200191505b509250505060405180910390f35b610a01600480360360408110156109c957600080fd5b81019080803573ffffffffffffffffffffffffffffffffffffffff169060200190929190803515159060200190929190505050611932565b005b610b0660048036036080811015610a1957600080fd5b81019080803573ffffffffffffffffffffffffffffffffffffffff169060200190929190803573ffffffffffffffffffffffffffffffffffffffff1690602001909291908035906020019092919080359060200190640100000000811115610a8057600080fd5b820183602082011115610a9257600080fd5b80359060200191846001830284011164010000000083111715610ab457600080fd5b91908080601f016020809104026020016040519081016040528093929190818152602001838380828437600081840152601f19601f820116905080830192505050505050509192919290505050611ae8565b005b610b3460048036036020811015610b1e57600080fd5b8101908080359060200190929190505050611b60565b6040518080602001828103825283818151815260200191508051906020019080838360005b83811015610b74578082015181840152602081019050610b59565b50505050905090810190601f168015610ba15780820380516001836020036101000a031916815260200191505b509250505060405180910390f35b610bb7611e49565b005b610be560048036036020811015610bcf57600080fd5b81019080803590602001909291905050506121cf565b6040518082815260200191505060405180910390f35b610c2760048036036020811015610c1157600080fd5b81019080803590602001909291905050506121f0565b604051808581526020018481526020018373ffffffffffffffffffffffffffffffffffffffff1681526020018273ffffffffffffffffffffffffffffffffffffffff16815260200194505050505060405180910390f35b610ce060048036036040811015610c9457600080fd5b81019080803573ffffffffffffffffffffffffffffffffffffffff169060200190929190803573ffffffffffffffffffffffffffffffffffffffff169060200190929190505050612260565b60405180821515815260200191505060405180910390f35b610d2460048036036020811015610d0e57600080fd5b81019080803590602001909291905050506122f4565b604051808481526020018373ffffffffffffffffffffffffffffffffffffffff168152602001828152602001935050505060405180910390f35b6000806000837bffffffffffffffffffffffffffffffffffffffffffffffffffffffff19167bffffffffffffffffffffffffffffffffffffffffffffffffffffffff1916815260200190815260200160002060009054906101000a900460ff169050919050565b600a60009054906101000a900473ffffffffffffffffffffffffffffffffffffffff1681565b606060068054600181600116156101000203166002900480601f016020809104026020016040519081016040528092919081815260200182805460018160011615610100020316600290048015610e835780601f10610e5857610100808354040283529160200191610e83565b820191906000526020600020905b815481529060010190602001808311610e6657829003601f168201915b5050505050905090565b6000610e9882612436565b610eed576040517f08c379a000000000000000000000000000000000000000000000000000000000815260040180806020018281038252602c815260200180613b1b602c913960400191505060405180910390fd5b6004600083815260200190815260200160002060009054906101000a900473ffffffffffffffffffffffffffffffffffffffff169050919050565b6000610f33826116dc565b90508073ffffffffffffffffffffffffffffffffffffffff168373ffffffffffffffffffffffffffffffffffffffff161415610fba576040517f08c379a0000000000000000000000000000000000000000000000000000000008152600401808060200182810382526021815260200180613b9f6021913960400191505060405180910390fd5b8073ffffffffffffffffffffffffffffffffffffffff16610fd9612453565b73ffffffffffffffffffffffffffffffffffffffff161480611008575061100781611002612453565b612260565b5b61105d576040517f08c379a0000000000000000000000000000000000000000000000000000000008152600401808060200182810382526038815260200180613a4d6038913960400191505060405180910390fd5b611067838361245b565b505050565b60007f150b7a023d4804d13e8c85fb27262cb750cf6ba9f9dd3bb30d90f482ceeb4b1f905095945050505050565b60006110a66002612514565b905090565b60008060008060146000600f548152602001908152602001600020905080600101548160030160009054906101000a900473ffffffffffffffffffffffffffffffffffffffff16826000015493509350935050909192565b600c818154811061111057fe5b906000526020600020016000915054906101000a900473ffffffffffffffffffffffffffffffffffffffff1681565b61115061114a612453565b82612529565b6111a5576040517f08c379a0000000000000000000000000000000000000000000000000000000008152600401808060200182810382526031815260200180613bf66031913960400191505060405180910390fd5b6111b083838361261d565b505050565b6000601360009054906101000a900473ffffffffffffffffffffffffffffffffffffffff1673ffffffffffffffffffffffffffffffffffffffff166370a08231306040518263ffffffff1660e01b8152600401808273ffffffffffffffffffffffffffffffffffffffff16815260200191505060206040518083038186803b15801561124057600080fd5b505afa158015611254573d6000803e3d6000fd5b505050506040513d602081101561126a57600080fd5b8101908080519060200190929190505050905090565b60008060146000600f54815260200190815260200160002090506000816001015411611314576040517f08c379a000000000000000000000000000000000000000000000000000000000815260040180806020018281038252601f8152602001807f5468652061756374696f6e20686173206e6f742073746172746564207965740081525060200191505060405180910390fd5b6000600b548260000154019050809250505090565b600061137c82600160008673ffffffffffffffffffffffffffffffffffffffff1673ffffffffffffffffffffffffffffffffffffffff16815260200190815260200160002061286090919063ffffffff16565b905092915050565b600e5481565b60008060146000600f5481526020019081526020016000209050600081600101541161141e576040517f08c379a000000000000000000000000000000000000000000000000000000000815260040180806020018281038252601f8152602001807f5468652061756374696f6e20686173206e6f742073746172746564207965740081525060200191505060405180910390fd5b600042600b54836000015401039050809250505090565b61145083838360405180602001604052806000815250611ae8565b505050565b600b5481565b60008060008060146000600f54815260200190815260200160002090506000600b5482600001540190508042116114dd576040517f08c379a0000000000000000000000000000000000000000000000000000000008152600401808060200182810382526036815260200180613bc06036913960400191505060405180910390fd5b81600101548611611539576040517f08c379a000000000000000000000000000000000000000000000000000000000815260040180806020018281038252602b81526020018061397e602b913960400191505060405180910390fd5b601360009054906101000a900473ffffffffffffffffffffffffffffffffffffffff1673ffffffffffffffffffffffffffffffffffffffff166323b872dd3330896040518463ffffffff1660e01b8152600401808473ffffffffffffffffffffffffffffffffffffffff1681526020018373ffffffffffffffffffffffffffffffffffffffff1681526020018281526020019350505050602060405180830381600087803b1580156115ea57600080fd5b505af11580156115fe573d6000803e3d6000fd5b505050506040513d602081101561161457600080fd5b810190808051906020019092919050505050858260010181905550338260030160006101000a81548173ffffffffffffffffffffffffffffffffffffffff021916908373ffffffffffffffffffffffffffffffffffffffff160217905550428260000181905550816001015482600001548360030160009054906101000a900473ffffffffffffffffffffffffffffffffffffffff1694509450945050509193909250565b6000806116d083600261287a90919063ffffffff16565b50905080915050919050565b600061170c82604051806060016040528060298152602001613aaf6029913960026128a69092919063ffffffff16565b9050919050565b606060098054600181600116156101000203166002900480601f0160208091040260200160405190810160405280929190818152602001828054600181600116156101000203166002900480156117ab5780601f10611780576101008083540402835291602001916117ab565b820191906000526020600020905b81548152906001019060200180831161178e57829003601f168201915b5050505050905090565b60008073ffffffffffffffffffffffffffffffffffffffff168273ffffffffffffffffffffffffffffffffffffffff16141561183c576040517f08c379a000000000000000000000000000000000000000000000000000000000815260040180806020018281038252602a815260200180613a85602a913960400191505060405180910390fd5b611883600160008473ffffffffffffffffffffffffffffffffffffffff1673ffffffffffffffffffffffffffffffffffffffff1681526020019081526020016000206128c5565b9050919050565b600f5481565b606060078054600181600116156101000203166002900480601f0160208091040260200160405190810160405280929190818152602001828054600181600116156101000203166002900480156119285780601f106118fd57610100808354040283529160200191611928565b820191906000526020600020905b81548152906001019060200180831161190b57829003601f168201915b5050505050905090565b61193a612453565b73ffffffffffffffffffffffffffffffffffffffff168273ffffffffffffffffffffffffffffffffffffffff1614156119db576040517f08c379a00000000000000000000000000000000000000000000000000000000081526004018080602001828103825260198152602001807f4552433732313a20617070726f766520746f2063616c6c65720000000000000081525060200191505060405180910390fd5b80600560006119e8612453565b73ffffffffffffffffffffffffffffffffffffffff1673ffffffffffffffffffffffffffffffffffffffff16815260200190815260200160002060008473ffffffffffffffffffffffffffffffffffffffff1673ffffffffffffffffffffffffffffffffffffffff16815260200190815260200160002060006101000a81548160ff0219169083151502179055508173ffffffffffffffffffffffffffffffffffffffff16611a95612453565b73ffffffffffffffffffffffffffffffffffffffff167f17307eab39ab6107e8899845ad3d59bd9653f200f220920489ca2b5937696c318360405180821515815260200191505060405180910390a35050565b611af9611af3612453565b83612529565b611b4e576040517f08c379a0000000000000000000000000000000000000000000000000000000008152600401808060200182810382526031815260200180613bf66031913960400191505060405180910390fd5b611b5a848484846128da565b50505050565b6060611b6b82612436565b611bc0576040517f08c379a000000000000000000000000000000000000000000000000000000000815260040180806020018281038252602f815260200180613b70602f913960400191505060405180910390fd5b6060600860008481526020019081526020016000208054600181600116156101000203166002900480601f016020809104026020016040519081016040528092919081815260200182805460018160011615610100020316600290048015611c695780601f10611c3e57610100808354040283529160200191611c69565b820191906000526020600020905b815481529060010190602001808311611c4c57829003601f168201915b50505050509050600060098054600181600116156101000203166002900490501415611c985780915050611e44565b600081511115611d71576009816040516020018083805460018160011615610100020316600290048015611d035780601f10611ce1576101008083540402835291820191611d03565b820191906000526020600020905b815481529060010190602001808311611cef575b505082805190602001908083835b60208310611d345780518252602082019150602081019050602083039250611d11565b6001836020036101000a03801982511681845116808217855250505050505090500192505050604051602081830303815290604052915050611e44565b6009611d7c8461294c565b6040516020018083805460018160011615610100020316600290048015611dda5780601f10611db8576101008083540402835291820191611dda565b820191906000526020600020905b815481529060010190602001808311611dc6575b505082805190602001908083835b60208310611e0b5780518252602082019150602081019050602083039250611de8565b6001836020036101000a038019825116818451168082178552505050505050905001925050506040516020818303038152906040529150505b919050565b600060146000600f54815260200190815260200160002090506000816001015411611edc576040517f08c379a000000000000000000000000000000000000000000000000000000000815260040180806020018281038252601f8152602001807f5468652061756374696f6e20686173206e6f742073746172746564207965740081525060200191505060405180910390fd5b6000600b548260000154019050804211611f5e576040517f08c379a000000000000000000000000000000000000000000000000000000000815260040180806020018281038252601b8152602001807f5468652061756374696f6e206973206e6f74206f76657220796574000000000081525060200191505060405180910390fd5b611f8e8260030160009054906101000a900473ffffffffffffffffffffffffffffffffffffffff16600f5461234c565b60004790506000611fa182600e54612a93565b905060005b600c80549050811015612064576000611fd6600d8381548110611fc557fe5b906000526020600020015484612acf565b9050600c8281548110611fe557fe5b9060005260206000200160009054906101000a900473ffffffffffffffffffffffffffffffffffffffff1673ffffffffffffffffffffffffffffffffffffffff166108fc829081150290604051600060405180830381858888f19350505050158015612055573d6000803e3d6000fd5b50508080600101915050611fa6565b50600c339080600181540180825580915050600190039060005260206000200160009091909190916101000a81548173ffffffffffffffffffffffffffffffffffffffff021916908373ffffffffffffffffffffffffffffffffffffffff16021790555060006001600d805490500390506000612115600a6121076009600d86815481106120ee57fe5b9060005260206000200154612b1790919063ffffffff16565b612b9d90919063ffffffff16565b905080600e5401600e81905550600d8190806001815401808255809150506001900390600052602060002001600090919091909150558560030160009054906101000a900473ffffffffffffffffffffffffffffffffffffffff1673ffffffffffffffffffffffffffffffffffffffff167f9f96e353bf532e3a5c1d3588b979d045747202d9de14462f9062a73d40103586600f546040518082815260200191505060405180910390a26121c7612be7565b505050505050565b600d81815481106121dc57fe5b906000526020600020016000915090505481565b60146020528060005260406000206000915090508060000154908060010154908060020160009054906101000a900473ffffffffffffffffffffffffffffffffffffffff16908060030160009054906101000a900473ffffffffffffffffffffffffffffffffffffffff16905084565b6000600560008473ffffffffffffffffffffffffffffffffffffffff1673ffffffffffffffffffffffffffffffffffffffff16815260200190815260200160002060008373ffffffffffffffffffffffffffffffffffffffff1673ffffffffffffffffffffffffffffffffffffffff16815260200190815260200160002060009054906101000a900460ff16905092915050565b60008060008060146000868152602001908152602001600020905080600101548160030160009054906101000a900473ffffffffffffffffffffffffffffffffffffffff168260000154935093509350509193909250565b612366828260405180602001604052806000815250612c4e565b5050565b600061237c836000018360001b612cbf565b905092915050565b60006123b0846000018460001b8473ffffffffffffffffffffffffffffffffffffffff1660001b612d2f565b90509392505050565b60008060007fc5d2460186f7233c927e7db2dcc703c0e500b653ca82273b7bfad8045d85a47060001b9050833f91508082141580156123fb57506000801b8214155b92505050919050565b60606124138484600085612e0b565b90509392505050565b600061242e836000018360001b613011565b905092915050565b600061244c82600261241c90919063ffffffff16565b9050919050565b600033905090565b816004600083815260200190815260200160002060006101000a81548173ffffffffffffffffffffffffffffffffffffffff021916908373ffffffffffffffffffffffffffffffffffffffff160217905550808273ffffffffffffffffffffffffffffffffffffffff166124ce836116dc565b73ffffffffffffffffffffffffffffffffffffffff167f8c5be1e5ebec7d5bd14f71427d1e84f3dd0314c0f7b2291e5b200ac8c7c3b92560405160405180910390a45050565b600061252282600001613034565b9050919050565b600061253482612436565b612589576040517f08c379a000000000000000000000000000000000000000000000000000000000815260040180806020018281038252602c815260200180613a21602c913960400191505060405180910390fd5b6000612594836116dc565b90508073ffffffffffffffffffffffffffffffffffffffff168473ffffffffffffffffffffffffffffffffffffffff16148061260357508373ffffffffffffffffffffffffffffffffffffffff166125eb84610e8d565b73ffffffffffffffffffffffffffffffffffffffff16145b8061261457506126138185612260565b5b91505092915050565b8273ffffffffffffffffffffffffffffffffffffffff1661263d826116dc565b73ffffffffffffffffffffffffffffffffffffffff16146126a9576040517f08c379a0000000000000000000000000000000000000000000000000000000008152600401808060200182810382526029815260200180613b476029913960400191505060405180910390fd5b600073ffffffffffffffffffffffffffffffffffffffff168273ffffffffffffffffffffffffffffffffffffffff16141561272f576040517f08c379a00000000000000000000000000000000000000000000000000000000081526004018080602001828103825260248152602001806139fd6024913960400191505060405180910390fd5b61273a838383613045565b61274560008261245b565b61279681600160008673ffffffffffffffffffffffffffffffffffffffff1673ffffffffffffffffffffffffffffffffffffffff16815260200190815260200160002061304a90919063ffffffff16565b506127e881600160008573ffffffffffffffffffffffffffffffffffffffff1673ffffffffffffffffffffffffffffffffffffffff16815260200190815260200160002061236a90919063ffffffff16565b506127ff818360026123849092919063ffffffff16565b50808273ffffffffffffffffffffffffffffffffffffffff168473ffffffffffffffffffffffffffffffffffffffff167fddf252ad1be2c89b69c2b068fc378daa952ba7f163c4a11628f55a4df523b3ef60405160405180910390a4505050565b600061286f8360000183613064565b60001c905092915050565b60008060008061288d86600001866130e7565b915091508160001c8160001c9350935050509250929050565b60006128b9846000018460001b84613180565b60001c90509392505050565b60006128d382600001613276565b9050919050565b6128e584848461261d565b6128f184848484613287565b612946576040517f08c379a00000000000000000000000000000000000000000000000000000000081526004018080602001828103825260328152602001806139cb6032913960400191505060405180910390fd5b50505050565b60606000821415612994576040518060400160405280600181526020017f30000000000000000000000000000000000000000000000000000000000000008152509050612a8e565b600082905060005b600082146129be578080600101915050600a82816129b657fe5b04915061299c565b60608167ffffffffffffffff811180156129d757600080fd5b506040519080825280601f01601f191660200182016040528015612a0a5781602001600182028036833780820191505090505b50905060006001830390508593505b60008414612a8657600a8481612a2b57fe5b0660300160f81b82828060019003935081518110612a4557fe5b60200101907effffffffffffffffffffffffffffffffffffffffffffffffffffffffffffff1916908160001a905350600a8481612a7e57fe5b049350612a19565b819450505050505b919050565b600081612abf612aaf856b033b2e3c9fd0803ce80000006134a0565b60028581612ab957fe5b04613535565b81612ac657fe5b04905092915050565b60006b033b2e3c9fd0803ce8000000612b07612aeb85856134a0565b60026b033b2e3c9fd0803ce800000081612b0157fe5b04613535565b81612b0e57fe5b04905092915050565b600080831415612b2a5760009050612b97565b6000828402905082848281612b3b57fe5b0414612b92576040517f08c379a0000000000000000000000000000000000000000000000000000000008152600401808060200182810382526021815260200180613afa6021913960400191505060405180910390fd5b809150505b92915050565b6000612bdf83836040518060400160405280601a81526020017f536166654d6174683a206469766973696f6e206279207a65726f0000000000008152506135b8565b905092915050565b600f60008154809291906001019190505550600060146000600f54815260200190815260200160002090507fda83fc749f1dad2f8cdb0a38a3844a5da2f6da5554025c13adf3ecc8127d0f1e600f546040518082815260200191505060405180910390a150565b612c58838361367e565b612c656000848484613287565b612cba576040517f08c379a00000000000000000000000000000000000000000000000000000000081526004018080602001828103825260328152602001806139cb6032913960400191505060405180910390fd5b505050565b6000612ccb8383613872565b612d24578260000182908060018154018082558091505060019003906000526020600020016000909190919091505582600001805490508360010160008481526020019081526020016000208190555060019050612d29565b600090505b92915050565b6000808460010160008581526020019081526020016000205490506000811415612dd657846000016040518060400160405280868152602001858152509080600181540180825580915050600190039060005260206000209060020201600090919091909150600082015181600001556020820151816001015550508460000180549050856001016000868152602001908152602001600020819055506001915050612e04565b82856000016001830381548110612de957fe5b90600052602060002090600202016001018190555060009150505b9392505050565b6060612e16856123b9565b612e88576040517f08c379a000000000000000000000000000000000000000000000000000000000815260040180806020018281038252601d8152602001807f416464726573733a2063616c6c20746f206e6f6e2d636f6e747261637400000081525060200191505060405180910390fd5b600060608673ffffffffffffffffffffffffffffffffffffffff1685876040518082805190602001908083835b60208310612ed85780518252602082019150602081019050602083039250612eb5565b6001836020036101000a03801982511681845116808217855250505050505090500191505060006040518083038185875af1925050503d8060008114612f3a576040519150601f19603f3d011682016040523d82523d6000602084013e612f3f565b606091505b50915091508115612f54578092505050613009565b600081511115612f675780518082602001fd5b836040517f08c379a00000000000000000000000000000000000000000000000000000000081526004018080602001828103825283818151815260200191508051906020019080838360005b83811015612fce578082015181840152602081019050612fb3565b50505050905090810190601f168015612ffb5780820380516001836020036101000a031916815260200191505b509250505060405180910390fd5b949350505050565b600080836001016000848152602001908152602001600020541415905092915050565b600081600001805490509050919050565b505050565b600061305c836000018360001b613895565b905092915050565b6000818360000180549050116130c5576040517f08c379a00000000000000000000000000000000000000000000000000000000081526004018080602001828103825260228152602001806139a96022913960400191505060405180910390fd5b8260000182815481106130d457fe5b9060005260206000200154905092915050565b60008082846000018054905011613149576040517f08c379a0000000000000000000000000000000000000000000000000000000008152600401808060200182810382526022815260200180613ad86022913960400191505060405180910390fd5b600084600001848154811061315a57fe5b906000526020600020906002020190508060000154816001015492509250509250929050565b60008084600101600085815260200190815260200160002054905060008114158390613247576040517f08c379a00000000000000000000000000000000000000000000000000000000081526004018080602001828103825283818151815260200191508051906020019080838360005b8381101561320c5780820151818401526020810190506131f1565b50505050905090810190601f1680156132395780820380516001836020036101000a031916815260200191505b509250505060405180910390fd5b5084600001600182038154811061325a57fe5b9060005260206000209060020201600101549150509392505050565b600081600001805490509050919050565b60006132a88473ffffffffffffffffffffffffffffffffffffffff166123b9565b6132b55760019050613498565b606061341f63150b7a0260e01b6132ca612453565b888787604051602401808573ffffffffffffffffffffffffffffffffffffffff1681526020018473ffffffffffffffffffffffffffffffffffffffff16815260200183815260200180602001828103825283818151815260200191508051906020019080838360005b8381101561334e578082015181840152602081019050613333565b50505050905090810190601f16801561337b5780820380516001836020036101000a031916815260200191505b5095505050505050604051602081830303815290604052907bffffffffffffffffffffffffffffffffffffffffffffffffffffffff19166020820180517bffffffffffffffffffffffffffffffffffffffffffffffffffffffff83818316178352505050506040518060600160405280603281526020016139cb603291398773ffffffffffffffffffffffffffffffffffffffff166124049092919063ffffffff16565b9050600081806020019051602081101561343857600080fd5b8101908080519060200190929190505050905063150b7a0260e01b7bffffffffffffffffffffffffffffffffffffffffffffffffffffffff1916817bffffffffffffffffffffffffffffffffffffffffffffffffffffffff191614925050505b949350505050565b6000808214806134bd57508282838502925082816134ba57fe5b04145b61352f576040517f08c379a00000000000000000000000000000000000000000000000000000000081526004018080602001828103825260148152602001807f64732d6d6174682d6d756c2d6f766572666c6f7700000000000000000000000081525060200191505060405180910390fd5b92915050565b60008282840191508110156135b2576040517f08c379a00000000000000000000000000000000000000000000000000000000081526004018080602001828103825260148152602001807f64732d6d6174682d6164642d6f766572666c6f7700000000000000000000000081525060200191505060405180910390fd5b92915050565b60008083118290613664576040517f08c379a00000000000000000000000000000000000000000000000000000000081526004018080602001828103825283818151815260200191508051906020019080838360005b8381101561362957808201518184015260208101905061360e565b50505050905090810190601f1680156136565780820380516001836020036101000a031916815260200191505b509250505060405180910390fd5b50600083858161367057fe5b049050809150509392505050565b600073ffffffffffffffffffffffffffffffffffffffff168273ffffffffffffffffffffffffffffffffffffffff161415613721576040517f08c379a00000000000000000000000000000000000000000000000000000000081526004018080602001828103825260208152602001807f4552433732313a206d696e7420746f20746865207a65726f206164647265737381525060200191505060405180910390fd5b61372a81612436565b1561379d576040517f08c379a000000000000000000000000000000000000000000000000000000000815260040180806020018281038252601c8152602001807f4552433732313a20746f6b656e20616c7265616479206d696e7465640000000081525060200191505060405180910390fd5b6137a960008383613045565b6137fa81600160008573ffffffffffffffffffffffffffffffffffffffff1673ffffffffffffffffffffffffffffffffffffffff16815260200190815260200160002061236a90919063ffffffff16565b50613811818360026123849092919063ffffffff16565b50808273ffffffffffffffffffffffffffffffffffffffff16600073ffffffffffffffffffffffffffffffffffffffff167fddf252ad1be2c89b69c2b068fc378daa952ba7f163c4a11628f55a4df523b3ef60405160405180910390a45050565b600080836001016000848152602001908152602001600020541415905092915050565b6000808360010160008481526020019081526020016000205490506000811461397157600060018203905060006001866000018054905003905060008660000182815481106138e057fe5b90600052602060002001549050808760000184815481106138fd57fe5b906000526020600020018190555060018301876001016000838152602001908152602001600020819055508660000180548061393557fe5b60019003818190600052602060002001600090559055866001016000878152602001908152602001600020600090556001945050505050613977565b60009150505b9291505056fe796f75206d75737420626964206d6f7265207468616e207468652063757272656e74206869676820626964456e756d657261626c655365743a20696e646578206f7574206f6620626f756e64734552433732313a207472616e7366657220746f206e6f6e20455243373231526563656976657220696d706c656d656e7465724552433732313a207472616e7366657220746f20746865207a65726f20616464726573734552433732313a206f70657261746f7220717565727920666f72206e6f6e6578697374656e7420746f6b656e4552433732313a20617070726f76652063616c6c6572206973206e6f74206f776e6572206e6f7220617070726f76656420666f7220616c6c4552433732313a2062616c616e636520717565727920666f7220746865207a65726f20616464726573734552433732313a206f776e657220717565727920666f72206e6f6e6578697374656e7420746f6b656e456e756d657261626c654d61703a20696e646578206f7574206f6620626f756e6473536166654d6174683a206d756c7469706c69636174696f6e206f766572666c6f774552433732313a20617070726f76656420717565727920666f72206e6f6e6578697374656e7420746f6b656e4552433732313a207472616e73666572206f6620746f6b656e2074686174206973206e6f74206f776e4552433732314d657461646174613a2055524920717565727920666f72206e6f6e6578697374656e7420746f6b656e4552433732313a20617070726f76616c20746f2063757272656e74206f776e65725468652063757272656e742061756374696f6e2068617320656e6465642e20506c656173652073746172742061206e6577206f6e652e4552433732313a207472616e736665722063616c6c6572206973206e6f74206f776e6572206e6f7220617070726f766564a26469706673582212203dd36b0458eef933faeb931e49cae387e6632789cd733e87f14304b2dc07005164736f6c634300070000334552433732313a207472616e7366657220746f206e6f6e20455243373231526563656976657220696d706c656d656e746572",
  "immutableReferences": {},
  "source": "pragma solidity ^0.7.0;\n\nimport { DSMath } from \"./DSMath.sol\";\nimport \"@openzeppelin/contracts/token/ERC721/ERC721.sol\";\nimport \"@openzeppelin/contracts/token/ERC721/IERC721Receiver.sol\";\n\nimport \"@superfluid-finance/ethereum-contracts/contracts/interfaces/superfluid/ISuperfluid.sol\";\nimport \"@superfluid-finance/ethereum-contracts/contracts/interfaces/agreements/IConstantFlowAgreementV1.sol\";\nimport \"@superfluid-finance/ethereum-contracts/contracts/interfaces/agreements/IInstantDistributionAgreementV1.sol\";\n\ncontract Emanator is ERC721, IERC721Receiver, DSMath {\n  using SafeMath for uint256;\n\n  address payable public creator;\n  // winLength is the number of seconds that a user must be the highBidder to win the auction;\n  uint256 public winLength;\n\n  struct Auction {\n      uint256 lastBidTime;\n      uint256 highBid;\n      address owner;\n      address highBidder;\n  }\n\n  address payable[] public revShareRecipients;\n  uint256[] public ownerRevShares;\n  uint256 public totalShares;\n\n  uint256 public currentGeneration;\n\n  ISuperfluid private host;\n  IConstantFlowAgreementV1 private cfa;\n  IInstantDistributionAgreementV1 private ida;\n  ISuperToken private tokenX;\n\n  mapping (uint256 => Auction) public auctionByGeneration;\n\n  event newAuction(uint256 id);\n  event auctionWon(uint256 id, address indexed winner);\n\n  constructor(ISuperfluid _host, IConstantFlowAgreementV1 _cfa, IInstantDistributionAgreementV1 _ida, ISuperToken _tokenX, uint256 _winLength) public ERC721 (\"emaNaFTe\", \"emNFT\") {\n      assert(address(host) != address(0));\n      assert(address(cfa) != address(0));\n      assert(address(ida) != address(0));\n      assert(address(_tokenX) != address(0));\n      host = _host;\n      cfa = _cfa;\n      ida = _ida;\n      tokenX = _tokenX;\n      winLength = _winLength;\n      creator = msg.sender;\n      revShareRecipients.push(creator);\n      ownerRevShares.push(1000000);\n      totalShares = ownerRevShares[0];\n      setApprovalForAll(address(this), true);\n      _firstAuction();\n\n  }\n\n  function onERC721Received(address, address, uint256, bytes calldata) external override returns (bytes4) {\n      return bytes4(keccak256(\"onERC721Received(address,address,uint256,bytes)\"));\n  }\n\n  function _firstAuction() private {\n    ERC721._safeMint(msg.sender, 0);\n\n    // Create the first auction\n    currentGeneration = 1;\n    Auction storage _auction = auctionByGeneration[1];\n\n    // creating the first auction creates an income distribution agreement index\n    // host.callAgreement(ida.address, ida.contract.methods.createIndex\n    //    (tokenX.address, 1, \"0x\").encodeABI(), { from: address(this) })\n    // // creating the first auction adds the creator to the income distribution agreement subscribers\n    // host.callAgreement(ida.address, ida.contract.methods.updateSubscription\n    //    (tokenX.address, 1, msg.sender, ownerRevShares[0], \"0x\").encodeABI(), { from: address(this) })\n\n    emit newAuction(currentGeneration);\n  }\n\n  // Submit a higher bid and increase the length of the auction\n  function bid(uint bidAmount) public returns (uint256 highBid, uint256 lastBidTime, address highBidder) {\n      Auction storage _auction = auctionByGeneration[currentGeneration];\n      uint256 endTime = _auction.lastBidTime + winLength;\n      require(block.timestamp > endTime, \"The current auction has ended. Please start a new one.\");\n      // TODO: Add a minimum bid increase threshold\n      require(bidAmount > _auction.highBid, \"you must bid more than the current high bid\");\n\n      tokenX.transferFrom(msg.sender, address(this), bidAmount);\n      // highBidder creates new SuperFluid constant flow agreement\n      // host.callAgreement(cfa.address, cfa.contract.methods.createFlow\n         // (tokenX.address, address(this), msg.value, \"0x\").encodeABI(), { from: msg.sender })\n\n\n       // new highBidder should stop previous highBidder's SuperFluid constant flow agreement\n      // if (_auction.generation>0){\n            // host.callAgreement(cfa.address, cfa.contract.methods.deleteFlow\n                // (tokenX.address, _auction.prevHighBidder, address(this), _auction.highBid, \"0x\").encodeABI(), { from: address(this) }\n      // }\n\n      _auction.highBid = bidAmount;\n      _auction.highBidder = msg.sender;\n      _auction.lastBidTime = block.timestamp;\n\n      return (_auction.highBid, _auction.lastBidTime, _auction.highBidder);\n  }\n\n  // End the auction and claim prize\n  // TODO: allow anyone to end the auction\n  function settleAndBeginAuction() public {\n      Auction storage _auction = auctionByGeneration[currentGeneration];\n\n      require(_auction.highBid > 0, \"The auction has not started yet\");\n      uint256 endTime = _auction.lastBidTime + winLength;\n      require(block.timestamp > endTime, \"The auction is not over yet\");\n\n      // Auction winner mints the new childNFT\n      ERC721._safeMint(_auction.highBidder, currentGeneration);\n\n      // claiming NFT deletes the winner's SuperFluid constant flow agreement\n      // host.callAgreement(cfa.address, cfa.contract.methods.deleteFlow\n      // (tokenX.address, msg.sender, address(this), msg.value, \"0x\").encodeABI(), { from: msg.sender })\n\n      // Upon claiming, the contract distributes the auction funds to the prior owners according to their proportion of totalShares\n      uint amt = address(this).balance;\n      uint perShare = rdiv(amt, totalShares);\n\n      for (uint i = 0; i < revShareRecipients.length; i++) {\n          uint distro = rmul(ownerRevShares[i], perShare);\n          revShareRecipients[i].transfer(distro);\n      }\n\n      //Update the revenue shares array\n      revShareRecipients.push(msg.sender);\n      uint position = ownerRevShares.length - 1;\n      uint newShares = ownerRevShares[position].mul(9).div(10);\n      totalShares = totalShares + newShares;\n      ownerRevShares.push(newShares);\n\n      // claiming the NFT distributes the auction's accumulated funds to the revenue share owners\n      // host.callAgreement(ida.address, ida.contract.methods.updateIndex\n      // (tokenX.address, 1, balanceOf(address(this)), \"0x\").encodeABI(), { from: address(this) })\n\n\n\n      // claiming the NFT adds the new owner to the income distribution agreement subscribers\n      // host.callAgreement(ida.address, ida.contract.methods.updateSubscription\n           // (tokenX.address, 1, msg.sender, newShares, \"0x\").encodeABI(), { from: address(this) })\n\n      // claiming the NFT approves the subscription\n      // host.callAgreement(ida.address, ida.contract.methods.approveSubscription\n           // (tokenX.address, address(this), 1, \"0x\").encodeABI(), { from: msg.sender })\n\n      emit auctionWon(currentGeneration, _auction.highBidder);\n\n      _nextAuction();\n  }\n\n  function _nextAuction() private {\n    currentGeneration++;\n    Auction storage _auction = auctionByGeneration[currentGeneration];\n    emit newAuction(currentGeneration);\n  }\n\n  function checkTimeRemaining() public view returns (uint) {\n      Auction storage _auction = auctionByGeneration[currentGeneration];\n      require(_auction.highBid > 0, \"The auction has not started yet\");\n      uint timeLeft = _auction.lastBidTime + winLength - block.timestamp;\n      return timeLeft;\n  }\n\n  function checkEndTime() public view returns (uint) {\n      Auction storage _auction = auctionByGeneration[currentGeneration];\n      require(_auction.highBid > 0, \"The auction has not started yet\");\n      uint endTime = _auction.lastBidTime + winLength;\n      return endTime;\n  }\n\n  function getCurrentAuctionInfo() public view returns ( uint highBid, address highBidder, uint lastBidTime){\n      Auction storage _auction = auctionByGeneration[currentGeneration];\n      return ( _auction.highBid, _auction.highBidder, _auction.lastBidTime);\n  }\n\n  function getAuctionInfo(uint id) public view returns ( uint highBid, address highBidder, uint lastBidTime){\n      Auction storage _auction = auctionByGeneration[id];\n      return ( _auction.highBid, _auction.highBidder, _auction.lastBidTime);\n  }\n\n  function getAuctionBalance() public view returns (uint balanceOf) {\n      return tokenX.balanceOf(address(this));\n  }\n }\n",
  "sourcePath": "/home/dev/repos/monorepo/packages/contracts/contracts/Emanator.sol",
  "compiler": {
    "name": "solc",
    "version": "0.7.0+commit.9e61f92b.Emscripten.clang"
  },
  "schemaVersion": "3.3.1",
  "updatedAt": "2020-10-30T17:08:10.921Z",
  "devdoc": {
    "kind": "dev",
    "methods": {
      "approve(address,uint256)": {
        "details": "See {IERC721-approve}."
      },
      "balanceOf(address)": {
        "details": "See {IERC721-balanceOf}."
      },
      "baseURI()": {
        "details": "Returns the base URI set via {_setBaseURI}. This will be automatically added as a prefix in {tokenURI} to each token's URI, or to the token ID if no specific URI is set for that token ID."
      },
      "getApproved(uint256)": {
        "details": "See {IERC721-getApproved}."
      },
      "isApprovedForAll(address,address)": {
        "details": "See {IERC721-isApprovedForAll}."
      },
      "name()": {
        "details": "See {IERC721Metadata-name}."
      },
      "ownerOf(uint256)": {
        "details": "See {IERC721-ownerOf}."
      },
      "safeTransferFrom(address,address,uint256)": {
        "details": "See {IERC721-safeTransferFrom}."
      },
      "safeTransferFrom(address,address,uint256,bytes)": {
        "details": "See {IERC721-safeTransferFrom}."
      },
      "setApprovalForAll(address,bool)": {
        "details": "See {IERC721-setApprovalForAll}."
      },
      "supportsInterface(bytes4)": {
        "details": "See {IERC165-supportsInterface}. Time complexity O(1), guaranteed to always use less than 30 000 gas."
      },
      "symbol()": {
        "details": "See {IERC721Metadata-symbol}."
      },
      "tokenByIndex(uint256)": {
        "details": "See {IERC721Enumerable-tokenByIndex}."
      },
      "tokenOfOwnerByIndex(address,uint256)": {
        "details": "See {IERC721Enumerable-tokenOfOwnerByIndex}."
      },
      "tokenURI(uint256)": {
        "details": "See {IERC721Metadata-tokenURI}."
      },
      "totalSupply()": {
        "details": "See {IERC721Enumerable-totalSupply}."
      },
      "transferFrom(address,address,uint256)": {
        "details": "See {IERC721-transferFrom}."
      }
    },
    "version": 1
  },
  "userdoc": {
    "kind": "user",
    "methods": {},
    "version": 1
  }
}