{
  "contractName": "Emanafte",
  "abi": [
    {
      "inputs": [
        {
          "internalType": "contract ISuperfluid",
          "name": "_host",
          "type": "address"
        },
        {
          "internalType": "contract IConstantFlowAgreementV1",
          "name": "_cfa",
          "type": "address"
        },
        {
          "internalType": "contract IInstantDistributionAgreementV1",
          "name": "_ida",
          "type": "address"
        },
        {
          "internalType": "contract ISuperToken",
          "name": "_tokenX",
          "type": "address"
        },
        {
          "internalType": "uint256",
          "name": "_winLength",
          "type": "uint256"
        }
      ],
      "stateMutability": "nonpayable",
      "type": "constructor"
    },
    {
      "anonymous": false,
      "inputs": [
        {
          "indexed": true,
          "internalType": "address",
          "name": "owner",
          "type": "address"
        },
        {
          "indexed": true,
          "internalType": "address",
          "name": "approved",
          "type": "address"
        },
        {
          "indexed": true,
          "internalType": "uint256",
          "name": "tokenId",
          "type": "uint256"
        }
      ],
      "name": "Approval",
      "type": "event"
    },
    {
      "anonymous": false,
      "inputs": [
        {
          "indexed": true,
          "internalType": "address",
          "name": "owner",
          "type": "address"
        },
        {
          "indexed": true,
          "internalType": "address",
          "name": "operator",
          "type": "address"
        },
        {
          "indexed": false,
          "internalType": "bool",
          "name": "approved",
          "type": "bool"
        }
      ],
      "name": "ApprovalForAll",
      "type": "event"
    },
    {
      "anonymous": false,
      "inputs": [
        {
          "indexed": true,
          "internalType": "address",
          "name": "from",
          "type": "address"
        },
        {
          "indexed": true,
          "internalType": "address",
          "name": "to",
          "type": "address"
        },
        {
          "indexed": true,
          "internalType": "uint256",
          "name": "tokenId",
          "type": "uint256"
        }
      ],
      "name": "Transfer",
      "type": "event"
    },
    {
      "anonymous": false,
      "inputs": [
        {
          "indexed": false,
          "internalType": "uint256",
          "name": "id",
          "type": "uint256"
        },
        {
          "indexed": true,
          "internalType": "address",
          "name": "winner",
          "type": "address"
        }
      ],
      "name": "auctionWon",
      "type": "event"
    },
    {
      "anonymous": false,
      "inputs": [
        {
          "indexed": false,
          "internalType": "uint256",
          "name": "id",
          "type": "uint256"
        }
      ],
      "name": "newAuction",
      "type": "event"
    },
    {
      "inputs": [
        {
          "internalType": "address",
          "name": "to",
          "type": "address"
        },
        {
          "internalType": "uint256",
          "name": "tokenId",
          "type": "uint256"
        }
      ],
      "name": "approve",
      "outputs": [],
      "stateMutability": "nonpayable",
      "type": "function"
    },
    {
      "inputs": [
        {
          "internalType": "uint256",
          "name": "",
          "type": "uint256"
        }
      ],
      "name": "auctionByGeneration",
      "outputs": [
        {
          "internalType": "uint256",
          "name": "lastBidTime",
          "type": "uint256"
        },
        {
          "internalType": "uint256",
          "name": "highBid",
          "type": "uint256"
        },
        {
          "internalType": "address",
          "name": "owner",
          "type": "address"
        },
        {
          "internalType": "address",
          "name": "highBidder",
          "type": "address"
        }
      ],
      "stateMutability": "view",
      "type": "function"
    },
    {
      "inputs": [
        {
          "internalType": "address",
          "name": "owner",
          "type": "address"
        }
      ],
      "name": "balanceOf",
      "outputs": [
        {
          "internalType": "uint256",
          "name": "",
          "type": "uint256"
        }
      ],
      "stateMutability": "view",
      "type": "function"
    },
    {
      "inputs": [],
      "name": "baseURI",
      "outputs": [
        {
          "internalType": "string",
          "name": "",
          "type": "string"
        }
      ],
      "stateMutability": "view",
      "type": "function"
    },
    {
      "inputs": [],
      "name": "creator",
      "outputs": [
        {
          "internalType": "address payable",
          "name": "",
          "type": "address"
        }
      ],
      "stateMutability": "view",
      "type": "function"
    },
    {
      "inputs": [],
      "name": "currentGeneration",
      "outputs": [
        {
          "internalType": "uint256",
          "name": "",
          "type": "uint256"
        }
      ],
      "stateMutability": "view",
      "type": "function"
    },
    {
      "inputs": [
        {
          "internalType": "uint256",
          "name": "tokenId",
          "type": "uint256"
        }
      ],
      "name": "getApproved",
      "outputs": [
        {
          "internalType": "address",
          "name": "",
          "type": "address"
        }
      ],
      "stateMutability": "view",
      "type": "function"
    },
    {
      "inputs": [
        {
          "internalType": "address",
          "name": "owner",
          "type": "address"
        },
        {
          "internalType": "address",
          "name": "operator",
          "type": "address"
        }
      ],
      "name": "isApprovedForAll",
      "outputs": [
        {
          "internalType": "bool",
          "name": "",
          "type": "bool"
        }
      ],
      "stateMutability": "view",
      "type": "function"
    },
    {
      "inputs": [],
      "name": "name",
      "outputs": [
        {
          "internalType": "string",
          "name": "",
          "type": "string"
        }
      ],
      "stateMutability": "view",
      "type": "function"
    },
    {
      "inputs": [
        {
          "internalType": "uint256",
          "name": "tokenId",
          "type": "uint256"
        }
      ],
      "name": "ownerOf",
      "outputs": [
        {
          "internalType": "address",
          "name": "",
          "type": "address"
        }
      ],
      "stateMutability": "view",
      "type": "function"
    },
    {
      "inputs": [
        {
          "internalType": "uint256",
          "name": "",
          "type": "uint256"
        }
      ],
      "name": "ownerRevShares",
      "outputs": [
        {
          "internalType": "uint256",
          "name": "",
          "type": "uint256"
        }
      ],
      "stateMutability": "view",
      "type": "function"
    },
    {
      "inputs": [
        {
          "internalType": "uint256",
          "name": "",
          "type": "uint256"
        }
      ],
      "name": "revShareRecipients",
      "outputs": [
        {
          "internalType": "address payable",
          "name": "",
          "type": "address"
        }
      ],
      "stateMutability": "view",
      "type": "function"
    },
    {
      "inputs": [
        {
          "internalType": "address",
          "name": "from",
          "type": "address"
        },
        {
          "internalType": "address",
          "name": "to",
          "type": "address"
        },
        {
          "internalType": "uint256",
          "name": "tokenId",
          "type": "uint256"
        }
      ],
      "name": "safeTransferFrom",
      "outputs": [],
      "stateMutability": "nonpayable",
      "type": "function"
    },
    {
      "inputs": [
        {
          "internalType": "address",
          "name": "from",
          "type": "address"
        },
        {
          "internalType": "address",
          "name": "to",
          "type": "address"
        },
        {
          "internalType": "uint256",
          "name": "tokenId",
          "type": "uint256"
        },
        {
          "internalType": "bytes",
          "name": "_data",
          "type": "bytes"
        }
      ],
      "name": "safeTransferFrom",
      "outputs": [],
      "stateMutability": "nonpayable",
      "type": "function"
    },
    {
      "inputs": [
        {
          "internalType": "address",
          "name": "operator",
          "type": "address"
        },
        {
          "internalType": "bool",
          "name": "approved",
          "type": "bool"
        }
      ],
      "name": "setApprovalForAll",
      "outputs": [],
      "stateMutability": "nonpayable",
      "type": "function"
    },
    {
      "inputs": [
        {
          "internalType": "bytes4",
          "name": "interfaceId",
          "type": "bytes4"
        }
      ],
      "name": "supportsInterface",
      "outputs": [
        {
          "internalType": "bool",
          "name": "",
          "type": "bool"
        }
      ],
      "stateMutability": "view",
      "type": "function"
    },
    {
      "inputs": [],
      "name": "symbol",
      "outputs": [
        {
          "internalType": "string",
          "name": "",
          "type": "string"
        }
      ],
      "stateMutability": "view",
      "type": "function"
    },
    {
      "inputs": [
        {
          "internalType": "uint256",
          "name": "index",
          "type": "uint256"
        }
      ],
      "name": "tokenByIndex",
      "outputs": [
        {
          "internalType": "uint256",
          "name": "",
          "type": "uint256"
        }
      ],
      "stateMutability": "view",
      "type": "function"
    },
    {
      "inputs": [
        {
          "internalType": "address",
          "name": "owner",
          "type": "address"
        },
        {
          "internalType": "uint256",
          "name": "index",
          "type": "uint256"
        }
      ],
      "name": "tokenOfOwnerByIndex",
      "outputs": [
        {
          "internalType": "uint256",
          "name": "",
          "type": "uint256"
        }
      ],
      "stateMutability": "view",
      "type": "function"
    },
    {
      "inputs": [
        {
          "internalType": "uint256",
          "name": "tokenId",
          "type": "uint256"
        }
      ],
      "name": "tokenURI",
      "outputs": [
        {
          "internalType": "string",
          "name": "",
          "type": "string"
        }
      ],
      "stateMutability": "view",
      "type": "function"
    },
    {
      "inputs": [],
      "name": "totalShares",
      "outputs": [
        {
          "internalType": "uint256",
          "name": "",
          "type": "uint256"
        }
      ],
      "stateMutability": "view",
      "type": "function"
    },
    {
      "inputs": [],
      "name": "totalSupply",
      "outputs": [
        {
          "internalType": "uint256",
          "name": "",
          "type": "uint256"
        }
      ],
      "stateMutability": "view",
      "type": "function"
    },
    {
      "inputs": [
        {
          "internalType": "address",
          "name": "from",
          "type": "address"
        },
        {
          "internalType": "address",
          "name": "to",
          "type": "address"
        },
        {
          "internalType": "uint256",
          "name": "tokenId",
          "type": "uint256"
        }
      ],
      "name": "transferFrom",
      "outputs": [],
      "stateMutability": "nonpayable",
      "type": "function"
    },
    {
      "inputs": [],
      "name": "winLength",
      "outputs": [
        {
          "internalType": "uint256",
          "name": "",
          "type": "uint256"
        }
      ],
      "stateMutability": "view",
      "type": "function"
    },
    {
      "inputs": [
        {
          "internalType": "address",
          "name": "",
          "type": "address"
        },
        {
          "internalType": "address",
          "name": "",
          "type": "address"
        },
        {
          "internalType": "uint256",
          "name": "",
          "type": "uint256"
        },
        {
          "internalType": "bytes",
          "name": "",
          "type": "bytes"
        }
      ],
      "name": "onERC721Received",
      "outputs": [
        {
          "internalType": "bytes4",
          "name": "",
          "type": "bytes4"
        }
      ],
      "stateMutability": "nonpayable",
      "type": "function"
    },
    {
      "inputs": [],
      "name": "firstAuction",
      "outputs": [],
      "stateMutability": "nonpayable",
      "type": "function"
    },
    {
      "inputs": [
        {
          "internalType": "uint256",
          "name": "bidAmount",
          "type": "uint256"
        }
      ],
      "name": "bid",
      "outputs": [
        {
          "internalType": "uint256",
          "name": "highBid",
          "type": "uint256"
        },
        {
          "internalType": "uint256",
          "name": "lastBidTime",
          "type": "uint256"
        },
        {
          "internalType": "address",
          "name": "highBidder",
          "type": "address"
        }
      ],
      "stateMutability": "nonpayable",
      "type": "function"
    },
    {
      "inputs": [],
      "name": "settleAndBeginAuction",
      "outputs": [],
      "stateMutability": "nonpayable",
      "type": "function"
    },
    {
      "inputs": [],
      "name": "checkTimeRemaining",
      "outputs": [
        {
          "internalType": "uint256",
          "name": "",
          "type": "uint256"
        }
      ],
      "stateMutability": "view",
      "type": "function"
    },
    {
      "inputs": [],
      "name": "checkEndTime",
      "outputs": [
        {
          "internalType": "uint256",
          "name": "",
          "type": "uint256"
        }
      ],
      "stateMutability": "view",
      "type": "function"
    },
    {
      "inputs": [],
      "name": "getCurrentAuctionInfo",
      "outputs": [
        {
          "internalType": "uint256",
          "name": "highBid",
          "type": "uint256"
        },
        {
          "internalType": "address",
          "name": "highBidder",
          "type": "address"
        },
        {
          "internalType": "uint256",
          "name": "lastBidTime",
          "type": "uint256"
        }
      ],
      "stateMutability": "view",
      "type": "function"
    },
    {
      "inputs": [
        {
          "internalType": "uint256",
          "name": "id",
          "type": "uint256"
        }
      ],
      "name": "getAuctionInfo",
      "outputs": [
        {
          "internalType": "uint256",
          "name": "highBid",
          "type": "uint256"
        },
        {
          "internalType": "address",
          "name": "highBidder",
          "type": "address"
        },
        {
          "internalType": "uint256",
          "name": "lastBidTime",
          "type": "uint256"
        }
      ],
      "stateMutability": "view",
      "type": "function"
    },
    {
      "inputs": [],
      "name": "getAuctionBalance",
      "outputs": [
        {
          "internalType": "uint256",
          "name": "balanceOf",
          "type": "uint256"
        }
      ],
      "stateMutability": "view",
      "type": "function"
    }
  ],
  "bytecode": "0x60806040523480156200001157600080fd5b506040516200419d3803806200419d833981810160405260a08110156200003757600080fd5b8101908080519060200190929190805190602001909291908051906020019092919080519060200190929190805190602001909291905050506040518060400160405280600881526020017f656d614e614654650000000000000000000000000000000000000000000000008152506040518060400160405280600581526020017f656d4e4654000000000000000000000000000000000000000000000000000000815250620000f46301ffc9a760e01b620004f160201b60201c565b81600690805190602001906200010c929190620007d1565b50806007908051906020019062000125929190620007d1565b506200013e6380ac58cd60e01b620004f160201b60201c565b62000156635b5e139f60e01b620004f160201b60201c565b6200016e63780e9d6360e01b620004f160201b60201c565b5050600073ffffffffffffffffffffffffffffffffffffffff16601060009054906101000a900473ffffffffffffffffffffffffffffffffffffffff1673ffffffffffffffffffffffffffffffffffffffff161415620001ca57fe5b600073ffffffffffffffffffffffffffffffffffffffff16601160009054906101000a900473ffffffffffffffffffffffffffffffffffffffff1673ffffffffffffffffffffffffffffffffffffffff1614156200022457fe5b600073ffffffffffffffffffffffffffffffffffffffff16601260009054906101000a900473ffffffffffffffffffffffffffffffffffffffff1673ffffffffffffffffffffffffffffffffffffffff1614156200027e57fe5b600073ffffffffffffffffffffffffffffffffffffffff168273ffffffffffffffffffffffffffffffffffffffff161415620002b657fe5b84601060006101000a81548173ffffffffffffffffffffffffffffffffffffffff021916908373ffffffffffffffffffffffffffffffffffffffff16021790555083601160006101000a81548173ffffffffffffffffffffffffffffffffffffffff021916908373ffffffffffffffffffffffffffffffffffffffff16021790555082601260006101000a81548173ffffffffffffffffffffffffffffffffffffffff021916908373ffffffffffffffffffffffffffffffffffffffff16021790555081601360006101000a81548173ffffffffffffffffffffffffffffffffffffffff021916908373ffffffffffffffffffffffffffffffffffffffff16021790555080600b8190555033600a60006101000a81548173ffffffffffffffffffffffffffffffffffffffff021916908373ffffffffffffffffffffffffffffffffffffffff160217905550600c600a60009054906101000a900473ffffffffffffffffffffffffffffffffffffffff169080600181540180825580915050600190039060005260206000200160009091909190916101000a81548173ffffffffffffffffffffffffffffffffffffffff021916908373ffffffffffffffffffffffffffffffffffffffff160217905550600d620f42409080600181540180825580915050600190039060005260206000200160009091909190915055600d600081548110620004c257fe5b9060005260206000200154600e81905550620004e6306001620005fa60201b60201c565b505050505062000877565b63ffffffff60e01b817bffffffffffffffffffffffffffffffffffffffffffffffffffffffff191614156200058e576040517f08c379a000000000000000000000000000000000000000000000000000000000815260040180806020018281038252601c8152602001807f4552433136353a20696e76616c696420696e746572666163652069640000000081525060200191505060405180910390fd5b6001600080837bffffffffffffffffffffffffffffffffffffffffffffffffffffffff19167bffffffffffffffffffffffffffffffffffffffffffffffffffffffff1916815260200190815260200160002060006101000a81548160ff02191690831515021790555050565b6200060a620007c960201b60201c565b73ffffffffffffffffffffffffffffffffffffffff168273ffffffffffffffffffffffffffffffffffffffff161415620006ac576040517f08c379a00000000000000000000000000000000000000000000000000000000081526004018080602001828103825260198152602001807f4552433732313a20617070726f766520746f2063616c6c65720000000000000081525060200191505060405180910390fd5b8060056000620006c1620007c960201b60201c565b73ffffffffffffffffffffffffffffffffffffffff1673ffffffffffffffffffffffffffffffffffffffff16815260200190815260200160002060008473ffffffffffffffffffffffffffffffffffffffff1673ffffffffffffffffffffffffffffffffffffffff16815260200190815260200160002060006101000a81548160ff0219169083151502179055508173ffffffffffffffffffffffffffffffffffffffff1662000776620007c960201b60201c565b73ffffffffffffffffffffffffffffffffffffffff167f17307eab39ab6107e8899845ad3d59bd9653f200f220920489ca2b5937696c318360405180821515815260200191505060405180910390a35050565b600033905090565b828054600181600116156101000203166002900490600052602060002090601f016020900481019282601f106200081457805160ff191683800117855562000845565b8280016001018555821562000845579182015b828111156200084457825182559160200191906001019062000827565b5b50905062000854919062000858565b5090565b5b808211156200087357600081600090555060010162000859565b5090565b61391680620008876000396000f3fe608060405234801561001057600080fd5b50600436106101fb5760003560e01c806342842e0e1161011a57806395d89b41116100ad578063da780ecb1161007c578063da780ecb14610bc4578063e224e62714610bce578063e8f129cc14610c10578063e985e9c514610c93578063fc3fc4ed14610d0d576101fb565b806395d89b4114610945578063a22cb465146109c8578063b88d4fde14610a18578063c87b56dd14610b1d576101fb565b80636352211e116100e95780636352211e146107f45780636c0360eb1461084c57806370a08231146108cf5780638ddb428a14610927576101fb565b806342842e0e146106c05780634352d3e11461072e578063454a2ab31461074c5780634f6ccce7146107b2576101fb565b806323708c81116101925780632f745c59116101615780632f745c5914610618578063363fee701461067a5780633a98ef391461068457806340c6ed97146106a2576101fb565b806323708c811461051657806323b872dd1461056e57806325a35e73146105dc57806328b56048146105fa576101fb565b8063095ea7b3116101ce578063095ea7b314610372578063150b7a02146103c057806318160ddd146104b6578063189d9946146104d4576101fb565b806301ffc9a71461020057806302d05d3f1461026357806306fdde0314610297578063081812fc1461031a575b600080fd5b61024b6004803603602081101561021657600080fd5b8101908080357bffffffffffffffffffffffffffffffffffffffffffffffffffffffff19169060200190929190505050610d73565b60405180821515815260200191505060405180910390f35b61026b610dda565b604051808273ffffffffffffffffffffffffffffffffffffffff16815260200191505060405180910390f35b61029f610e00565b6040518080602001828103825283818151815260200191508051906020019080838360005b838110156102df5780820151818401526020810190506102c4565b50505050905090810190601f16801561030c5780820380516001836020036101000a031916815260200191505b509250505060405180910390f35b6103466004803603602081101561033057600080fd5b8101908080359060200190929190505050610ea2565b604051808273ffffffffffffffffffffffffffffffffffffffff16815260200191505060405180910390f35b6103be6004803603604081101561038857600080fd5b81019080803573ffffffffffffffffffffffffffffffffffffffff16906020019092919080359060200190929190505050610f3d565b005b610481600480360360808110156103d657600080fd5b81019080803573ffffffffffffffffffffffffffffffffffffffff169060200190929190803573ffffffffffffffffffffffffffffffffffffffff169060200190929190803590602001909291908035906020019064010000000081111561043d57600080fd5b82018360208201111561044f57600080fd5b8035906020019184600183028401116401000000008311171561047157600080fd5b9091929391929390505050611081565b60405180827bffffffffffffffffffffffffffffffffffffffffffffffffffffffff1916815260200191505060405180910390f35b6104be6110af565b6040518082815260200191505060405180910390f35b6104dc6110c0565b604051808481526020018373ffffffffffffffffffffffffffffffffffffffff168152602001828152602001935050505060405180910390f35b6105426004803603602081101561052c57600080fd5b8101908080359060200190929190505050611118565b604051808273ffffffffffffffffffffffffffffffffffffffff16815260200191505060405180910390f35b6105da6004803603606081101561058457600080fd5b81019080803573ffffffffffffffffffffffffffffffffffffffff169060200190929190803573ffffffffffffffffffffffffffffffffffffffff16906020019092919080359060200190929190505050611154565b005b6105e46111ca565b6040518082815260200191505060405180910390f35b610602611295565b6040518082815260200191505060405180910390f35b6106646004803603604081101561062e57600080fd5b81019080803573ffffffffffffffffffffffffffffffffffffffff1690602001909291908035906020019092919050505061133e565b6040518082815260200191505060405180910390f35b610682611399565b005b61068c611501565b6040518082815260200191505060405180910390f35b6106aa611507565b6040518082815260200191505060405180910390f35b61072c600480360360608110156106d657600080fd5b81019080803573ffffffffffffffffffffffffffffffffffffffff169060200190929190803573ffffffffffffffffffffffffffffffffffffffff169060200190929190803590602001909291905050506115b2565b005b6107366115d2565b6040518082815260200191505060405180910390f35b6107786004803603602081101561076257600080fd5b81019080803590602001909291905050506115d8565b604051808481526020018381526020018273ffffffffffffffffffffffffffffffffffffffff168152602001935050505060405180910390f35b6107de600480360360208110156107c857600080fd5b8101908080359060200190929190505050611836565b6040518082815260200191505060405180910390f35b6108206004803603602081101561080a57600080fd5b8101908080359060200190929190505050611859565b604051808273ffffffffffffffffffffffffffffffffffffffff16815260200191505060405180910390f35b610854611890565b6040518080602001828103825283818151815260200191508051906020019080838360005b83811015610894578082015181840152602081019050610879565b50505050905090810190601f1680156108c15780820380516001836020036101000a031916815260200191505b509250505060405180910390f35b610911600480360360208110156108e557600080fd5b81019080803573ffffffffffffffffffffffffffffffffffffffff169060200190929190505050611932565b6040518082815260200191505060405180910390f35b61092f611a07565b6040518082815260200191505060405180910390f35b61094d611a0d565b6040518080602001828103825283818151815260200191508051906020019080838360005b8381101561098d578082015181840152602081019050610972565b50505050905090810190601f1680156109ba5780820380516001836020036101000a031916815260200191505b509250505060405180910390f35b610a16600480360360408110156109de57600080fd5b81019080803573ffffffffffffffffffffffffffffffffffffffff169060200190929190803515159060200190929190505050611aaf565b005b610b1b60048036036080811015610a2e57600080fd5b81019080803573ffffffffffffffffffffffffffffffffffffffff169060200190929190803573ffffffffffffffffffffffffffffffffffffffff1690602001909291908035906020019092919080359060200190640100000000811115610a9557600080fd5b820183602082011115610aa757600080fd5b80359060200191846001830284011164010000000083111715610ac957600080fd5b91908080601f016020809104026020016040519081016040528093929190818152602001838380828437600081840152601f19601f820116905080830192505050505050509192919290505050611c65565b005b610b4960048036036020811015610b3357600080fd5b8101908080359060200190929190505050611cdd565b6040518080602001828103825283818151815260200191508051906020019080838360005b83811015610b89578082015181840152602081019050610b6e565b50505050905090810190601f168015610bb65780820380516001836020036101000a031916815260200191505b509250505060405180910390f35b610bcc611fc6565b005b610bfa60048036036020811015610be457600080fd5b810190808035906020019092919050505061218b565b6040518082815260200191505060405180910390f35b610c3c60048036036020811015610c2657600080fd5b81019080803590602001909291905050506121ac565b604051808581526020018481526020018373ffffffffffffffffffffffffffffffffffffffff1681526020018273ffffffffffffffffffffffffffffffffffffffff16815260200194505050505060405180910390f35b610cf560048036036040811015610ca957600080fd5b81019080803573ffffffffffffffffffffffffffffffffffffffff169060200190929190803573ffffffffffffffffffffffffffffffffffffffff16906020019092919050505061221c565b60405180821515815260200191505060405180910390f35b610d3960048036036020811015610d2357600080fd5b81019080803590602001909291905050506122b0565b604051808481526020018373ffffffffffffffffffffffffffffffffffffffff168152602001828152602001935050505060405180910390f35b6000806000837bffffffffffffffffffffffffffffffffffffffffffffffffffffffff19167bffffffffffffffffffffffffffffffffffffffffffffffffffffffff1916815260200190815260200160002060009054906101000a900460ff169050919050565b600a60009054906101000a900473ffffffffffffffffffffffffffffffffffffffff1681565b606060068054600181600116156101000203166002900480601f016020809104026020016040519081016040528092919081815260200182805460018160011615610100020316600290048015610e985780601f10610e6d57610100808354040283529160200191610e98565b820191906000526020600020905b815481529060010190602001808311610e7b57829003601f168201915b5050505050905090565b6000610ead82612308565b610f02576040517f08c379a000000000000000000000000000000000000000000000000000000000815260040180806020018281038252602c8152602001806137b0602c913960400191505060405180910390fd5b6004600083815260200190815260200160002060009054906101000a900473ffffffffffffffffffffffffffffffffffffffff169050919050565b6000610f4882611859565b90508073ffffffffffffffffffffffffffffffffffffffff168373ffffffffffffffffffffffffffffffffffffffff161415610fcf576040517f08c379a00000000000000000000000000000000000000000000000000000000081526004018080602001828103825260218152602001806138596021913960400191505060405180910390fd5b8073ffffffffffffffffffffffffffffffffffffffff16610fee612325565b73ffffffffffffffffffffffffffffffffffffffff16148061101d575061101c81611017612325565b61221c565b5b611072576040517f08c379a00000000000000000000000000000000000000000000000000000000081526004018080602001828103825260388152602001806137036038913960400191505060405180910390fd5b61107c838361232d565b505050565b60007f150b7a023d4804d13e8c85fb27262cb750cf6ba9f9dd3bb30d90f482ceeb4b1f905095945050505050565b60006110bb60026123e6565b905090565b60008060008060146000600f548152602001908152602001600020905080600101548160030160009054906101000a900473ffffffffffffffffffffffffffffffffffffffff16826000015493509350935050909192565b600c818154811061112557fe5b906000526020600020016000915054906101000a900473ffffffffffffffffffffffffffffffffffffffff1681565b61116561115f612325565b826123fb565b6111ba576040517f08c379a00000000000000000000000000000000000000000000000000000000081526004018080602001828103825260318152602001806138b06031913960400191505060405180910390fd5b6111c58383836124ef565b505050565b6000601360009054906101000a900473ffffffffffffffffffffffffffffffffffffffff1673ffffffffffffffffffffffffffffffffffffffff166370a08231306040518263ffffffff1660e01b8152600401808273ffffffffffffffffffffffffffffffffffffffff16815260200191505060206040518083038186803b15801561125557600080fd5b505afa158015611269573d6000803e3d6000fd5b505050506040513d602081101561127f57600080fd5b8101908080519060200190929190505050905090565b60008060146000600f54815260200190815260200160002090506000816001015411611329576040517f08c379a000000000000000000000000000000000000000000000000000000000815260040180806020018281038252601f8152602001807f5468652061756374696f6e20686173206e6f742073746172746564207965740081525060200191505060405180910390fd5b6000600b548260000154019050809250505090565b600061139182600160008673ffffffffffffffffffffffffffffffffffffffff1673ffffffffffffffffffffffffffffffffffffffff16815260200190815260200160002061273290919063ffffffff16565b905092915050565b600a60009054906101000a900473ffffffffffffffffffffffffffffffffffffffff1673ffffffffffffffffffffffffffffffffffffffff163373ffffffffffffffffffffffffffffffffffffffff161461143f576040517f08c379a000000000000000000000000000000000000000000000000000000000815260040180806020018281038252602c8152602001806136ab602c913960400191505060405180910390fd5b6001600f541061149a576040517f08c379a00000000000000000000000000000000000000000000000000000000081526004018080602001828103825260258152602001806137dc6025913960400191505060405180910390fd5b6114a533600061274c565b6001600f819055506000601460006001815260200190815260200160002090507fda83fc749f1dad2f8cdb0a38a3844a5da2f6da5554025c13adf3ecc8127d0f1e600f546040518082815260200191505060405180910390a150565b600e5481565b60008060146000600f5481526020019081526020016000209050600081600101541161159b576040517f08c379a000000000000000000000000000000000000000000000000000000000815260040180806020018281038252601f8152602001807f5468652061756374696f6e20686173206e6f742073746172746564207965740081525060200191505060405180910390fd5b600042600b54836000015401039050809250505090565b6115cd83838360405180602001604052806000815250611c65565b505050565b600b5481565b60008060008060146000600f54815260200190815260200160002090506000600b54826000015401905080421161165a576040517f08c379a000000000000000000000000000000000000000000000000000000000815260040180806020018281038252603681526020018061387a6036913960400191505060405180910390fd5b816001015486116116b6576040517f08c379a000000000000000000000000000000000000000000000000000000000815260040180806020018281038252602b815260200180613608602b913960400191505060405180910390fd5b601360009054906101000a900473ffffffffffffffffffffffffffffffffffffffff1673ffffffffffffffffffffffffffffffffffffffff166323b872dd3330896040518463ffffffff1660e01b8152600401808473ffffffffffffffffffffffffffffffffffffffff1681526020018373ffffffffffffffffffffffffffffffffffffffff1681526020018281526020019350505050602060405180830381600087803b15801561176757600080fd5b505af115801561177b573d6000803e3d6000fd5b505050506040513d602081101561179157600080fd5b810190808051906020019092919050505050858260010181905550338260030160006101000a81548173ffffffffffffffffffffffffffffffffffffffff021916908373ffffffffffffffffffffffffffffffffffffffff160217905550428260000181905550816001015482600001548360030160009054906101000a900473ffffffffffffffffffffffffffffffffffffffff1694509450945050509193909250565b60008061184d83600261276a90919063ffffffff16565b50905080915050919050565b6000611889826040518060600160405280602981526020016137656029913960026127969092919063ffffffff16565b9050919050565b606060098054600181600116156101000203166002900480601f0160208091040260200160405190810160405280929190818152602001828054600181600116156101000203166002900480156119285780601f106118fd57610100808354040283529160200191611928565b820191906000526020600020905b81548152906001019060200180831161190b57829003601f168201915b5050505050905090565b60008073ffffffffffffffffffffffffffffffffffffffff168273ffffffffffffffffffffffffffffffffffffffff1614156119b9576040517f08c379a000000000000000000000000000000000000000000000000000000000815260040180806020018281038252602a81526020018061373b602a913960400191505060405180910390fd5b611a00600160008473ffffffffffffffffffffffffffffffffffffffff1673ffffffffffffffffffffffffffffffffffffffff1681526020019081526020016000206127b5565b9050919050565b600f5481565b606060078054600181600116156101000203166002900480601f016020809104026020016040519081016040528092919081815260200182805460018160011615610100020316600290048015611aa55780601f10611a7a57610100808354040283529160200191611aa5565b820191906000526020600020905b815481529060010190602001808311611a8857829003601f168201915b5050505050905090565b611ab7612325565b73ffffffffffffffffffffffffffffffffffffffff168273ffffffffffffffffffffffffffffffffffffffff161415611b58576040517f08c379a00000000000000000000000000000000000000000000000000000000081526004018080602001828103825260198152602001807f4552433732313a20617070726f766520746f2063616c6c65720000000000000081525060200191505060405180910390fd5b8060056000611b65612325565b73ffffffffffffffffffffffffffffffffffffffff1673ffffffffffffffffffffffffffffffffffffffff16815260200190815260200160002060008473ffffffffffffffffffffffffffffffffffffffff1673ffffffffffffffffffffffffffffffffffffffff16815260200190815260200160002060006101000a81548160ff0219169083151502179055508173ffffffffffffffffffffffffffffffffffffffff16611c12612325565b73ffffffffffffffffffffffffffffffffffffffff167f17307eab39ab6107e8899845ad3d59bd9653f200f220920489ca2b5937696c318360405180821515815260200191505060405180910390a35050565b611c76611c70612325565b836123fb565b611ccb576040517f08c379a00000000000000000000000000000000000000000000000000000000081526004018080602001828103825260318152602001806138b06031913960400191505060405180910390fd5b611cd7848484846127ca565b50505050565b6060611ce882612308565b611d3d576040517f08c379a000000000000000000000000000000000000000000000000000000000815260040180806020018281038252602f81526020018061382a602f913960400191505060405180910390fd5b6060600860008481526020019081526020016000208054600181600116156101000203166002900480601f016020809104026020016040519081016040528092919081815260200182805460018160011615610100020316600290048015611de65780601f10611dbb57610100808354040283529160200191611de6565b820191906000526020600020905b815481529060010190602001808311611dc957829003601f168201915b50505050509050600060098054600181600116156101000203166002900490501415611e155780915050611fc1565b600081511115611eee576009816040516020018083805460018160011615610100020316600290048015611e805780601f10611e5e576101008083540402835291820191611e80565b820191906000526020600020905b815481529060010190602001808311611e6c575b505082805190602001908083835b60208310611eb15780518252602082019150602081019050602083039250611e8e565b6001836020036101000a03801982511681845116808217855250505050505090500192505050604051602081830303815290604052915050611fc1565b6009611ef98461283c565b6040516020018083805460018160011615610100020316600290048015611f575780601f10611f35576101008083540402835291820191611f57565b820191906000526020600020905b815481529060010190602001808311611f43575b505082805190602001908083835b60208310611f885780518252602082019150602081019050602083039250611f65565b6001836020036101000a038019825116818451168082178552505050505050905001925050506040516020818303038152906040529150505b919050565b600060146000600f54815260200190815260200160002090506000816001015411612059576040517f08c379a000000000000000000000000000000000000000000000000000000000815260040180806020018281038252601f8152602001807f5468652061756374696f6e20686173206e6f742073746172746564207965740081525060200191505060405180910390fd5b6000600b5482600001540190508042116120db576040517f08c379a000000000000000000000000000000000000000000000000000000000815260040180806020018281038252601b8152602001807f5468652061756374696f6e206973206e6f74206f76657220796574000000000081525060200191505060405180910390fd5b61210b8260030160009054906101000a900473ffffffffffffffffffffffffffffffffffffffff16600f5461274c565b8160030160009054906101000a900473ffffffffffffffffffffffffffffffffffffffff1673ffffffffffffffffffffffffffffffffffffffff167f9f96e353bf532e3a5c1d3588b979d045747202d9de14462f9062a73d40103586600f546040518082815260200191505060405180910390a2612187612983565b5050565b600d818154811061219857fe5b906000526020600020016000915090505481565b60146020528060005260406000206000915090508060000154908060010154908060020160009054906101000a900473ffffffffffffffffffffffffffffffffffffffff16908060030160009054906101000a900473ffffffffffffffffffffffffffffffffffffffff16905084565b6000600560008473ffffffffffffffffffffffffffffffffffffffff1673ffffffffffffffffffffffffffffffffffffffff16815260200190815260200160002060008373ffffffffffffffffffffffffffffffffffffffff1673ffffffffffffffffffffffffffffffffffffffff16815260200190815260200160002060009054906101000a900460ff16905092915050565b60008060008060146000868152602001908152602001600020905080600101548160030160009054906101000a900473ffffffffffffffffffffffffffffffffffffffff168260000154935093509350509193909250565b600061231e8260026129ea90919063ffffffff16565b9050919050565b600033905090565b816004600083815260200190815260200160002060006101000a81548173ffffffffffffffffffffffffffffffffffffffff021916908373ffffffffffffffffffffffffffffffffffffffff160217905550808273ffffffffffffffffffffffffffffffffffffffff166123a083611859565b73ffffffffffffffffffffffffffffffffffffffff167f8c5be1e5ebec7d5bd14f71427d1e84f3dd0314c0f7b2291e5b200ac8c7c3b92560405160405180910390a45050565b60006123f482600001612a04565b9050919050565b600061240682612308565b61245b576040517f08c379a000000000000000000000000000000000000000000000000000000000815260040180806020018281038252602c8152602001806136d7602c913960400191505060405180910390fd5b600061246683611859565b90508073ffffffffffffffffffffffffffffffffffffffff168473ffffffffffffffffffffffffffffffffffffffff1614806124d557508373ffffffffffffffffffffffffffffffffffffffff166124bd84610ea2565b73ffffffffffffffffffffffffffffffffffffffff16145b806124e657506124e5818561221c565b5b91505092915050565b8273ffffffffffffffffffffffffffffffffffffffff1661250f82611859565b73ffffffffffffffffffffffffffffffffffffffff161461257b576040517f08c379a00000000000000000000000000000000000000000000000000000000081526004018080602001828103825260298152602001806138016029913960400191505060405180910390fd5b600073ffffffffffffffffffffffffffffffffffffffff168273ffffffffffffffffffffffffffffffffffffffff161415612601576040517f08c379a00000000000000000000000000000000000000000000000000000000081526004018080602001828103825260248152602001806136876024913960400191505060405180910390fd5b61260c838383612a15565b61261760008261232d565b61266881600160008673ffffffffffffffffffffffffffffffffffffffff1673ffffffffffffffffffffffffffffffffffffffff168152602001908152602001600020612a1a90919063ffffffff16565b506126ba81600160008573ffffffffffffffffffffffffffffffffffffffff1673ffffffffffffffffffffffffffffffffffffffff168152602001908152602001600020612a3490919063ffffffff16565b506126d181836002612a4e9092919063ffffffff16565b50808273ffffffffffffffffffffffffffffffffffffffff168473ffffffffffffffffffffffffffffffffffffffff167fddf252ad1be2c89b69c2b068fc378daa952ba7f163c4a11628f55a4df523b3ef60405160405180910390a4505050565b60006127418360000183612a83565b60001c905092915050565b612766828260405180602001604052806000815250612b06565b5050565b60008060008061277d8660000186612b77565b915091508160001c8160001c9350935050509250929050565b60006127a9846000018460001b84612c10565b60001c90509392505050565b60006127c382600001612d06565b9050919050565b6127d58484846124ef565b6127e184848484612d17565b612836576040517f08c379a00000000000000000000000000000000000000000000000000000000081526004018080602001828103825260328152602001806136556032913960400191505060405180910390fd5b50505050565b60606000821415612884576040518060400160405280600181526020017f3000000000000000000000000000000000000000000000000000000000000000815250905061297e565b600082905060005b600082146128ae578080600101915050600a82816128a657fe5b04915061288c565b60608167ffffffffffffffff811180156128c757600080fd5b506040519080825280601f01601f1916602001820160405280156128fa5781602001600182028036833780820191505090505b50905060006001830390508593505b6000841461297657600a848161291b57fe5b0660300160f81b8282806001900393508151811061293557fe5b60200101907effffffffffffffffffffffffffffffffffffffffffffffffffffffffffffff1916908160001a905350600a848161296e57fe5b049350612909565b819450505050505b919050565b600f60008154809291906001019190505550600060146000600f54815260200190815260200160002090507fda83fc749f1dad2f8cdb0a38a3844a5da2f6da5554025c13adf3ecc8127d0f1e600f546040518082815260200191505060405180910390a150565b60006129fc836000018360001b612f30565b905092915050565b600081600001805490509050919050565b505050565b6000612a2c836000018360001b612f53565b905092915050565b6000612a46836000018360001b61303b565b905092915050565b6000612a7a846000018460001b8473ffffffffffffffffffffffffffffffffffffffff1660001b6130ab565b90509392505050565b600081836000018054905011612ae4576040517f08c379a00000000000000000000000000000000000000000000000000000000081526004018080602001828103825260228152602001806136336022913960400191505060405180910390fd5b826000018281548110612af357fe5b9060005260206000200154905092915050565b612b108383613187565b612b1d6000848484612d17565b612b72576040517f08c379a00000000000000000000000000000000000000000000000000000000081526004018080602001828103825260328152602001806136556032913960400191505060405180910390fd5b505050565b60008082846000018054905011612bd9576040517f08c379a000000000000000000000000000000000000000000000000000000000815260040180806020018281038252602281526020018061378e6022913960400191505060405180910390fd5b6000846000018481548110612bea57fe5b906000526020600020906002020190508060000154816001015492509250509250929050565b60008084600101600085815260200190815260200160002054905060008114158390612cd7576040517f08c379a00000000000000000000000000000000000000000000000000000000081526004018080602001828103825283818151815260200191508051906020019080838360005b83811015612c9c578082015181840152602081019050612c81565b50505050905090810190601f168015612cc95780820380516001836020036101000a031916815260200191505b509250505060405180910390fd5b50846000016001820381548110612cea57fe5b9060005260206000209060020201600101549150509392505050565b600081600001805490509050919050565b6000612d388473ffffffffffffffffffffffffffffffffffffffff1661337b565b612d455760019050612f28565b6060612eaf63150b7a0260e01b612d5a612325565b888787604051602401808573ffffffffffffffffffffffffffffffffffffffff1681526020018473ffffffffffffffffffffffffffffffffffffffff16815260200183815260200180602001828103825283818151815260200191508051906020019080838360005b83811015612dde578082015181840152602081019050612dc3565b50505050905090810190601f168015612e0b5780820380516001836020036101000a031916815260200191505b5095505050505050604051602081830303815290604052907bffffffffffffffffffffffffffffffffffffffffffffffffffffffff19166020820180517bffffffffffffffffffffffffffffffffffffffffffffffffffffffff8381831617835250505050604051806060016040528060328152602001613655603291398773ffffffffffffffffffffffffffffffffffffffff166133c69092919063ffffffff16565b90506000818060200190516020811015612ec857600080fd5b8101908080519060200190929190505050905063150b7a0260e01b7bffffffffffffffffffffffffffffffffffffffffffffffffffffffff1916817bffffffffffffffffffffffffffffffffffffffffffffffffffffffff191614925050505b949350505050565b600080836001016000848152602001908152602001600020541415905092915050565b6000808360010160008481526020019081526020016000205490506000811461302f5760006001820390506000600186600001805490500390506000866000018281548110612f9e57fe5b9060005260206000200154905080876000018481548110612fbb57fe5b9060005260206000200181905550600183018760010160008381526020019081526020016000208190555086600001805480612ff357fe5b60019003818190600052602060002001600090559055866001016000878152602001908152602001600020600090556001945050505050613035565b60009150505b92915050565b600061304783836133de565b6130a05782600001829080600181540180825580915050600190039060005260206000200160009091909190915055826000018054905083600101600084815260200190815260200160002081905550600190506130a5565b600090505b92915050565b600080846001016000858152602001908152602001600020549050600081141561315257846000016040518060400160405280868152602001858152509080600181540180825580915050600190039060005260206000209060020201600090919091909150600082015181600001556020820151816001015550508460000180549050856001016000868152602001908152602001600020819055506001915050613180565b8285600001600183038154811061316557fe5b90600052602060002090600202016001018190555060009150505b9392505050565b600073ffffffffffffffffffffffffffffffffffffffff168273ffffffffffffffffffffffffffffffffffffffff16141561322a576040517f08c379a00000000000000000000000000000000000000000000000000000000081526004018080602001828103825260208152602001807f4552433732313a206d696e7420746f20746865207a65726f206164647265737381525060200191505060405180910390fd5b61323381612308565b156132a6576040517f08c379a000000000000000000000000000000000000000000000000000000000815260040180806020018281038252601c8152602001807f4552433732313a20746f6b656e20616c7265616479206d696e7465640000000081525060200191505060405180910390fd5b6132b260008383612a15565b61330381600160008573ffffffffffffffffffffffffffffffffffffffff1673ffffffffffffffffffffffffffffffffffffffff168152602001908152602001600020612a3490919063ffffffff16565b5061331a81836002612a4e9092919063ffffffff16565b50808273ffffffffffffffffffffffffffffffffffffffff16600073ffffffffffffffffffffffffffffffffffffffff167fddf252ad1be2c89b69c2b068fc378daa952ba7f163c4a11628f55a4df523b3ef60405160405180910390a45050565b60008060007fc5d2460186f7233c927e7db2dcc703c0e500b653ca82273b7bfad8045d85a47060001b9050833f91508082141580156133bd57506000801b8214155b92505050919050565b60606133d58484600085613401565b90509392505050565b600080836001016000848152602001908152602001600020541415905092915050565b606061340c8561337b565b61347e576040517f08c379a000000000000000000000000000000000000000000000000000000000815260040180806020018281038252601d8152602001807f416464726573733a2063616c6c20746f206e6f6e2d636f6e747261637400000081525060200191505060405180910390fd5b600060608673ffffffffffffffffffffffffffffffffffffffff1685876040518082805190602001908083835b602083106134ce57805182526020820191506020810190506020830392506134ab565b6001836020036101000a03801982511681845116808217855250505050505090500191505060006040518083038185875af1925050503d8060008114613530576040519150601f19603f3d011682016040523d82523d6000602084013e613535565b606091505b5091509150811561354a5780925050506135ff565b60008151111561355d5780518082602001fd5b836040517f08c379a00000000000000000000000000000000000000000000000000000000081526004018080602001828103825283818151815260200191508051906020019080838360005b838110156135c45780820151818401526020810190506135a9565b50505050905090810190601f1680156135f15780820380516001836020036101000a031916815260200191505b509250505060405180910390fd5b94935050505056fe796f75206d75737420626964206d6f7265207468616e207468652063757272656e74206869676820626964456e756d657261626c655365743a20696e646578206f7574206f6620626f756e64734552433732313a207472616e7366657220746f206e6f6e20455243373231526563656976657220696d706c656d656e7465724552433732313a207472616e7366657220746f20746865207a65726f20616464726573736f6e6c79207468652063726561746f722063616e207374617274207468652066697273742061756374696f6e4552433732313a206f70657261746f7220717565727920666f72206e6f6e6578697374656e7420746f6b656e4552433732313a20617070726f76652063616c6c6572206973206e6f74206f776e6572206e6f7220617070726f76656420666f7220616c6c4552433732313a2062616c616e636520717565727920666f7220746865207a65726f20616464726573734552433732313a206f776e657220717565727920666f72206e6f6e6578697374656e7420746f6b656e456e756d657261626c654d61703a20696e646578206f7574206f6620626f756e64734552433732313a20617070726f76656420717565727920666f72206e6f6e6578697374656e7420746f6b656e746869732066756e6374696f6e2063616e206f6e6c792062652063616c6c6564206f6e63654552433732313a207472616e73666572206f6620746f6b656e2074686174206973206e6f74206f776e4552433732314d657461646174613a2055524920717565727920666f72206e6f6e6578697374656e7420746f6b656e4552433732313a20617070726f76616c20746f2063757272656e74206f776e65725468652063757272656e742061756374696f6e2068617320656e6465642e20506c656173652073746172742061206e6577206f6e652e4552433732313a207472616e736665722063616c6c6572206973206e6f74206f776e6572206e6f7220617070726f766564a264697066735822122086983c79bc4bb52395e8c7dae066aedbff5ab4ba72206bd48af0ec16d3b9879464736f6c63430007000033",
  "immutableReferences": {},
  "source": "pragma solidity ^0.7.0;\n\nimport { DSMath } from \"./DSMath.sol\";\nimport \"@openzeppelin/contracts/token/ERC721/ERC721.sol\";\nimport \"@openzeppelin/contracts/token/ERC721/IERC721Receiver.sol\";\n\nimport \"@superfluid-finance/ethereum-contracts/contracts/interfaces/superfluid/ISuperfluid.sol\";\nimport \"@superfluid-finance/ethereum-contracts/contracts/interfaces/agreements/IConstantFlowAgreementV1.sol\";\nimport \"@superfluid-finance/ethereum-contracts/contracts/interfaces/agreements/IInstantDistributionAgreementV1.sol\";\n\ncontract Emanafte is ERC721, IERC721Receiver, DSMath {\n  using SafeMath for uint256;\n\n  address payable public creator;\n  // winLength is the number of seconds that a user must be the highBidder to win the auction;\n  uint256 public winLength;\n\n  struct Auction {\n      uint256 lastBidTime;\n      uint256 highBid;\n      address owner;\n      address highBidder;\n  }\n\n  address payable[] public revShareRecipients;\n  uint256[] public ownerRevShares;\n  uint256 public totalShares;\n\n  uint256 public currentGeneration;\n\n  ISuperfluid private host;\n  IConstantFlowAgreementV1 private cfa;\n  IInstantDistributionAgreementV1 private ida;\n  ISuperToken private tokenX;\n\n  mapping (uint256 => Auction) public auctionByGeneration;\n\n  event newAuction(uint256 id);\n  event auctionWon(uint256 id, address indexed winner);\n\n  constructor(ISuperfluid _host, IConstantFlowAgreementV1 _cfa, IInstantDistributionAgreementV1 _ida, ISuperToken _tokenX, uint256 _winLength) public ERC721 (\"emaNaFTe\", \"emNFT\") {\n      assert(address(host) != address(0));\n      assert(address(cfa) != address(0));\n      assert(address(ida) != address(0));\n      assert(address(_tokenX) != address(0));\n      host = _host;\n      cfa = _cfa;\n      ida = _ida;\n      tokenX = _tokenX;\n      winLength = _winLength;\n      creator = msg.sender;\n      revShareRecipients.push(creator);\n      ownerRevShares.push(1000000);\n      totalShares = ownerRevShares[0];\n      setApprovalForAll(address(this), true);\n  }\n\n  function onERC721Received(address, address, uint256, bytes calldata) external override returns (bytes4) {\n      return bytes4(keccak256(\"onERC721Received(address,address,uint256,bytes)\"));\n  }\n\n  function firstAuction() external {\n    require(msg.sender == creator, \"only the creator can start the first auction\");\n    require(currentGeneration < 1, \"this function can only be called once\");\n\n    ERC721._safeMint(msg.sender, 0);\n\n    // Create the first auction\n    currentGeneration = 1;\n    Auction storage _auction = auctionByGeneration[1];\n\n    // creating the first auction creates an income distribution agreement index\n    // host.callAgreement(ida.address, ida.contract.methods.createIndex\n    //    (tokenX.address, 1, \"0x\").encodeABI(), { from: address(this) })\n    // // creating the first auction adds the creator to the income distribution agreement subscribers\n    // host.callAgreement(ida.address, ida.contract.methods.updateSubscription\n    //    (tokenX.address, 1, msg.sender, ownerRevShares[0], \"0x\").encodeABI(), { from: address(this) })\n\n    emit newAuction(currentGeneration);\n  }\n\n  // Submit a higher bid and increase the length of the auction\n  function bid(uint bidAmount) public returns (uint256 highBid, uint256 lastBidTime, address highBidder) {\n      Auction storage _auction = auctionByGeneration[currentGeneration];\n      uint256 endTime = _auction.lastBidTime + winLength;\n      require(block.timestamp > endTime, \"The current auction has ended. Please start a new one.\");\n      // TODO: Add a minimum bid increase threshold\n      require(bidAmount > _auction.highBid, \"you must bid more than the current high bid\");\n\n      tokenX.transferFrom(msg.sender, address(this), bidAmount);\n      // highBidder creates new SuperFluid constant flow agreement\n      // host.callAgreement(cfa.address, cfa.contract.methods.createFlow\n         // (tokenX.address, address(this), msg.value, \"0x\").encodeABI(), { from: msg.sender })\n\n\n       // new highBidder should stop previous highBidder's SuperFluid constant flow agreement\n      // if (_auction.generation>0){\n            // host.callAgreement(cfa.address, cfa.contract.methods.deleteFlow\n                // (tokenX.address, _auction.prevHighBidder, address(this), _auction.highBid, \"0x\").encodeABI(), { from: address(this) }\n      // }\n\n      _auction.highBid = bidAmount;\n      _auction.highBidder = msg.sender;\n      _auction.lastBidTime = block.timestamp;\n\n      return (_auction.highBid, _auction.lastBidTime, _auction.highBidder);\n  }\n\n  // End the auction and claim prize\n  // TODO: allow anyone to end the auction\n  function settleAndBeginAuction() public {\n      Auction storage _auction = auctionByGeneration[currentGeneration];\n\n      require(_auction.highBid > 0, \"The auction has not started yet\");\n      uint256 endTime = _auction.lastBidTime + winLength;\n      require(block.timestamp > endTime, \"The auction is not over yet\");\n\n      // Auction winner mints the new childNFT\n      ERC721._safeMint(_auction.highBidder, currentGeneration);\n\n      // claiming NFT deletes the winner's SuperFluid constant flow agreement\n      // host.callAgreement(cfa.address, cfa.contract.methods.deleteFlow\n      // (tokenX.address, msg.sender, address(this), msg.value, \"0x\").encodeABI(), { from: msg.sender })\n\n      // for (uint i = 0; i < revShareRecipients.length; i++) {\n      //     uint distro = rmul(ownerRevShares[i], perShare);\n      //     revShareRecipients[i].tranhoster(distro);\n      // }\n\n      // Update the revenue shares array\n      // revShareRecipients.push(msg.sender);\n      // uint position = ownerRevShares.length - 1;\n      // uint newShares = ownerRevShares[position].mul(9).div(10);\n      // totalShares = totalShares + newShares;\n      // ownerRevShares.push(newShares);\n\n      // claiming the NFT distributes the auction's accumulated funds to the revenue share owners\n      // host.callAgreement(ida.address, ida.contract.methods.updateIndex\n      // (tokenX.address, 1, balanceOf(address(this)), \"0x\").encodeABI(), { from: address(this) })\n\n      // Upon claiming, the contract distributes the auction funds to the prior owners according to their proportion of totalShares\n      // uint amt = address(this).balance;\n      // uint perShare = rdiv(amt, totalShares);\n\n      // claiming the NFT adds the new owner to the income distribution agreement subscribers\n      // host.callAgreement(ida.address, ida.contract.methods.updateSubscription\n           // (tokenX.address, 1, msg.sender, newShares, \"0x\").encodeABI(), { from: address(this) })\n\n      // claiming the NFT approves the subscription\n      // host.callAgreement(ida.address, ida.contract.methods.approveSubscription\n           // (tokenX.address, address(this), 1, \"0x\").encodeABI(), { from: msg.sender })\n\n      emit auctionWon(currentGeneration, _auction.highBidder);\n\n      _nextAuction();\n  }\n\n  function _nextAuction() private {\n    currentGeneration++;\n    Auction storage _auction = auctionByGeneration[currentGeneration];\n    emit newAuction(currentGeneration);\n  }\n\n  function checkTimeRemaining() public view returns (uint) {\n      Auction storage _auction = auctionByGeneration[currentGeneration];\n      require(_auction.highBid > 0, \"The auction has not started yet\");\n      uint timeLeft = _auction.lastBidTime + winLength - block.timestamp;\n      return timeLeft;\n  }\n\n  function checkEndTime() public view returns (uint) {\n      Auction storage _auction = auctionByGeneration[currentGeneration];\n      require(_auction.highBid > 0, \"The auction has not started yet\");\n      uint endTime = _auction.lastBidTime + winLength;\n      return endTime;\n  }\n\n  function getCurrentAuctionInfo() public view returns ( uint highBid, address highBidder, uint lastBidTime){\n      Auction storage _auction = auctionByGeneration[currentGeneration];\n      return ( _auction.highBid, _auction.highBidder, _auction.lastBidTime);\n  }\n\n  function getAuctionInfo(uint id) public view returns ( uint highBid, address highBidder, uint lastBidTime){\n      Auction storage _auction = auctionByGeneration[id];\n      return ( _auction.highBid, _auction.highBidder, _auction.lastBidTime);\n  }\n\n  function getAuctionBalance() public view returns (uint balanceOf) {\n      return tokenX.balanceOf(address(this));\n  }\n }\n",
  "sourcePath": "/home/dev/repos/monorepo/packages/contracts/contracts/Emanafte.sol",
  "compiler": {
    "name": "solc",
    "version": "0.7.0+commit.9e61f92b.Emscripten.clang"
  },
  "schemaVersion": "3.3.1",
  "updatedAt": "2020-10-29T01:53:49.813Z",
  "devdoc": {
    "kind": "dev",
    "methods": {
      "approve(address,uint256)": {
        "details": "See {IERC721-approve}."
      },
      "balanceOf(address)": {
        "details": "See {IERC721-balanceOf}."
      },
      "baseURI()": {
        "details": "Returns the base URI set via {_setBaseURI}. This will be automatically added as a prefix in {tokenURI} to each token's URI, or to the token ID if no specific URI is set for that token ID."
      },
      "getApproved(uint256)": {
        "details": "See {IERC721-getApproved}."
      },
      "isApprovedForAll(address,address)": {
        "details": "See {IERC721-isApprovedForAll}."
      },
      "name()": {
        "details": "See {IERC721Metadata-name}."
      },
      "ownerOf(uint256)": {
        "details": "See {IERC721-ownerOf}."
      },
      "safeTransferFrom(address,address,uint256)": {
        "details": "See {IERC721-safeTransferFrom}."
      },
      "safeTransferFrom(address,address,uint256,bytes)": {
        "details": "See {IERC721-safeTransferFrom}."
      },
      "setApprovalForAll(address,bool)": {
        "details": "See {IERC721-setApprovalForAll}."
      },
      "supportsInterface(bytes4)": {
        "details": "See {IERC165-supportsInterface}. Time complexity O(1), guaranteed to always use less than 30 000 gas."
      },
      "symbol()": {
        "details": "See {IERC721Metadata-symbol}."
      },
      "tokenByIndex(uint256)": {
        "details": "See {IERC721Enumerable-tokenByIndex}."
      },
      "tokenOfOwnerByIndex(address,uint256)": {
        "details": "See {IERC721Enumerable-tokenOfOwnerByIndex}."
      },
      "tokenURI(uint256)": {
        "details": "See {IERC721Metadata-tokenURI}."
      },
      "totalSupply()": {
        "details": "See {IERC721Enumerable-totalSupply}."
      },
      "transferFrom(address,address,uint256)": {
        "details": "See {IERC721-transferFrom}."
      }
    },
    "version": 1
  },
  "userdoc": {
    "kind": "user",
    "methods": {},
    "version": 1
  }
}