{
  "contractName": "SuperAppDefinitions",
  "abi": [
    {
      "inputs": [],
      "name": "AFTER_AGREEMENT_CREATED_NOOP",
      "outputs": [
        {
          "internalType": "uint256",
          "name": "",
          "type": "uint256"
        }
      ],
      "stateMutability": "view",
      "type": "function"
    },
    {
      "inputs": [],
      "name": "AFTER_AGREEMENT_TERMINATED_NOOP",
      "outputs": [
        {
          "internalType": "uint256",
          "name": "",
          "type": "uint256"
        }
      ],
      "stateMutability": "view",
      "type": "function"
    },
    {
      "inputs": [],
      "name": "AFTER_AGREEMENT_UPDATED_NOOP",
      "outputs": [
        {
          "internalType": "uint256",
          "name": "",
          "type": "uint256"
        }
      ],
      "stateMutability": "view",
      "type": "function"
    },
    {
      "inputs": [],
      "name": "BEFORE_AGREEMENT_CREATED_NOOP",
      "outputs": [
        {
          "internalType": "uint256",
          "name": "",
          "type": "uint256"
        }
      ],
      "stateMutability": "view",
      "type": "function"
    },
    {
      "inputs": [],
      "name": "BEFORE_AGREEMENT_TERMINATED_NOOP",
      "outputs": [
        {
          "internalType": "uint256",
          "name": "",
          "type": "uint256"
        }
      ],
      "stateMutability": "view",
      "type": "function"
    },
    {
      "inputs": [],
      "name": "BEFORE_AGREEMENT_UPDATED_NOOP",
      "outputs": [
        {
          "internalType": "uint256",
          "name": "",
          "type": "uint256"
        }
      ],
      "stateMutability": "view",
      "type": "function"
    },
    {
      "inputs": [],
      "name": "JAIL",
      "outputs": [
        {
          "internalType": "uint256",
          "name": "",
          "type": "uint256"
        }
      ],
      "stateMutability": "view",
      "type": "function"
    },
    {
      "inputs": [],
      "name": "TYPE_APP_FINAL",
      "outputs": [
        {
          "internalType": "uint256",
          "name": "",
          "type": "uint256"
        }
      ],
      "stateMutability": "view",
      "type": "function"
    },
    {
      "inputs": [],
      "name": "TYPE_APP_SECOND",
      "outputs": [
        {
          "internalType": "uint256",
          "name": "",
          "type": "uint256"
        }
      ],
      "stateMutability": "view",
      "type": "function"
    }
  ],
  "bytecode": "0x61022c610026600b82828239805160001a60731461001957fe5b30600052607381538281f3fe730000000000000000000000000000000000000000301460806040526004361061009d5760003560e01c8063796795c311610070578063796795c31461011a5780639ac3237d14610138578063b732da1814610156578063c23ddadc14610174578063c8e63d13146101925761009d565b806346062cc9146100a2578063596ef58d146100c05780635c510c46146100de5780636ecccafe146100fc575b600080fd5b6100aa6101b0565b6040518082815260200191505060405180910390f35b6100c86101b5565b6040518082815260200191505060405180910390f35b6100e66101be565b6040518082815260200191505060405180910390f35b6101046101c7565b6040518082815260200191505060405180910390f35b6101226101d0565b6040518082815260200191505060405180910390f35b6101406101d9565b6040518082815260200191505060405180910390f35b61015e6101de565b6040518082815260200191505060405180910390f35b61017c6101e7565b6040518082815260200191505060405180910390f35b61019a6101ed565b6040518082815260200191505060405180910390f35b600181565b64100000000081565b64010000000081565b64080000000081565b64040000000081565b600281565b64020000000081565b61800081565b6420000000008156fea2646970667358221220c32ceec28bac8df2ae6e324029c4c80f2ab0337b8458a7340f16c8831be4e73b64736f6c63430007000033",
  "immutableReferences": {},
  "source": "// SPDX-License-Identifier: MIT\npragma solidity >= 0.7.0;\n\n/**\n * @dev Super app definitions library\n */\nlibrary SuperAppDefinitions {\n\n    //\n    // App manifest config word\n    //\n    uint constant public TYPE_APP_FINAL = 1 << 0;\n    uint constant public TYPE_APP_SECOND = 1 << 1;\n    uint constant public JAIL = 1 << 15;\n\n    //\n    // Callback implementation bit masks\n    //\n    uint constant public BEFORE_AGREEMENT_CREATED_NOOP = 1 << (32 + 0);\n    uint constant public AFTER_AGREEMENT_CREATED_NOOP = 1 << (32 + 1);\n    uint constant public BEFORE_AGREEMENT_UPDATED_NOOP = 1 << (32 + 2);\n    uint constant public AFTER_AGREEMENT_UPDATED_NOOP = 1 << (32 + 3);\n    uint constant public BEFORE_AGREEMENT_TERMINATED_NOOP = 1 << (32 + 4);\n    uint constant public AFTER_AGREEMENT_TERMINATED_NOOP = 1 << (32 + 5);\n\n}\n",
  "sourcePath": "@superfluid-finance/ethereum-contracts/contracts/interfaces/superfluid/SuperAppDefinitions.sol",
  "compiler": {
    "name": "solc",
    "version": "0.7.0+commit.9e61f92b.Emscripten.clang"
  },
  "schemaVersion": "3.3.2",
  "updatedAt": "2020-11-12T23:24:35.376Z",
  "devdoc": {
    "details": "Super app definitions library",
    "kind": "dev",
    "methods": {},
    "version": 1
  },
  "userdoc": {
    "kind": "user",
    "methods": {},
    "version": 1
  }
}